:020000040800F2
:10000000A8070020A9010008B1010008B3010008F9
:10001000B5010008B7010008B901000800000000A0
:10002000000000000000000000000000BB0100080C
:10003000BD01000800000000BF010008C101000868
:10004000C3010008C3010008C3010008C301000880
:10005000C3010008C3010008C3010008C301000870
:10006000C3010008C3010008C3010008C301000860
:10007000C3010008C3010008C3010008C301000850
:10008000C3010008C3010008C3010008C301000840
:10009000C3010008C3010008C3010008C301000830
:1000A000C3010008C3010008C3010008C301000820
:1000B00015180008C3010008C3010008C3010008A7
:1000C000C3010008C3010008C3010008C301000800
:1000D000C30100087D180008C3010008C30100081F
:1000E000C3010008C3010008C301000800F002F8C2
:1000F00000F04BF80AA090E8000C82448344AAF177
:100100000107DA4501D100F040F8AFF2090EBAE874
:100110000F0013F0010F18BFFB1A43F0010318473B
:10012000E425000004260000103A24BF78C878C1F6
:10013000FAD8520724BF30C830C144BF04680C60ED
:10014000704700000023002400250026103A28BF35
:1001500078C1FBD8520728BF30C148BF0B60704739
:100160001FB59DE8030000F07BFB00F02BFA0400B4
:100170000020002102F00EF8401C606000F060F9E1
:100180001FBD10B500F0C5F910BD00F0F5F911461E
:10019000FFF7E6FF01F098FD00F00EFB03B4FFF758
:1001A000F0FF03BC00F0CEFC094880470948004737
:1001B000FEE7FEE7FEE7FEE7FEE7FEE7FEE7FEE717
:1001C000FEE7FEE704480549054A064B7047000074
:1001D000BD170008ED000008A8010020A8070020B6
:1001E000A8030020A803002070B5064600F090F890
:1001F0000468054630460A22002100F08DF82C6084
:1002000070BD000010B5044603E001F0DBFC401CAB
:1002100009D014F8010B05490028F6D1BDE81040BB
:100220000A2001F0CFBC4FF0FF3010BD6C00002061
:1002300040EA010310B59B070FD1042A0DD310C863
:1002400008C9121F9C42F8D020BA19BA884201D9B5
:10025000012010BD4FF0FF3010BD1AB1D30703D0FD
:10026000521C07E0002010BD10F8013B11F8014BB3
:100270001B1B07D110F8013B11F8014B1B1B01D1CF
:10028000921EF1D1184610BD4FF0013C50F8042BDE
:1002900051F8043B9A4221D1A2EB0C03934313EA99
:1002A000CC1317D150F8042B51F8043B9A4215D1C6
:1002B000A2EB0C03934313EACC130BD150F8042B9D
:1002C00051F8043B9A4209D1A2EB0C03934313EA81
:1002D000CC13DBD04FF00000704700BFD01A01BA3A
:1002E000B1FA81F101F0180122FA01F0CB40DBB242
:1002F000C0B2C01AC1F120012CFA01F3D11A914306
:1003000011EAC311E6D1704770477047704700008B
:1003100000487047140100202DE9F04791460F4630
:1003200080460446002614F8015B2DB100F030F839
:100330000068405DC007F6D12B2D02D02D2D18D0BE
:10034000641E4A463946204600F02AF827B139682B
:10035000A14201D1C7F800804FF0020471050BD50E
:100360004042002803DDFFF7D3FF0460A007BDE88B
:10037000F08746F48066E4E70028F8DAFFF7C8FF64
:1003800004606FF00040F2E700487047140100205D
:1003900010B500F017F9001D10BD00BFF91D0000D9
:1003A0002DE9F05F824615468B4600270AF10104CD
:1003B000B9460078302801D09DB113E014F8010B44
:1003C0000127782803D0582801D045B10AE00DB1A3
:1003D000102D07D1002714F8010B102502E0082585
:1003E00000E00A250026B0460EE005FB080005FBEC
:1003F00006F101271FFA80F801EB1046B6F5803FA1
:1004000000D3B94614F8010B294600F006F900287C
:10041000EBDABBF1000F05D00FB1641E00E05446CB
:10042000CBF80040B9F1000F06D0FFF771FF0221B1
:100430000160C81EBDE8F09F48EA0640FAE70000E8
:1004400010B54248542100F0C7F94148542100F04A
:10045000C3F94048542100F0BFF93F493B483C4AAA
:100460003F4B08603D490A603A491960531C0365D7
:10047000481C1065012008653B48344A39A178447E
:1004800000F0FCF820B9384878440A3800F09DF9AB
:1004900037482F4A35A1784400F0F0F820B93448A5
:1004A00078440A3800F091F932482A4A2FA178445A
:1004B00000F0E4F820B92F4878440A3800F085F9B4
:1004C00040232248DC000021224600F0B4F820B18D
:1004D00025487844543800F078F91D4822464023D6
:1004E000002100F0A8F820B121487844543800F0E9
:1004F0006CF9184822461023002100F09CF80028CF
:1005000006D01C487844BDE81040563800F05DB96C
:1005100010BD104870B5006D20F001040B4800F0CC
:1005200025F90B4800F022F90A4800F01FF909E00C
:10053000206D20F00105204600F018F9204600F05B
:1005400045F82C46002CF3D170BD000018000020A7
:100550006C000020C00000200000002004000020EB
:100560000800002072000000482100007700000011
:1005700037210000102100007546FFF705FFAE4649
:1005800005006946534620F00700854618B020B59F
:10059000FFF718FEBDE820404FF000064FF00007BF
:1005A0004FF000084FF0000BAC46ACE8C009ACE8D7
:1005B000C009ACE8C009ACE8C00921F007018D46CC
:1005C00070470000004870473401002070B50446B1
:1005D000051F00F029F90068002C14BF446870BDA5
:1005E000002C18BFAC423CBF20466468F8D30168B9
:1005F0000A18AA4218BF456003D12A68054611446B
:10060000016028684119A1421CBF6C6070BD61681F
:10061000696021680844286070BD3A2800D23038EB
:1006200020F02002412A01D3A2F13700884201D3F1
:100630004FF0FF30704770B5C468A50713D065024E
:1006400011D4B2F5807F09D0B2F5007F06D0B2F5A3
:10065000806F08D1012300F1240106E05D1E6FF0D8
:100660007F46B54201D3012070BD0161C361416085
:1006700024F470611143C160002070BD2DE9F04188
:100680000C461646070047D0104600F06FF8207859
:10069000611C61280AD0722802D077283CD102E080
:1006A0000125002405E00225042402E0082448F284
:1006B000020511F8010B2B2806D0622809D011F889
:1006C000010C74280AD00BE045F0030544F0020445
:1006D000EFE745F0040544F00104EAE744F01004B4
:1006E0003846214601F0EAF9411C15D0002131615C
:1006F00071604FF40071F560F1617061200704D5FD
:1007000030460222002100F009F9306D40F001006E
:1007100030653046BDE8F0810020FBE72DE9F0416F
:100720000D460646104C206DC10704D0410804D088
:1007300020F00104F7E722460EE0542000F0BFF855
:1007400007000ED0206D47F00101084354212065B9
:10075000384600F041F83A4629463046BDE8F041B7
:100760008CE70020D6E70000180000202DE9F047B4
:1007700004464FF000094FF0FF37C568D4E90486FE
:10078000A80707D0204600F079F9304601F082F939
:10079000002802DA3846BDE8F087280502D5404631
:1007A000FFF714FF4C21204600F016F8206D20F0D2
:1007B000010020654846EEE710B50446AFF300801F
:1007C0002046BDE81040FFF7E9BC10B500F0A0F9E5
:1007D000BDE8104000F096B94FF0000200B5134696
:1007E00094469646203922BFA0E80C50A0E80C5051
:1007F000B1F12001BFF4F7AF090728BFA0E80C5002
:1008000048BF0CC05DF804EB890028BF40F8042BFA
:1008100008BF704748BF20F8022B11F0804F18BF67
:1008200000F8012B70470000004870471C010020B1
:10083000704770477047704738B504460A46002035
:100840006946AFF30080002808BF38BD0246009912
:10085000204600F084F9012038BD012000F0D3B912
:10086000F8B5AFF30080054600200C46102000BF0D
:100870000646A819A0420DD9324669460020AFF3BA
:100880000080070008BF00F0BEF90098A04218BF22
:100890000546C419FFF7C8FF05600746F01D20F0A4
:1008A00007004619284600F053F9B44208BFF8BDC6
:1008B000A21B31463868BDE8F84000F050B970B569
:1008C0000646FFF7B1FF056806F10B0020F00704AC
:1008D000B4429CBF002070BD2B466A68BAB1106854
:1008E000A04210D304F1080188423CBF5068586010
:1008F00007D35168101941601168091B01605860E5
:100900001460101D70BD13465268002AE7D12146BD
:100910002846FFF791FF0028DED170BD2DE9F04198
:10092000044616460D464769007B80072ED03846A0
:1009300001F0BCF850BB3EB3012E02D0022E25D1EF
:1009400004E0204600F025F905441DE0384601F09A
:10095000ABF8E168002841F01001E16005DA2046BB
:1009600000F058F80120BDE8F081C9030BD562689A
:10097000E16A914200D81146A26911442269891A9C
:10098000814200DD08460544002D01DA0220EAE735
:10099000E16A6068E268814206D29103E06203D5B1
:1009A00022F4003141F01002A6690027AE4213DCA8
:1009B000E16A814201D90B4600E0034603EB060CD5
:1009C0002369ACEB030CAC4506DD814201D98C46B2
:1009D00000E084469C4505D1A760276042F02000D6
:1009E000A5620DE0AD1BE669AE1B8142A66000D991
:1009F0000846C01A281A20605819606022F02000AA
:100A000003490840E060002084F84870ABE700002C
:100A1000BFCFD7FFC16821F4001141F08001C16050
:100A200000218160016070472DE9F047814614463E
:100A30000E464FF0FF383248D5685769054209D055
:100A40003846A16901F06CF8002811DB2C48C0433E
:100A50000540E5602B4632464946384601F064F8C9
:100A6000A16920F00042B21A11440028A16103D00C
:100A70002046FFF7CFFF4046BDE8F08770B504463B
:100A80000569C06A6168884200D80846E16821F4B7
:100A90002011E160C90312D5A84208D02246411BAB
:100AA0002846FFF7C1FF10B14FF0FF3070BD0020A6
:100AB000E562C4E90150E06820F48030E060002085
:100AC00070BD10B50446C06820F02000E060A16A47
:100AD000A06988420DD02046FFF7D0FFE06820F4DF
:100AE000405040F01000E060A06AA0612069E06220
:100AF000606044F24001E0688843E06010BD00009F
:100B000010000200002801D000F01CB8704700005F
:100B100010B5014602A000F05DF8012010BD0000F4
:100B200053494752545245443A20526564697265AC
:100B300063743A2063616E2774206F70656E3A208B
:100B40000000000001491820ABBEFEE726000200AD
:100B500000210160C0E90110704710207047034672
:100B600040688C46002818BF88423CBF0346406856
:100B7000F8D318681844884207D00CF1030020F01D
:100B80000700001D411A521A0146081D0A60FFF7AE
:100B90001DBD10B50146C268900703D0900607D569
:100BA000886A0AE0FFF7B4FB01210160881E10BDCE
:100BB0008B69486818440B69C01A91F848301BB11A
:100BC00091F84910401A10BD1103FCD50028FADD38
:100BD000401E10BD70B505460C460A2000E06D1C95
:100BE00000F0B8FF35B128780028F8D102E0641C85
:100BF00000F0B0FF14B120780028F8D1BDE87040B3
:100C00000A2000F0A7BF10B500F006F8BDE81040BC
:100C1000FFF778BF7047000010B5012805D000210C
:100C200003A0FFF7D7FF012010BD09A1F8E70000DE
:100C300053494752544D454D3A204F7574206F66C5
:100C40002068656170206D656D6F7279000000002D
:100C50003A2048656170206D656D6F727920636F11
:100C6000727275707465640010B582B045F200440C
:100C7000C4F2000420464621102201F009F8B420F5
:100C800000F01AF80DF1060320464621022200F07A
:100C9000ABFFBDF80600000400BA01F018FC43F2F7
:100CA0003333C3F6F3734FF0333201F089FA01F0B6
:100CB000DFFB02B010BD0000B0B5044601F054F8EF
:100CC000054600BF01F050F8401BA042FAD3B0BD6A
:100CD000B0B5044600F09EF842F21005C4F20205D9
:100CE000286840F0020028606C60286840F04000EE
:100CF000286000F08FF8286820F002002860B0BD5E
:100D000042F21000C4F20200016841F0800101606B
:100D1000704700004FF6004CC0F6010CDCF80030C4
:100D20000380DCF804000860DCF8080010607047FD
:100D300080B584B00DF10E0002A901AAFFF7EAFF09
:100D400042F2EA60C0F6000001F05EF80BA001F08C
:100D50005BF8BDF80E0001F00DF80BA001F054F89F
:100D6000029801F007F80DA001F04EF8019801F08B
:100D700001F80DA001F048F804B080BD5468726518
:100D800073686F6C643A20000D0A54696D652063C6
:100D90006865636B204C75783A200000206D730DF8
:100DA0000A4C75783A2000000D0A0000F0B581B0B9
:100DB00014460D46064600F019F84FF60047C0F6F7
:100DC00001073846FFF784FF3846314600F02AF81D
:100DD000381D294600F026F807F10800214600F0EA
:100DE00021F8FFF78DFF01B0F0BD000042F20400D2
:100DF000C4F20200C168090658BF704740F22311CF
:100E0000C4F26751016048F6AB11CCF6EF510160B6
:100E10007047000042F20C00C4F202000168C907EA
:100E2000FCD1704770B50C460546FFF7F3FF42F260
:100E30001006C4F20206306840F0010030602C80D9
:100E4000FFF7E8FF200C6880FFF7E4FF306820F030
:100E50000100306070BD00002DE9F041CA7802F059
:100E60000F0CD30644BF8B784CEA030C09880B06A1
:100E700021D0056800234FF001084FF00F0E002627
:100E800008E000BF282A08BF47610136082E03F199
:100E900004030FD008FA06F70F42F6D00EFA03F457
:100EA00025EA04040CFA03F5482A45EA0405E9D1C9
:100EB0000761EAE70560B1F5807F38BFBDE8F081E2
:100EC000446800234FF4807E4FF00F08002607E0AF
:100ED000282A08BF47610136082E03F1040310D009
:100EE0000EFA06F707EA0105BD42F4D108FA03F548
:100EF000AC430CFA03F5482A44EA0504E8D107613B
:100F0000E9E74460BDE8F0814161704701617047E5
:100F100041F21800C4F20200416841F480014160CE
:100F2000016841F00801016040F60440C4F201008C
:100F3000016821F47F410160016841F43B41016097
:100F400045F60000C4F20000018841F40041018030
:100F500001886FF3DF31018024218180B4218183F6
:100F6000252101844FF480410181012101807047D6
:100F70002DE9F04F81B045F614072EA0C4F200070A
:100F800000F042FF4DF6F00A42F2A26920244FF031
:100F9000000BCFF6FF7A40F202450FF2BC08C0F614
:100FA000000900BFE0B2282808BF382400F090F8FC
:100FB000E6B2700027F8040C504600BF3988294279
:100FC00001D10130FAD3388880070BD400F08CF8B7
:100FD000388820F4806038800520FFF76DFE0120FE
:100FE00068B910E0B888404600F00EFF304600F0C7
:100FF000C1FE484600F008FF0020A34618B10134A6
:10100000E0B24028CED35FEA0B600DD119A000F00A
:10101000FBFE27204FF0270B00F0ACFE42F2A2604F
:10102000C0F6000000F0F0FE5FFA8BF001B0BDE802
:10103000F08F00BF5363616E6E696E672049324363
:1010400032204C4344206164647265737365732E6F
:101050002E2E0D0A000000004C434420666F756E72
:101060006420617420616464726573733A2030781F
:10107000000000004C4344206E6F7420666F756E54
:10108000642C207573696E672064656661756C7485
:1010900020616464726573733A2030780000000048
:1010A00081B045F61001C4F20001088088888007ED
:1010B000FCD50889009001B07047000045F610018A
:1010C000C4F20001088000BF88880006FCD5704784
:1010D00045F60000C4F20000018841F480710180EF
:1010E000818AC907FCD0704745F60000C4F20000B1
:1010F000018841F4007101807047000002880029D6
:1011000042F4806308BF22F48063038070470000CC
:10111000828A008B60F3174202EA0100401AB0FA9B
:1011200080F04009704700000288002942F0010366
:1011300008BF22F0010303807047000002880029E5
:1011400042F4807308BF22F480730380704700006C
:101150000288002942F4007308BF22F40073038060
:101160007047000070B586B0044680880D4620F0B8
:101170003F0601A800F0FEF903994DF68360C4F222
:101180001B30A1FB000346EA9340A080208820F09A
:10119000010020802A6848F2A060C0F2010082426B
:1011A0004FEA934008D85200B1FBF2F14FF6FC72BF
:1011B000114208BF042125E0EB884BF6FF76B342CD
:1011C00004D102EB4202B1FBF2F105E019235A43CC
:1011D000B1FBF2F141F480414FF49672504344F672
:1011E000D352C1F26202A0FB020208466FF31F3025
:1011F000B0FA80F04009084348F20001CFF6FF71D1
:101200000143900901302084A18320884FF6F531F5
:1012100040F00100208020886A890840A98808439E
:1012200010432080A88929890843208106B070BD19
:10123000008AC0B27047000041F00103002A08BFD5
:1012400001F0FE03038270470182704780B50120E0
:1012500000F004F80A20FFF72FFD80BDB0B582B082
:1012600000F0F00100010A1D8DF80510011D083085
:101270004FF0FF3401AD8DF804208DF806108DF885
:10128000070000BF2819407800F0B4F80134032C9F
:10129000F8D102B0B0BD0000B0B582B000F0F001EE
:1012A000000101F10D0209318DF8051000F10D0169
:1012B00009304FF0FF3401AD8DF804208DF8061091
:1012C0008DF807002819407800F094F80134032CB9
:1012D000F8D102B0B0BD000010B5FFF749FE40F2F2
:1012E0009C14C2F20004207020B919A0FEF78AFFF6
:1012F000272020702078400020703320FFF7AEFFB9
:101300000A20FFF7D9FC3220FFF7A8FF3220FFF7B1
:10131000D3FC2820FFF7A2FF3220FFF7CDFC0120ED
:10132000FFF79CFF3220FFF7C7FC0620FFF796FF70
:101330003220FFF7C1FC0C20FFF790FF3220FFF7AF
:10134000BBFC0220FFF78AFF3220FFF7B5FC10BD7F
:101350004C4344206E6F7420666F756E64210D00DF
:1013600070B584B038B34CF6CD420023CCF6CC42F5
:10137000EC4600BF84B2A4FB0251C90801EB810511
:10138000A0EB450040F030005D1CDBB20CF8030020
:10139000092C2B460846EDD828060AD0ECB2ACF151
:1013A000010500BF285D661EFFF776FF012C34465D
:1013B000F8DC04B070BD3020FFF76EFF04B070BDE4
:1013C00010B50178002908BF10BD441EC8B2FFF750
:1013D00063FFA17801340029F8D110BD80B5A0F1D8
:1013E0004002002908BF80F08002D0B2FFF736FF2C
:1013F00080BD000010B50446FFF76AFE40F29C1065
:10140000C2F200000078FFF74BFE2046FFF756FEC1
:10141000FFF76AFE10BD00002DE9F04381B04CF6E5
:10142000CD41CCF6CC41A0FB0123DA08A2FB01138D
:1014300048F21F51C5F2EB11A0FB011702EB82012C
:10144000A0EB4100D90801EB810142F2B853A2EBB5
:1014500041017A09C0F6000340F6004413F8008009
:1014600013F801909E5C4FF60C47C4F2010400256E
:10147000CFF6FF7720464FF40041FFF745FD0520EA
:1014800044F80780FFF718FC20464FF40041FFF7AF
:101490003DFD20464FF48041FFF736FD052044F81E
:1014A0000790FFF709FC20464FF48041FFF72EFD1F
:1014B00020464FF40051FFF727FD0520E651FFF7C6
:1014C000FBFB20464FF40051FFF720FD05F10F0014
:1014D00085B2B5F57A7FCDD301B0BDE8F0830000C9
:1014E00010B582B01820012100F038F84EF220002B
:1014F00040F60044C1F20300C4F20104019001A9C6
:101500002046FFF7A9FC4FF6FF70E06002B010BD67
:1015100010B582B00420012100F020F80120012143
:1015200000F01CF8FF2040F60004C1F20300C4F2F2
:101530000104019001A92046FFF78EFCFF20E06026
:1015400002B010BD002941F21C01C4F202010A6878
:101550000CBF22EA0000104308607047002941F2E6
:101560001801C4F202010A680CBF22EA000010430D
:101570000860704710B541F20404C4F20204226806
:1015800002F00C02082A41F20022C0F27A021CD1B9
:101590002368D4F800C0C3F3834E5FEACC330EF166
:1015A000020C06D440F60012C0F23D020CFB02F21F
:1015B0000BE023689B0302D40CFB02F205E040F62B
:1015C0000012C0F23D020CFB02F20260226842F2FD
:1015D000A853C2F30312C0F600039A5C0168D1401D
:1015E00041602268C2F302229A5C21FA02F2826010
:1015F0002268C2F3C2229A5C42F2A453D140C16075
:101600002268C0F60003C2F381329A5CB1FBF2F1AA
:10161000016110BD2DE9F04100F0A6FB40F29811E8
:10162000C2F200010A680446801A40F29E1640F297
:101630001008B0F57A7FC2F20006C2F200083AD371
:1016400040F60045C4F201050C60FFF70DFB308049
:1016500000200021FFF7C2FE20A0FFF7B1FE308876
:10166000FFF77EFE1FA0FFF7ABFE40F20C07C2F2B1
:1016700000073888FFF774FE30883988884205D91A
:1016800028462021FFF740FC17A507E02846202127
:10169000FFF73CFC42F2F865C0F60005002001218E
:1016A000FFF79CFE2846FFF78BFE3888D8F800101D
:1016B0003288FFF77BFB40F29410C2F20000016811
:1016C000D8F80020611A914202D30460FFF730FB82
:1016D0003088FFF7A1FEBDE8F08100BF4C75783A75
:1016E000000000002F0000005461742064656E202B
:1016F0000000000080B500F001F880BD82B041F22A
:1017000004000021C4F202000191009150F8041C71
:1017100041F4803140F8041C50F8041C01F40031FD
:101720000091019901310191009919B90199B1F51F
:10173000A06FF1D150F8041C890354BF002101218E
:1017400000910099012936D142F20001C4F2020150
:101750000A6842F010020A600A6822F007020A6072
:101760000A6842F002020A600168016001680160D3
:10177000016841F480610160016821F47C1101601D
:10178000016841F4E811016050F8041C41F08071D7
:1017900040F8041C50F8041C8901FBD5016821F0B5
:1017A00003010160016841F002010160016801F07C
:1017B0000C010829FAD102B07047000080B541F24F
:1017C0000000C4F202000168002241F00101016042
:1017D0004168CFF6FF021140416001684FF6FF7289
:1017E000CFF6F66211400160016821F480210160AA
:1017F000416821F4FE0141604FF41F018160FFF751
:1018000079FF4EF60850CEF200004FF00061016003
:1018100080BD00001020C4F200000188C90708BF85
:101820007047018821F00101018040F29010C2F25E
:1018300000000168013101607047000080B541F28D
:101840001C00C4F20200016841F0010101600C209B
:10185000C4F200004721818340F2E731018401880E
:1018600041F0010101804FF08040018841F0010109
:10187000018000F007F900F0F5F880BD10B543F6DF
:101880000004C4F20104204640F2255100F04AF859
:1018900030B3204600F0D6F8C1B20A2940F28C11CC
:1018A000C2F2000113D1087840F2A012C2F2000285
:1018B00010800A7840F27413C2F20003002098549A
:1018C00040F28B12C2F200020123137007E00A7883
:1018D00040F27413C2F20003985408780130087083
:1018E000204640F2255100F005F810BDC9430180A3
:1018F00070470000090A012202FA01F1C943018080
:10190000704700008289002942F4005308BF22F486
:1019100000538381704700000088084018BF0120F1
:101920007047000001F01F024FF0010CC1F3421399
:10193000022B0CFA02F206D0012B14BF00F11403A3
:1019400000F10C0301E000F110031B880088090A74
:101950001A4020FA01F018BF012210407047000021
:10196000C1F3421301F01F0C1421022B08BF1021F8
:10197000012B4FF0010308BF0C21002A03FA0CF2DF
:1019800043580CBF23EA02021A434250704700003A
:1019900070B586B00446008A0D46C98820F44050D0
:1019A00008432082A0894EF6F3110840A9882A89AD
:1019B0006B89084310431843A081A08AA98920F4A9
:1019C0004070084301AEA0823046FFF7D3FD43F6D6
:1019D000000106F10800C4F201018C4208BF06F1C3
:1019E0000C0000681922B4F90C1050432A68022335
:1019F000002948BF012302FA03F1B0FBF1F048F2DD
:101A00001F51C5F2EB11A0FB01235A096FF06303CC
:101A100002FB0300B4F90C300426002B48BF032658
:101A200000FA06F000F13200A0FB01014FF00F00B8
:101A300048BF072000EA511040EA0210208106B09A
:101A400070BD000080886FF35F2070476FF35F21E7
:101A5000818070474EF20410CEF200002021016018
:101A6000704700004EF20010CEF200004FF080519F
:101A7000016070474EF22540CEF200001021017047
:101A8000704700004EF21C40CEF2000010210170A1
:101A90007047000048F20101411A0020022988BF66
:101AA0004FF0FF30704700000020704748F20101FE
:101AB000411A0020032938BF0120704710B5C8B172
:101AC000044600783A2815D10FA12046FEF7DCFB2A
:101AD00098B10FA12046FEF7D7FB88B10EA1204692
:101AE000FEF7D2FB01464FF0FF30002908BF48F255
:101AF000030010BD4FF0FF3010BD48F2010010BDD3
:101B000048F2020010BD00BF3A535444494E000051
:101B10003A5354444F5554003A535444455252009A
:101B20004FF0FF307047000010B548F203018842C3
:101B30000AD048F20201884208D1144622B100BFFF
:101B400000F0BCF9013CFBD1002010BD4FF0FF308C
:101B500010BD000000BE704710B586B04FF40010F5
:101B60000121FFF7EFFC08200121FFF7F7FCC0205F
:101B700045F20044C1F60340C4F20004059004F5A8
:101B8000384005A9FFF768F90020CBF6FF700290F6
:101B90004FF0806003904FF48040ADF8100048F2A1
:101BA000A060C0F20100019001A92046FFF7DAFA17
:101BB00020460121FFF7B8FA06B010BD3030C0B2A0
:101BC00070470000B0B543F60005C4F201050446B5
:101BD000C1B22846FFF73AFF28468021FFF79CFE56
:101BE0000028F9D02046B0BDF0B581B01C4616469D
:101BF0000F46054600F052F928463946012200F00A
:101C00002DF95EB9284600F05BF901B0F0BD00BFC8
:101C100000F00AF8013E04F8010BF3D02846012E2B
:101C2000F6D100F013F8F5E7B0B501210446FFF74F
:101C300065FA4025C0F2030520462946FFF768FAF9
:101C40000028F9D02046FFF7F3FAB0BDB0B5002167
:101C50000446FFF753FA4025C0F203052046294603
:101C6000FFF756FA0028F9D02046FFF7E1FAB0BD99
:101C7000B0B50446FFF7E8FA8025C0F2070500BFBB
:101C800020462946FFF744FA0028F9D0B0BD0000ED
:101C900070B515460E46044600F000F92046314660
:101CA000002200F0DBF820462946FFF7E1FF8425FB
:101CB000C0F2070520462946FFF72AFA0028F9D086
:101CC000204600F0FDF870BDFFF7B8FD4FF4165048
:101CD00000F0FAF9FFF740FFFFF71AF9FFF748F9AC
:101CE00040F29C11C2F200010870E0B1FFF7F4FA73
:101CF00042F2EA60C0F6000000F086F8FFF7A6FAAC
:101D000000200021FFF76AFB09A0FFF759FBFFF74E
:101D10009DFAFFF7FDFBFFF7E3FB00BFFFF77AFC3F
:101D200000F0D4F8FAE706A000F06EF8FEE700BF76
:101D3000493243204C434420466F756E64210000B5
:101D40004E6F204C43442064657465637465642E53
:101D500020436865636B20636F6E6E656374696FA3
:101D60006E732E0D0A00000040F29010C2F20000C7
:101D70000068704770B586B0F0B10446B0F1FF3F1F
:101D800020DD2CB346F2676C0022C6F2666C01A916
:101D900084FB0C35AB1003EBD57303EB8305A4EB8D
:101DA0004500551C885404F1090013282A461C4696
:101DB000EED2012D0FDA1AE00020FFF7FFFE00F04F
:101DC0003BF81FE02D20644200F036F8002CD9D1FA
:101DD0000025012D0BDB01A8441E00BF605D6E1EB7
:101DE000FFF7ECFE00F028F8012D3546F6DC43F64F
:101DF0000004C4F2010400BF20464021FFF78CFD1F
:101E00000028F9D006B070BD10B5017839B1441E74
:101E1000C8B200F011F8A17801340029F8D143F6D6
:101E20000004C4F2010400BF20464021FFF774FD06
:101E30000028F9D010BD000010B543F60004C4F22C
:101E4000010401462046FFF701FE00BF2046802125
:101E5000FFF762FD0028F9D010BD0000B0B5C9B28F
:101E600015460446FFF7E8F96DB1012D18BFB0BD66
:101E70000225C0F2030500BF20462946FFF748F9B6
:101E80000028F9D008E08225C0F20705204629463F
:101E9000FFF73EF90028F9D0B0BD0000B0B5012130
:101EA0000446FFF74BF90125C0F2030520462946F9
:101EB000FFF72EF90028F9D0B0BD000000BE704732
:101EC00080B50121FFF744F980BD000070B540F2F4
:101ED0008B16C2F200063078002808BF70BD0020C3
:101EE000307052A0FFF790FF40F27414C2F2000469
:101EF0002046FFF789FF4FA0FFF786FF4EA120463F
:101F00001422FEF795F9F0B140F27415C2F2000503
:101F10004FA128461322FEF78BF940B340F274100C
:101F2000C2F200004FA11022FEF782F9C8B340F2BE
:101F30007410C2F2000050A11222FEF779F90028B5
:101F40003ED052A05BE004F11400FEF74DF940F2E0
:101F50000C05C2F20005288042F2B760C0F600000E
:101F6000FFF752FF2888FFF705FF55A047E005F16E
:101F70001300FEF739F94FF47A7140F21005484327
:101F8000C2F20005286042F2D160C0F60000FFF7FF
:101F90003BFF2868FFF7EEFE42F27960C0F60000D2
:101FA0002DE042F2A560C0F60000FFF72DFF40F2E1
:101FB0009E10C2F200000088FFF7DCFE3EA01EE08B
:101FC00042F20260C0F60000FFF71EFF42F25560C9
:101FD000C0F60000FFF718FF42F21760C0F60000DD
:101FE000FFF712FF42F2D950C0F60000FFF70CFFD6
:101FF00042F27F60C0F60000FFF706FF29A0FFF75E
:1020000003FF601E17210022013900F8012FFBD1C8
:1020100040F2A010C2F200000021018040F28C10BA
:10202000C2F200000170317070BD00BF4E68616E79
:102030003A2000000D0A00005345545F4C494748C0
:10204000545F5448524553484F4C443A00000000F6
:102050005345545F434845434B5F494E54455256A0
:10206000414C3A004C494748545F494E54454E5301
:102070004954593A00000000494E464F5F524551BD
:10208000554553543A47524F555000004C656E68C1
:10209000206B686F6E6720686F70206C65210D0A79
:1020A00000000000444154453A20323032352D3092
:1020B000352D31350D0A0000206C780D0A00000026
:1020C000206C75780D0A0000F0B587B0054643F620
:1020D00000044FF480400121C4F20104FFF73EFAEE
:1020E00004200121FFF73AFA40F20020C1F6030074
:1020F000A4F5405606AF069030463946FEF7ACFED2
:102100004FF48060ADF8180048208DF81B00304671
:102110003946FEF7A1FE029500254FF44020ADF8A8
:102120001450CDE9035002A92046FFF731FC2046A8
:102130004021FFF7DBFB204640F225510122FFF74B
:102140000FFCFFF787FCFFF795FC20460121FFF706
:10215000D9FB20462021FFF7DFFB50B12046FFF7D7
:1021600071FC8DF8070020462021FFF7D5FB0028E1
:10217000F4D140F28B10C2F20000057040F28C10D6
:10218000C2F20000057040F2A010C2F2000005800B
:1021900007B0F0BD10B500290AD00878002807D094
:1021A00005487844FEF770F8002801D0002010BDE3
:1021B0000248784410BD0000820500007A05000046
:1021C0002DE9C04130B4DFF8A0C23CEA111418BFB9
:1021D0003CEA131400F0EC801CEA111481EA0305B8
:1021E00044EAD57418BF1CEA131500F0C780A4EBAD
:1021F000050404F17F7404F500344FF0004545EA0E
:10220000C12145EAC32341EA505143EA52534FEA00
:10221000C0204FEAC222994208BF904200F09C8041
:102220004FEA13650FF24016765D4FEA134506FB41
:1022300005F7C7F1807706FB07F74FEAD737A7FB0B
:1022400003687642A7FB06CEC8F5803838BFA8F1F0
:10225000010807FB08E6A6FB028C4FF0000EE6FB28
:1022600003CEDCF1000CCEF1004E38BFAEF1010E12
:10227000A6FB0C584FF00007E6FB0E87A1FB08C633
:10228000A0FB07CE16EB0E064FF0000545F100054A
:10229000E1FB076515F1E04E7EBFA4F580345FEAEF
:1022A00046066D4116F1800745F100054FEA1727F4
:1022B00047EA05674FEA15254FEA0666A6F1DE46AE
:1022C000B6F1805F1FD9384605EBC47124F0010CCC
:1022D00001EB0C11BCF1FE6F02D8F0BCBDE800812F
:1022E00024425CBF01F5801E9EEAC47F02D4F0BC8C
:1022F000BDE80081244238D4A1F1C041F0BCBDE862
:10230000004100F049B94FEAD02040EA41504FEA7D
:10231000D1214FEAD22242EA43524FEAD323A7FB0C
:10232000028607FB036605FB02661EEA0E0F58BF16
:10233000A6EB0056B6EB00564FEA520E4EEAC37EAD
:1023400018EB0E0E56EB530EBDD518EB02085E418E
:102350007F1C55F10005B6E74FF480154FF00007DC
:102360004FF000064FF00008ADE701F1C04101F069
:1023700000414FF00000F0BCBDE800810CEA1315ED
:1023800011EA0C1F00D00CE013EA0C1F00F02580AE
:102390004FF0000081EA030101F00041F0BCBDE80C
:1023A0000081F0BCBDE8004181EA030100F0F4B80F
:1023B000F0BCBDE8004170B500F0A0F8097EFC3E1D
:1023C00000F007B84FF0000081EA030101F000417E
:1023D000704781EA030100F0DFB8F0BCBDE80041BE
:1023E00022494FF000007047FFFDFBF9F7F5F4F2CA
:1023F000F0EEEDEBE9E8E6E4E3E1E0DEDDDBDAD8A0
:10240000D7D5D4D3D1D0CFCDCCCBCAC8C7C6C5C4FD
:10241000C2C1C0BFBEBDBCBBBAB9B8B7B6B5B4B314
:10242000B2B1B0AFAEADACABAAA9A8A8A7A6A5A4FF
:10243000A3A3A2A1A09F9F9E9D9C9C9B9A999998C3
:102440009797969595949393929191908F8F8E8E66
:102450008D8C8C8B8B8A89898888878786858584F3
:1024600084838382828181800000FF070000F87FDF
:102470004FEA41034FEA5353A3F58063D3F11E03A0
:10248000C8BFD3F1210C0CDD4FF0004242EAC1225B
:1024900042EA505232FA03FC8CEAE17CACEBE17088
:1024A0007047102BC4BF0020704703F5787CBCF147
:1024B000FF3F04D06FF0004282EA2100704770B500
:1024C00000F01CF84992248000207047F2E710F0D9
:1024D000004248BF4042B0FA80F310FA03F10AD03C
:1024E000C3F11D0303F5806302EB03524FEA415031
:1024F00002EBD12170474FF0000070470EF1020E41
:102500002EF0030E5EF8046B364205D4012A43EB2D
:10251000030515F5001F12D8012841EB010C1CF52D
:10252000001F0CD80ED14FEAD17C0CEB4C0C0CF1F7
:10253000020C15F5001F08BF4CEBD37C04E04FF0F4
:10254000080C01E04FEAD37C0CEB4C0526FA05F6AB
:1025500006F00706B6F1040C06D20EEB860CBDE8B9
:1025600070404CF0010C6047DFE80CF0090B0202F0
:102570004FF00041A1F500214FF0000070BD194659
:102580001046012851EB010418BFD4F5001484BF94
:10259000002001F0004170BD0808A0F500114FEACD
:1025A0003101704702040608000000000102030424
:1025B00001020304060708093F065B4F666D7D07AD
:1025C0007F6F3A535444455252003A535444494E53
:1025D000003A5354444F55540048415244574152D5
:1025E000455F555345443A2053544D33322C2042D5
:1025F00048313735302C204C43443136C397320DA7
:102600000A0047524F55505F4E414D453A204E68A3
:102610006F6D20370D0A0050524F4A4543545F4EAC
:10262000414D453A204C6967687420496E74656E67
:1026300073697479204D6F6E69746F72696E67206B
:10264000616E64205761726E696E6720537973748E
:10265000656D0D0A004D454D424552533A20547563
:102660002C20536F6E2C204E616D2C204E68616EB5
:102670002C205475616E0D0A00206D730D0A0053F5
:102680004F4654574152455F555345443A204B6598
:10269000696C2C20436D69736973204C69627261A7
:1026A00072790D0A004C494748545F494E54454ED3
:1026B000534954593A200044612074686965742074
:1026C0006C6170207468726573686F6C64203D2063
:1026D000004461207468696574206C617020696EC3
:1026E00074657276616C203D2000466C61736820D1
:1026F000446174613A0D0A004261742064656E2081
:102700000000000038280008000000201800000029
:102710002801000850280008180000209007000039
:10272000440100081001000043000000F8FFFFFF13
:1027300000404040404040404040414141414140D4
:102740004040404040404040404040404040404089
:102750004005020202020202020202020202020218
:10276000022020202020202020202002020202021D
:102770000202909090909090101010101010101075
:102780001010101010101010101010100202020281
:1027900002028888888888880808080808080808C5
:1027A00008080808080808080808080802020202C1
:1027B00040000000000000000000000000000000D9
:1027C0000000000000000000000000000000000009
:1027D00000000000000000000000000000000000F9
:1027E00000000000000000000000000000000000E9
:1027F00000000000000000000000000000000000D9
:1028000000000000000000000000000000000000C8
:1028100000000000000000000000000000000000B8
:1028200000000000000000000000000000000000A8
:102830000000000000000000000000000000000098
:102840000000000064000000E80300000000000039
:04000005080000ED02
:00000001FF
