:020000040800F2
:10000000880600208901000891010008930100087A
:100010009501000897010008990100080000000000
:100020000000000000000000000000009B0100082C
:100030009D010008000000009F010008A1010008C8
:10004000A3010008A3010008A3010008A301000800
:10005000A3010008A3010008A3010008A3010008F0
:10006000A3010008A3010008A3010008A3010008E0
:10007000A3010008A3010008A3010008A3010008D0
:10008000A3010008A3010008A3010008A3010008C0
:10009000A3010008A3010008A3010008A3010008B0
:1000A000A3010008A3010008A3010008A3010008A0
:1000B000A3010008A3010008A3010008A301000890
:1000C000A3010008A3010008A3010008A301000880
:1000D000A3010008A3010008A3010008A301000870
:1000E000A3010008A3010008A301000800F002F822
:1000F00000F03AF80AA090E8000C82448344AAF188
:100100000107DA4501D100F02FF8AFF2090EBAE885
:100110000F0013F0010F18BFFB1A43F0010318473B
:100120001003000030030000103A24BF78C878C1E3
:10013000FAD8520724BF30C830C144BF04680C60ED
:10014000704700000023002400250026103A28BF35
:1001500078C1FBD8520728BF30C148BF0B60704739
:100160001FB51FBD10B510BD00F031F81146FFF7E7
:10017000F7FF00F03FF900F04FF803B4FFF7F2FF8C
:1001800003BC00F057F800000948804709480047C1
:10019000FEE7FEE7FEE7FEE7FEE7FEE7FEE7FEE737
:1001A000FEE7FEE704480549054A064B7047000094
:1001B00071030008ED000008880000208806002078
:1001C00088020020880200207047704770477546FB
:1001D00000F02CF8AE4605006946534620F00700B3
:1001E000854618B020B5FFF7DDFFBDE820404FF091
:1001F00000064FF000074FF000084FF0000B21F011
:100200000701AC46ACE8C009ACE8C009ACE8C009DD
:10021000ACE8C0098D46704710B50446AFF30080C6
:100220002046BDE81040FFF7A8BF00000048704717
:100230002800002001491820ABBEFEE7260002007E
:10024000704710B50121880700F0C2F800214FF077
:10025000804000F0CCF800BF4FF0804000F0C4F8C0
:1002600048F6A0418842F7DB00214FF0804000F0C3
:10027000AFF810BD10B5044601E0FFF7E2FF201E05
:10028000A4F10104F9D110BD10B500F001F810BDC2
:100290000CB50020019000903348006840F4803095
:1002A0003149086000BF3048006800F40030009019
:1002B0000198401C0190009818B90198B0F5A06F02
:1002C000F1D12948006800F4003010B101200090FD
:1002D00001E0002000900098012843D123480068E5
:1002E00040F01000214908600846006820F007002F
:1002F00008600846006840F0020008601A4840683C
:10030000194948600846406848600846406840F41B
:10031000806048600846406820F47C1048600846C9
:10032000406840F4E81048600846006840F080707B
:10033000086000BF0C48006800F000700028F9D089
:100340000948406820F003000749486008464068B3
:1003500040F00200486000BF0348406800F00C0015
:100360000828F9D10CBD0000001002400020024016
:1003700010B51348006840F00100114908600846B4
:100380004068104908400E494860084600680E4918
:1003900008400B4908600846006820F48020086087
:1003A0000846406820F4FE0048604FF41F00886053
:1003B000FFF76AFF4FF000600449086010BD0000BD
:1003C000001002400000FFF8FFFFF6FE08ED00E01D
:1003D00021B1028842F00102028004E002884FF657
:1003E000FE731A40028070470146888C70478184F2
:1003F0007047000012E0002400BF0CE0084850F8ED
:100400002400084908600848005D08490860012088
:10041000FFF730FF641C082CF0DB00BFEBE70000A7
:10042000080000200C0C0140000000200C080140D6
:1004300050040008000000202800000028010008E7
:10044000780400082800002060060000440100082D
:100450000102040810204080FFFF0000FF80000020
:10046000FF770000FF770000FF770000FF770000B4
:08047000FF800000FFFF000007
:04000005080000ED02
:00000001FF
