:020000040800F2
:10000000700600206D0100087501000877010008E6
:10001000790100087B0100087D0100080000000054
:100020000000000000000000000000007F01000848
:10003000810100080000000083010008850100081C
:100040008701000887010008870100088701000870
:100050008701000887010008870100088701000860
:100060008701000887010008870100088701000850
:100070008701000887010008870100088701000840
:100080008701000887010008870100088701000830
:100090008701000887010008870100088701000820
:1000A0008701000887010008870100088701000810
:1000B0008701000887010008870100088701000800
:1000C00087010008870100088701000887010008F0
:1000D00087010008870100088701000887010008E0
:1000E00087010008870100088701000800F002F876
:1000F00000F02CF80AA090E8000C82448344AAF196
:100100000107DA4501D100F021F8AFF2090EBAE893
:100110000F0013F0010F18BFFB1A43F0010318473B
:10012000EC0F0000FC0F0000002300240025002637
:10013000103A28BF78C1FBD8520728BF30C148BF4A
:100140000B6070471FB51FBD10B510BD00F02CF936
:100150001146FFF7F7FF00F07FFD00F04AF903B406
:10016000FFF7F2FF03BC00F04DF90000094880479B
:1001700009480047FEE7FEE7FEE7FEE7FEE7FEE789
:10018000FEE7FEE7FEE7FEE704480549054A064BA1
:100190007047000059080008ED00000870000020BA
:1001A000700600207002002070020020431A28BF51
:1001B0009A4240F2408010441144032A40F22680C3
:1001C00010F0030F1EBF11F8013D521E00F8013D53
:1001D00010F0030F7FF4F6AF11F0030300F08380FB
:1001E000083AC0F00B8051F8043D083A51F804CDAC
:1001F00040F8043D40F804CDFFF7F3BF121D5CBF8B
:1002000051F8043D40F8043DAFF30080D20724BF0D
:1002100011F8013D11F801CD48BF11F8012C24BFA0
:1002200000F8013D00F801CD48BF00F8012C7047EF
:10023000704770477047032A40F2308010F0030C7B
:1002400000F0158011F8013BBCF1020F624498BF29
:1002500011F801CB00F8013B38BF11F8013BA2F1C6
:10026000040298BF00F801CB38BF00F8013B11F041
:10027000030300F06280083AC0F0088051F8043BA4
:10028000083A51F804CBA0E80810F5E7121D5CBF4E
:1002900051F8043B40F8043BAFF30080D20724BF81
:1002A00011F8013B11F801CB48BF11F8012B24BF15
:1002B00000F8013B00F801CB48BF00F8012B704764
:1002C000431A28BF9A4240F238801044114410F07B
:1002D000030F1EBF11F8013D521E00F8013D10F042
:1002E000030F7FF4F6AF103AC0F00A8010B531E981
:1002F000185020E91850103ABFF4F9AFBDE810408B
:10030000530724BF31E9081020E9081044BF51F811
:10031000043D40F8043D12F0030F08BF7047D207B8
:1003200028BF31F8023D48BF11F8012C28BF20F842
:10033000023D48BF00F8012C704710B5203AC0F0CC
:100340000B80B1E81850A0E81850B1E81850A0E8A8
:100350001850203ABFF4F5AF5FEA027C24BFB1E841
:100360001850A0E8185044BF18C918C0BDE8104084
:100370005FEA827C24BF51F8043B40F8043B08BF8D
:100380007047D20728BF31F8023B48BF11F8012B54
:1003900028BF20F8023B48BF00F8012B704700003F
:1003A00000487047000000207546FFF7F9FFAE4691
:1003B00005006946534620F00700854618B020B571
:1003C000FFF7E2FEBDE820404FF000064FF00007C7
:1003D0004FF000084FF0000BAC46ACE8C009ACE8A9
:1003E000C009ACE8C009ACE8C00921F007018D469E
:1003F000704710B50446AFF300802046BDE81040BA
:10040000FFF7ADBE01491820ABBEFEE72600020093
:10041000704700008268002922F0010218BF0132F3
:1004200082607047B0B586B042F200444FF400706D
:100430000121C4F20104012500F0B2F94FF48071EA
:100440000020ADF808104FF460210190CDE90310B1
:1004500001A920468DF8145000F030F82046002104
:100460000122052300F054F820460121FFF7D2FFB6
:10047000012000F093F8204600F07AF8204600F0C2
:1004800019F80028FAD1204600F082F8204600F042
:1004900009F80028FAD12046012100F06FF806B0D3
:1004A000B0BD00008068C0F380007047C06C80B2AF
:1004B000704700008068C0F3C000704780B5426894
:1004C0004FF6FF63CFF6F07302EA030C0B680A796C
:1004D00043EA0C0343EA0222426082684FF2FD7352
:1004E000CFF6F17302EA030CD1E902E24B7942EA5A
:1004F0000C0242EA0E0242EA43028260C26A097CAE
:1005000022F470020139C9B242EA0151C16280BDD0
:10051000B0B501EB410C4FF0100E092988BFACF1CA
:100520001E0C88BF4FF00C0E50F80E40072505FA40
:100530000CF5AC4303FA0CF3234340F80E30062AC3
:1005400002EB820303D834306FF0040207E00C2A78
:1005500087BF2C306FF0400230306FF022021A4417
:1005600003681F259540AB43914019430160B0BD1E
:10057000816841F0080181607047000082680029AD
:1005800022F4A00218BF02F5A002826070470000AA
:10059000816841F0040181607047000042F2084127
:1005A000C4F201010A68002822F4000218BF02F513
:1005B00000020A6070470000F0B581B042F20044CA
:1005C00040F26C0740F264050A26C4F20104C2F24C
:1005D0000007C2F2000500BF2046FFF767FF00F0EA
:1005E000B7FC01462868396000F072FB013E2860C4
:1005F000F2D128680021C4F2201100F0CBFB40F2B8
:100600006001C2F2000108600021296000F084FC52
:1006100001B0F0BDB0B5002808BFB0BD044648F633
:10062000A04500BF4FF08040012100F09DF94FF040
:100630008040002100F0A4F94FF0804000F09EF9C6
:10064000A842F9D34FF080400021013C00F08CF922
:10065000002CE7D1B0BD000010B582B0042001210C
:10066000012400F09DF800208DF8070040F60000FE
:10067000C4F2010001A9ADF8044000F025F802B071
:1006800010BD000070B582B004200121042600F0E6
:1006900087F840F2002040F60004C1F60300C4F2DF
:1006A000010401AD01902046294600F00DF84FF4F9
:1006B0008060ADF80400204629468DF8076000F000
:1006C00003F802B070BD00002DE9F047CA7802F0CF
:1006D0000F0CD30644BF8B784CEA030C09880B0639
:1006E00025D082465AF8144B00F1100E00254FF029
:1006F00001094FF00F08002706E000BF1E60013718
:10070000082F05F1040511D009FA07F60E42F6D0BC
:1007100008FA05F324EA03030CFA05F41C43282A1B
:100720005346EBD0482AEAD17346E7E70460B1F5B7
:10073000807F38BFBDE8F087436800F1100E00F1FC
:10074000140900254FF4807A4FF00F08002705E0C8
:1007500034600137082F05F1040512D00AFA07F4B6
:1007600004EA0106A642F4D108FA05F6B3430CFAEE
:1007700005F63343282A4E46EAD0482AE9D1764680
:10078000E6E74360BDE8F087002941F21C01C4F2AE
:1007900002010A680CBF22EA00001043086070479B
:1007A000002941F21801C4F202010A680CBF22EAD2
:1007B000000010430860704710B541F20404C4F211
:1007C0000204226802F00C02082A41F20022C0F260
:1007D0007A021CD12368D4F800C0C3F3834E5FEAC9
:1007E000CC330EF1020C06D440F60012C0F23D02EA
:1007F0000CFB02F20BE023689B0302D40CFB02F219
:1008000005E040F60012C0F23D020CFB02F202606D
:10081000226841F2FA03C2F30312C0F600039A5CA5
:100820000168D14041602268C2F302229A5C21FA39
:1008300002F282602268C2F3C2229A5C41F2F6039D
:10084000D140C1602268C0F60003C2F381329A5CD5
:10085000B1FBF2F1016110BD82B041F20400C4F2BB
:10086000020050F8041C002241F0010140F8041C71
:100870000168CFF6FF021140016050F8041C4FF6EA
:10088000FF72CFF6F662114040F8041C50F8041CC9
:1008900021F4802140F8041C016821F4FE0101606C
:1008A0004FF41F01416000210191009150F8041C98
:1008B00041F4803140F8041C50F8041C01F400316C
:1008C0000091019901310191009919B90199B1F58E
:1008D000A06FF1D150F8041C890354BF00210121FD
:1008E00000910099012936D142F20001C4F20201BF
:1008F0000A6842F010020A600A6822F007020A60E1
:100900000A6842F002020A60016801600168016041
:10091000016841F480610160016821F47C1101608B
:10092000016841F4E811016050F8041C41F0807145
:1009300040F8041C50F8041C8901FBD5016821F023
:1009400003010160016841F002010160016801F0EA
:100950000C010829FAD14EF60850CEF200004FF0F3
:100960000061016002B070470288002918BF0121B0
:1009700022F001021144018070470000808C704712
:100980008184704740F6FF33B0F800C0C4F2000322
:1009900098420FDCB0F1804F1ED040F20043C4F209
:1009A0000003984218D040F60003C4F200039842B6
:1009B00012D016E040F60043C4F2000398420BD078
:1009C00043F20043C4F20103984205D042F60043CB
:1009D000C4F20103984204D14B882CF0700243EA20
:1009E000020C41F2004240F48063C4F200029342E0
:1009F00004D0CA882CF4407342EA030CA0F800C06B
:100A00008A888285A0F18042A2F596320B884FEA4F
:100A1000B222072A038507D8012303FA02F212F053
:100A2000E50F1CBF097A0186012181827047000011
:100A3000B0B59AB0012867DB46F2676C4FF0FF3122
:100A4000C6F2666C0DF1040E054600BF85FB0C4234
:100A5000941004EBD27202EB8204A5EB4404303410
:100A60000EEB01030131092D15465C70EEDC4C1CC8
:100A700018B901A930220A550134022C10DB611E7D
:100A800000220DF1040C00BF1CF801501CF80230CC
:100A90000CF802500CF80130013201398A42F3DBC4
:100AA000B0F1FF3F0ADC002C04D401A9481C621CF1
:100AB000FFF77CFB2D2001348DF8040001A80021F4
:100AC00001559DF8040043F60004C4F2010478B116
:100AD00001AD00BFC1B2204600F086F8204680215B
:100AE00000F020F80028F9D015F8010F0028F1D106
:100AF00020460A2100F078F82046802100F012F804
:100B00000028F9D01AB0B0BD00240028B5D1B0E754
:100B10008289002918BF012122F4005242EA4131A2
:100B2000818170470088084018BF0120704700008D
:100B300070B586B00446008A0D46C98820F440503E
:100B400008432082A0894EF6F3110840A9882A891B
:100B50006B89084310431843A081A08AA98920F417
:100B60004070084301AEA0823046FFF725FE43F6F1
:100B7000000106F10800C4F201018C4208BF06F131
:100B80000C0000681922B4F90C1050432A680123A4
:100B9000B1F1FF3FC8BF022302FA03F1B0FBF1F04D
:100BA00048F21F51C5F2EB11A0FB01235A096FF067
:100BB000630302FB0300B4F90C300326B3F1FF3FDB
:100BC000C8BF042600FA06F000F13200A0FB0101C4
:100BD0004FF00700C8BF0F2000EA511040EA021092
:100BE000208106B070BD00006FF35F2181807047E7
:100BF00010B584B04FF480400121FFF7D1FD4FF4D0
:100C0000E13043F60004009000204FF44021C4F28C
:100C10000104ADF80C00CDE9010169462046FFF75B
:100C200087FF20460121FFF773FF04B010BD0000CD
:100C300080B582B010200121FFF7B2FD42F2000022
:100C4000C1F20300019041F20000C4F2010001A9C9
:100C5000FFF73AFD02B080BD00F01EF8FFF7C8FFB5
:100C6000FFF7E0FBFFF7F8FCFFF70CFDFFF7E0FFF5
:100C700048F2A06440F26805C0F20104C2F2000527
:100C80002046FFF7D5FEFFF797FC28604FF47A70F7
:100C9000FFF7C0FCF4E7000010B584B0012001218B
:100CA0000124FFF771FD4FF6FF70ADF8080000203A
:100CB0008DF80C0001A94FF080400194FFF762FE0F
:100CC0004FF080400121FFF74FFE04B010BD00003F
:100CD00090EA010F48BF81F0004100F19E81421A65
:100CE0003CBF801A89184FEAD052A2EBD1534FF083
:100CF0007F4C1CEA410F18BF9CEA026F00F03B805A
:100D00004FF0004C4CEA00204CEA012121FA03FC90
:100D100010EB0C0C1ED202F1FF325FEA1C2040EBFC
:100D2000C25038BF70471CF07F0F4FEA400C18BF0D
:100D3000BCF17F4F38BF7047C3F12003994008BF13
:100D400020F00100BCF17F4F38BF7047A0F1C040D8
:100D500000F057B94FEA3C00000A40EBC25028BFF0
:100D60001CF0FF0F4FEA400CE6D018BFBCF17F4FDC
:100D700038BF7047EAE79CEA026F05D010EA5C0FC3
:100D800008BF00F00040704710B500F0F4F800BF55
:100D900064FBBE3E4FF47F0C1CEAD0121EBF1CEA5F
:100DA000D11392EA0C0F93EA0C0F00F0858090EAC1
:100DB000010F48BF42F4807240F4000C41F400007F
:100DC0002CF07F4120F07F4000B5A2EB030281426E
:100DD0000FF2081CACEB504E9EF800E0C0F1000092
:100DE0004FEA4E0E00FB0EFC38BF49004FEA2C1CA8
:100DF0000CFB0EF34FEACE1E0EEB635E4FEA112C96
:100E00000EFB0CFC4FEAC1214FEA1C5300FB0311FF
:100E100002F5FA024FEA112C0EFB0CFC4FEA0131ED
:100E20004FEADC4C00FB0C1142EB2242C14228BFCE
:100E300009184CEB03335DF804EB10EB410143EB75
:100E4000C250B2F57C0F38BF704729D512F0F00FB1
:100E50001CBF00F1C04000F0004070470081828359
:100E60008485868788898B8C8D8E8F9192939596B9
:100E700097999A9C9D9FA0A2A3A5A7A8AAACAEB043
:100E8000B2B3B5B7B9BCBEC0C2C5C7C9CCCED1D448
:100E9000D7D9DCDFE2E6E9ECF0F3F7FAFE00000078
:100EA0004FEA400C0CF1807CBCF17E4F28BF7047AC
:100EB000B0F1C04000F0A5B80CEAD11390EA010FE0
:100EC00048BF42F48072624538BF634507D213F4CD
:100ED0007F0F16D080EA010000F00040704710B587
:100EE00000F049F8097EFC3E00F005B880EA0100F8
:100EF00000F00040704780EA010000F0004000F080
:100F000080B812F47F0F04BF0248704780EA0100E6
:100F100000F077B80000C07F41000B0ED3F19E02B5
:100F200008D950F400034FEA032323FA02F048BF24
:100F30004042704710B500F01EF800BF499224806F
:100F4000002070476FF0004282EA200070470000E6
:100F5000B0FA80F310FA03F2C3F19D030AD0D90569
:100F600001EB1220530638BF704700F1010008BFA3
:100F700020F0010070470EF1020E2EF0030E5EF815
:100F8000044B244204D44FEA4102B2F17F4F11D8FE
:100F90004FEA4003B3F17F4F0CD80ED14FEAD07C1B
:100FA0000CEB4C0C0CF1020CB2F17F4F08BF4CEB78
:100FB000D17C04E04FF0080C01E04FEAD17C0CEB4F
:100FC0004C0324FA03F404F00704B4F1040C06D231
:100FD0000EEB840CBDE810404CF0010C6047DFE8DC
:100FE0000CF0070802024FF00040A0F5800010BD91
:100FF0000846420018BFD2F1807288BF00F000405E
:1010000010BDFF2141EAD050C005704790EA010FA2
:1010100048BF81F000413FF562AE421A04D882F029
:101020000042A0EB020011444FEAD052A2EBD15390
:101030004FF07F4C1CEA410F18BF9CEA026F4AD068
:101040004FF0004C4CEA00204CEA012121FA03FC4D
:10105000B0EB0C0C0FD412F0FE0F36D05FEA4C0050
:101060001DD5001240EBC25038BF70471CF03F0F37
:1010700018BF70470BE05FEA1C20A2F1010240EBB1
:10108000C25038BF70471CF07F0F18BF7047C3F1C4
:101090002003994014BF401E20F0010070474FEA22
:1010A0001223800808BF7047B0FA80FCA2EB0C0244
:1010B000CCF1280C60FA0CF093EA122F04BF00EB7D
:1010C000C25070474FEAC3707047130A5FEADC10E2
:1010D00008BF7047F6E79CEA026F04D010EA5C0F85
:1010E00008BF0020704710B5FFF745FF40DFF63E10
:1010F00081F0004070470204060800000000010271
:101100000304010203040607080900001C1100087B
:0C1110000000002070060000280100080C
:04000005080000ED02
:00000001FF
