:020000040800F2
:100000009006002089010008910100089301000872
:100010009501000897010008990100080000000000
:100020000000000000000000000000009B0100082C
:100030009D010008000000009F010008A1010008C8
:10004000A3010008A3010008A3010008A301000800
:10005000A3010008A3010008A3010008A3010008F0
:10006000A3010008A3010008A3010008A3010008E0
:10007000A3010008A3010008A3010008A3010008D0
:10008000A3010008A3010008A3010008A3010008C0
:10009000A3010008A3010008A3010008A3010008B0
:1000A000A3010008A3010008A3010008A3010008A0
:1000B000A3010008A3010008A3010008A301000890
:1000C000A3010008A3010008A3010008A301000880
:1000D000A3010008A3010008A3010008A301000870
:1000E000A3010008A3010008A301000800F002F822
:1000F00000F03AF80AA090E8000C82448344AAF188
:100100000107DA4501D100F02FF8AFF2090EBAE885
:100110000F0013F0010F18BFFB1A43F0010318473B
:100120008C0F0000AC0F0000103A24BF78C878C1D3
:10013000FAD8520724BF30C830C144BF04680C60ED
:10014000704700000023002400250026103A28BF35
:1001500078C1FBD8520728BF30C148BF0B60704739
:100160001FB51FBD10B510BD00F036F81146FFF7E2
:10017000F7FF00F03BFD00F054F803B4FFF7F2FF87
:1001800003BC00F057F800000948804709480047C1
:10019000FEE7FEE7FEE7FEE7FEE7FEE7FEE7FEE737
:1001A000FEE7FEE704480549054A064B7047000094
:1001B00085080008ED00000890000020900600204F
:1001C00090020020900200207047704770470000A6
:1001D00000487047300000207546FFF7F9FFAE4633
:1001E00005006946534620F00700854618B020B543
:1001F000FFF7D8FFBDE820404FF000064FF00007A2
:100200004FF000084FF0000B21F00701AC46ACE8BE
:10021000C009ACE8C009ACE8C009ACE8C0098D462B
:10022000704710B50446AFF300802046BDE810408B
:10023000FFF7A3BF01491820ABBEFEE7260002006E
:10024000704721B1826842F00102826003E0826857
:1002500022F001028260704700B585B0012148029A
:1002600000F022FA002000908DF8040001208DF8A3
:1002700005004FF4602002900020039001208DF8CB
:1002800010006946134800F03FF8052301220021C1
:10029000104800F061F801210E48FFF7D2FF01205D
:1002A00000F0CCF80B4800F0B3F800BF094800F0AC
:1002B00021F80028FAD1074800F0BAF800BF054835
:1002C00000F00AF80028FAD10121024800F0A5F850
:1002D00005B000BD00240140014600208A6802F0FC
:1002E00004020AB1012000E0002070470146C86CFA
:1002F00080B27047014600208A6802F008020AB105
:10030000012000E00020704730B5024600200023A5
:1003100050680F4C20400D790C6844EA05242043B6
:10032000506090680B4C2040D1E902542C434D7929
:1003300044EA450420439060D06A20F470000C7CAD
:10034000641EE4B2234340EA0350D06230BD000093
:10035000FFFEF0FFFDF7F1FFF0B504460D4600206B
:100360000021092D11DDE068A5F10A0606EB46071C
:10037000072606FA07F18843A5F10A0606EB4606AA
:1003800003FA06F10843E0600CE0206905EB45073D
:10039000072606FA07F1884305EB450603FA06F13E
:1003A00008432061072A0FDA606B561E06EB8607AA
:1003B0001F2606FA07F18843561E06EB860605FA45
:1003C00006F10843606322E00D2A0FDA206BD61F86
:1003D00006EB86071F2606FA07F18843D61F06EBB1
:1003E000860605FA06F10843206310E0E06AA2F1F0
:1003F0000D0606EB86071F2606FA07F18843A2F1D1
:100400000D0606EB860605FA06F10843E062F0BD2C
:10041000816841F008018160704721B1826842F42F
:10042000A002826003E0826822F4A002826070472A
:10043000816841F0040181607047000030B10749D4
:10044000096841F40001054A116005E003490968A3
:1004500021F40001014A11607047000008240140A6
:1004600070B5002400BF10E01048FFF73FFF0546BD
:1004700000F048FD0E490860084601680D48006814
:1004800000F000FC0B490860641C0A2CECDB0A49F4
:100490000848006800F058FC084908600020054939
:1004A00008600648006800F011FD70BD002401409E
:1004B0000400002008000020000020410C00002063
:1004C00010B50121880700F00DFA00214FF080409F
:1004D00000F017FA00BF4FF0804000F00FFA48F626
:1004E000A0418842F7DB00214FF0804000F0FAF98C
:1004F00010BD10B5044601E0FFF7E2FF201EA4F195
:100500000104F9D110BD000008B50121042000F05C
:10051000CBF800208DF803000120ADF800006946FB
:10052000014800F025F808BD0008014008B5012188
:10053000042000F0B9F84FF40070ADF80000182066
:100540008DF8030003208DF802006946074800F08B
:100550000FF84FF48060ADF8000004208DF8030020
:100560006946024800F004F808BD00000008014098
:100570002DE9F0410246002500260020002300243A
:10058000002791F803C00CF00F0591F803C00CF0A0
:10059000100CBCF1000F03D091F802C04CEA050525
:1005A00091F800C0BCF1000F31D0146800202BE09E
:1005B0004FF0010C0CFA00F3B1F800C00CEA03068E
:1005C0009E4220D183004FF00F0C0CFA03F7BC437E
:1005D00005FA03FC4CEA040491F803C0BCF1280FAF
:1005E00006D14FF0010C0CFA00FCC2F814C00AE06E
:1005F00091F803C0BCF1480F05D14FF0010C0CFA83
:1006000000FCC2F810C0401C0828D1D31460B1F817
:1006100000C0BCF1FF0F34DD546800202EE000F173
:10062000080C4FF0010808FA0CF3B1F800C00CEA0E
:1006300003069E4221D183004FF00F0C0CFA03F702
:10064000BC4305FA03FC4CEA040491F803C0BCF176
:10065000280F05D100F1080C08FA0CF8C2F8148034
:1006600091F803C0BCF1480F07D100F1080C4FF01E
:10067000010808FA0CF8C2F81080401C0828CED3F4
:100680005460BDE8F081000029B1064AD2690243F6
:10069000044BDA6104E0034AD2698243014BDA6118
:1006A000704700000010024029B1064A92690243D7
:1006B000044B9A6104E0034A92698243014B9A61B8
:1006C000704700000010024030B5002100220024D5
:1006D00000232D4D6D6805F00C0121B1042905D0D2
:1006E000082923D105E0294D056022E0274D05604A
:1006F0001FE0254D6D6805F47012234D6D6805F4FB
:100700008034022505EB92421CB9214D554305600A
:100710000BE01D4D6D6805F400351DB11C4D5543B2
:10072000056002E0194D5543056002E0174D056074
:1007300000BF00BF144D6D6805F0F0010909154DAB
:100740006B5C0568DD4045600F4D6D6805F4E06148
:10075000090A104D6B5C4568DD4085600A4D6D6887
:1007600005F46051C90A0B4D6B5C4568DD40C560FE
:10077000054D6D6805F44041890B074D6B5CC568FC
:10078000B5FBF3F5056130BD0010024000127A00A0
:1007900000093D001C0000202C00002010B500F0D6
:1007A00001F810BD0CB5002001900090334800689E
:1007B00040F480303149086000BF3048006800F4E0
:1007C000003000900198401C0190009818B90198E1
:1007D000B0F5A06FF1D12948006800F4003010B1E5
:1007E0000120009001E0002000900098012843D1F2
:1007F0002348006840F0100021490860084600685E
:1008000020F0070008600846006840F00200086019
:100810001A484068194948600846406848600846D8
:10082000406840F4806048600846406820F47C10CE
:1008300048600846406840F4E81048600846006890
:1008400040F08070086000BF0C48006800F0007045
:100850000028F9D00948406820F0030007494860A3
:100860000846406840F00200486000BF0348406806
:1008700000F00C000828F9D10CBD00000010024067
:100880000020024010B51348006840F001001149F3
:10089000086008464068104908400E49486008460C
:1008A00000680E4908400B4908600846006820F4BB
:1008B000802008600846406820F4FE0048604FF43D
:1008C0001F008860FFF76AFF4FF00060044908606E
:1008D00010BD0000001002400000FFF8FFFFF6FE10
:1008E00008ED00E021B1028842F00102028004E03C
:1008F00002884FF6FE731A40028070470146888CCA
:100900007047818470470000002202881D4B984286
:100910000ED01D4B98420BD0B0F1804F08D01B4B2E
:10092000984205D01A4B984202D01A4B984204D1F3
:100930004FF68F731A404B881A43174B984207D0D3
:10094000164B984204D04FF6FF431A40CB881A4307
:1009500002808B8883850B8803850A4B98420BD0D5
:10096000094B984208D00E4B984205D00D4B984247
:1009700002D00D4B984201D10B7A0386012383826A
:1009800070470000002C014000340140000400408A
:1009900000080040000C004000100040001400401F
:1009A0000040014000440140004801402DE9F0436F
:1009B00099B006460025A946B046002E02DA4FF04F
:1009C000010976420CE00A2098FBF0F100FB11804F
:1009D0003030C0B20DF805000A2098FBF0F86D1C0D
:1009E000B8F1000FEFDC26B9302228466D1C0DF857
:1009F00000206F1E002409E01DF804001DF80710F8
:100A00000DF804100DF807007F1E641CBC42F3DBD8
:100A1000B9F1000F0DD02C4605E01DF80410601C44
:100A20000DF80010641E002CF7DA2D208DF8000060
:100A30006D1C00200DF80500684600F017F903A0B2
:100A400000F014F919B0BDE8F08300000A000000BE
:100A500021B1828942F40052828104E082894DF6FC
:100A6000FF731A408281704702460020B1F5007F73
:100A700000D100BF13880B400BB1012000E0002023
:100A8000704700002DE9F04786B005460E46002469
:100A9000A24600BFA1460027B08900B100BF2F4683
:100AA0002C8A4CF6FF700440F08804432C82AC89F9
:100AB0004EF6F3100440B088318908437189084329
:100AC0000443AC81AC8A4FF6FF400440B089044334
:100AD000AC8201A8FFF7F8FD1F48874202D1DDF87C
:100AE00010A001E0DDF80CA0A88900F4004040B19E
:100AF0000AEBCA0000EB0A1031684900B0FBF1F8BC
:100B000007E00AEBCA0000EB0A1031688900B0FB6D
:100B1000F1F86420B8FBF0F004012009642101FB26
:100B20001089A88900F4004040B1322000EBC900D0
:100B3000B0FBF1F000F00700044308E0322000EBC6
:100B400009106421B0FBF1F000F00F0004432C8188
:100B500006B0BDE8F087000000380140C1F308028C
:100B6000828070471FB501218803FFF79DFD4FF478
:100B7000E13000900020ADF80C000C20ADF80A0028
:100B80000020ADF80800ADF80600ADF80400694695
:100B90000348FFF777FF01210148FFF759FF1FBD09
:100BA0000038014010B500F035F8FFF7DBFFFFF724
:100BB00053FBFFF7A9FCFFF7B9FC00F001F810BDEB
:100BC00008B501211020FFF76FFD10208DF80300FC
:100BD0004002ADF8000003208DF80200694602488B
:100BE000FFF7C6FC08BD000000100140FFF7DAFF68
:100BF0000AE00648FFF7DAFEFFF732FC0449086016
:100C00004FF47A70FFF775FCF3E70000A08601004F
:100C1000180000200EB501210846FFF735FD002021
:100C2000ADF802004FF6FF70ADF804000120ADF8FA
:100C3000000000208DF8080069464FF08040FFF763
:100C400063FE01218807FFF74DFE0EBD10B5044677
:100C500021460548FFF782FF00BF80210248FFF7C9
:100C600003FF0028F9D010BD0038014010B504463C
:100C700003E014F8010BFFF7E9FF20780028F8D112
:100C800010BD000090EA010F48BF81F0004100F163
:100C90009E81421A3CBF801A89184FEAD0524FF009
:100CA0007F4C1CEA410FA2EBD15318BF9CEA026FA4
:100CB00000F03B804FF0004C4CEA00204CEA012150
:100CC00021FA03FC10EB0C0C1ED202F1FF325FEA9A
:100CD0001C2040EBC25038BF70471CF07F0F4FEA1A
:100CE000400C18BFBCF17F4F38BF7047C3F12003E1
:100CF000994008BF20F00100BCF17F4F38BF70471A
:100D0000A0F1C04000F057B94FEA3C00000A40EBA8
:100D1000C25028BF1CF0FF0F4FEA400CE6D018BFAE
:100D2000BCF17F4F38BF7047EAE79CEA026F05D0FD
:100D300010EA5C0F08BF00F00040704710B500F0EB
:100D4000F4F800BF64FBBE3E4FF47F0C1CEAD012E7
:100D50001EBF1CEAD11392EA0C0F93EA0C0F00F0AD
:100D6000858090EA010F48BF42F4807240F4000C85
:100D700041F400002CF07F4120F07F4000B581421B
:100D8000A2EB03020FF2081CACEB504EC0F10000C6
:100D90009EF800E04FEA4E0E00FB0EFC38BF490003
:100DA0004FEA2C1C02F5FA020CFB0EF34FEACE1EA2
:100DB0004FEA112C4FEAC1210EEB635E42EB224257
:100DC0000EFB0CFC4FEA1C5300FB03114FEA112CE5
:100DD0004FEA01310EFB0CFC4FEADC4C00FB0C111E
:100DE000C14228BF09184CEB03335DF804EB10EB4C
:100DF000410143EBC250B2F57C0F38BF704729D593
:100E000012F0F00F1CBF00F1C04000F0004070472E
:100E1000008182838485868788898B8C8D8E8F91D3
:100E20009293959697999A9C9D9FA0A2A3A5A7A8F7
:100E3000AAACAEB0B2B3B5B7B9BCBEC0C2C5C7C923
:100E4000CCCED1D4D7D9DCDFE2E6E9ECF0F3F7FA87
:100E5000FE0000004FEA400C0CF1807CBCF17E4F9C
:100E600028BF7047B0F1C04000F0A5B890EA010F6C
:100E70000CEAD11348BF42F48072624538BF634523
:100E800007D213F47F0F16D080EA010000F0004073
:100E9000704710B500F049F8097EFC3E00F005B837
:100EA00080EA010000F00040704780EA010000F095
:100EB000004000F080B812F47F0F04BF0248704772
:100EC00080EA010000F077B80000C07F41000B0EFF
:100ED000D3F19E0208D950F400034FEA032323FA0A
:100EE00002F048BF4042704710B500F01EF800BF46
:100EF00049922480002070476FF0004282EA20006F
:100F000070470000B0FA80F310FA03F2C3F19D03BA
:100F10000AD0D90501EB1220530638BF704700F103
:100F2000010008BF20F0010070470EF1020E2EF004
:100F3000030E5EF8044B244204D44FEA4102B2F19E
:100F40007F4F11D84FEA4003B3F17F4F0CD80ED139
:100F50004FEAD07CB2F17F4F0CEB4C0C0CF1020C41
:100F600008BF4CEBD17C04E04FF0080C01E04FEAE5
:100F7000D17C0CEB4C0324FA03F404F00704B4F125
:100F8000040C06D20EEB840CBDE810404CF0010CB2
:100F90006047DFE80CF0070802024FF00040A0F5C0
:100FA000800010BD0846420018BFD2F1807288BF91
:100FB00000F0004010BDFF2141EAD050C00570474D
:100FC00090EA010F48BF81F000413FF562AE421A3E
:100FD00004D882F00042A0EB020011444FEAD05244
:100FE0004FF07F4C1CEA410FA2EBD15318BF9CEA93
:100FF000026F4AD04FF0004C4CEA00204CEA01212D
:1010000021FA03FCB0EB0C0C0FD412F0FE0F36D01B
:101010005FEA4C001DD5001240EBC25038BF70474C
:101020001CF03F0F18BF70470BE0A2F101025FEA0E
:101030001C2040EBC25038BF70471CF07F0F18BF18
:101040007047C3F12003994014BF401E20F00100F7
:10105000704780084FEA122308BF7047B0FA80FC3F
:10106000A2EB0C02CCF1280C60FA0CF093EA122FE0
:1010700004BF00EBC25070474FEAC3707047130AB9
:101080005FEADC1008BF7047F6E79CEA026F04D005
:1010900010EA5C0F08BF0020704710B5FFF745FF4E
:1010A00040DFF63E81F0004070470000CC100008A1
:1010B000000000203000000028010008FC1000089B
:1010C0003000002060060000440100080A00000013
:1010D0000000000000000000000000000000000010
:1010E00000000000000000000000000001020304F6
:0C10F000010203040607080902040608B8
:04000005080000ED02
:00000001FF
