:020000040800F2
:1000000098070020A9010008B1010008B301000809
:10001000B5010008B7010008B901000800000000A0
:10002000000000000000000000000000BB0100080C
:10003000BD01000800000000BF010008C101000868
:10004000C3010008C3010008C3010008C301000880
:10005000C3010008C3010008C3010008C301000870
:10006000C3010008C3010008C3010008C301000860
:10007000C3010008C3010008C3010008C301000850
:10008000C3010008C3010008C3010008C301000840
:10009000C3010008C3010008C3010008C301000830
:1000A000C3010008C3010008C3010008C301000820
:1000B00081150008C3010008C3010008C30100083E
:1000C000C3010008C3010008C3010008C301000800
:1000D000C3010008E9150008C3010008C3010008B6
:1000E000C3010008C3010008C301000800F002F8C2
:1000F00000F04BF80AA090E8000C82448344AAF177
:100100000107DA4501D100F040F8AFF2090EBAE874
:100110000F0013F0010F18BFFB1A43F0010318473B
:100120007421000094210000103A24BF78C878C1DF
:10013000FAD8520724BF30C830C144BF04680C60ED
:10014000704700000023002400250026103A28BF35
:1001500078C1FBD8520728BF30C148BF0B60704739
:100160001FB59DE8030000F07BFB00F02BFA0400B4
:100170000020002101F054FE401C606000F060F996
:100180001FBD10B500F0C5F910BD00F0F5F911461E
:10019000FFF7E6FF01F05AFC00F00EFB03B4FFF797
:1001A000F0FF03BC00F0CEFC094880470948004737
:1001B000FEE7FEE7FEE7FEE7FEE7FEE7FEE7FEE717
:1001C000FEE7FEE704480549054A064B7047000074
:1001D00029150008ED00000898010020980700206C
:1001E000980300209803002070B5064600F090F8B0
:1001F0000468054630460A22002100F08DF82C6084
:1002000070BD000010B5044603E001F09DFB401CEA
:1002100009D014F8010B05490028F6D1BDE81040BB
:100220000A2001F091BB4FF0FF3010BD64000020A8
:1002300040EA010310B59B070FD1042A0DD310C863
:1002400008C9121F9C42F8D020BA19BA884201D9B5
:10025000012010BD4FF0FF3010BD1AB1D30703D0FD
:10026000521C07E0002010BD10F8013B11F8014BB3
:100270001B1B07D110F8013B11F8014B1B1B01D1CF
:10028000921EF1D1184610BD4FF0013C50F8042BDE
:1002900051F8043B9A4221D1A2EB0C03934313EA99
:1002A000CC1317D150F8042B51F8043B9A4215D1C6
:1002B000A2EB0C03934313EACC130BD150F8042B9D
:1002C00051F8043B9A4209D1A2EB0C03934313EA81
:1002D000CC13DBD04FF00000704700BFD01A01BA3A
:1002E000B1FA81F101F0180122FA01F0CB40DBB242
:1002F000C0B2C01AC1F120012CFA01F3D11A914306
:1003000011EAC311E6D1704770477047704700008B
:10031000004870470C0100202DE9F04791460F4638
:1003200080460446002614F8015B2DB100F030F839
:100330000068405DC007F6D12B2D02D02D2D18D0BE
:10034000641E4A463946204600F02AF827B139682B
:10035000A14201D1C7F800804FF0020471050BD50E
:100360004042002803DDFFF7D3FF0460A007BDE88B
:10037000F08746F48066E4E70028F8DAFFF7C8FF64
:1003800004606FF00040F2E7004870470C01002065
:1003900010B500F017F9001D10BD00BF851A000050
:1003A0002DE9F05F824615468B4600270AF10104CD
:1003B000B9460078302801D09DB113E014F8010B44
:1003C0000127782803D0582801D045B10AE00DB1A3
:1003D000102D07D1002714F8010B102502E0082585
:1003E00000E00A250026B0460EE005FB080005FBEC
:1003F00006F101271FFA80F801EB1046B6F5803FA1
:1004000000D3B94614F8010B294600F006F900287C
:10041000EBDABBF1000F05D00FB1641E00E05446CB
:10042000CBF80040B9F1000F06D0FFF771FF0221B1
:100430000160C81EBDE8F09F48EA0640FAE70000E8
:1004400010B54248542100F0C7F94148542100F04A
:10045000C3F94048542100F0BFF93F493B483C4AAA
:100460003F4B08603D490A603A491960531C0365D7
:10047000481C1065012008653B48344A39A178447E
:1004800000F0FCF820B9384878440A3800F09DF9AB
:1004900037482F4A35A1784400F0F0F820B93448A5
:1004A00078440A3800F091F932482A4A2FA178445A
:1004B00000F0E4F820B92F4878440A3800F085F9B4
:1004C00040232248DC000021224600F0B4F820B18D
:1004D00025487844543800F078F91D4822464023D6
:1004E000002100F0A8F820B121487844543800F0E9
:1004F0006CF9184822461023002100F09CF80028CF
:1005000006D01C487844BDE81040563800F05DB96C
:1005100010BD104870B5006D20F001040B4800F0CC
:1005200025F90B4800F022F90A4800F01FF909E00C
:10053000206D20F00105204600F018F9204600F05B
:1005400045F82C46002CF3D170BD000010000020AF
:1005500064000020B80000200000002004000020FB
:100560000800002072000000CA1D00007700000093
:10057000B91D0000921D00007546FFF705FFAE464D
:1005800005006946534620F00700854618B020B59F
:10059000FFF718FEBDE820404FF000064FF00007BF
:1005A0004FF000084FF0000BAC46ACE8C009ACE8D7
:1005B000C009ACE8C009ACE8C00921F007018D46CC
:1005C00070470000004870472C01002070B50446B9
:1005D000051F00F029F90068002C14BF446870BDA5
:1005E000002C18BFAC423CBF20466468F8D30168B9
:1005F0000A18AA4218BF456003D12A68054611446B
:10060000016028684119A1421CBF6C6070BD61681F
:10061000696021680844286070BD3A2800D23038EB
:1006200020F02002412A01D3A2F13700884201D3F1
:100630004FF0FF30704770B5C468A50713D065024E
:1006400011D4B2F5807F09D0B2F5007F06D0B2F5A3
:10065000806F08D1012300F1240106E05D1E6FF0D8
:100660007F46B54201D3012070BD0161C361416085
:1006700024F470611143C160002070BD2DE9F04188
:100680000C461646070047D0104600F06FF8207859
:10069000611C61280AD0722802D077283CD102E080
:1006A0000125002405E00225042402E0082448F284
:1006B000020511F8010B2B2806D0622809D011F889
:1006C000010C74280AD00BE045F0030544F0020445
:1006D000EFE745F0040544F00104EAE744F01004B4
:1006E0003846214601F0A0F8411C15D000213161A7
:1006F00071604FF40071F560F1617061200704D5FD
:1007000030460222002100F009F9306D40F001006E
:1007100030653046BDE8F0810020FBE72DE9F0416F
:100720000D460646104C206DC10704D0410804D088
:1007300020F00104F7E722460EE0542000F0BFF855
:1007400007000ED0206D47F00101084354212065B9
:10075000384600F041F83A4629463046BDE8F041B7
:100760008CE70020D6E70000100000202DE9F047BC
:1007700004464FF000094FF0FF37C568D4E90486FE
:10078000A80707D0204600F079F9304601F038F884
:10079000002802DA3846BDE8F087280502D5404631
:1007A000FFF714FF4C21204600F016F8206D20F0D2
:1007B000010020654846EEE710B50446AFF300801F
:1007C0002046BDE81040FFF7E9BC10B500F0A0F9E5
:1007D000BDE8104000F096B94FF0000200B5134696
:1007E00094469646203922BFA0E80C50A0E80C5051
:1007F000B1F12001BFF4F7AF090728BFA0E80C5002
:1008000048BF0CC05DF804EB890028BF40F8042BFA
:1008100008BF704748BF20F8022B11F0804F18BF67
:1008200000F8012B704700000048704714010020B9
:10083000704770477047704738B504460A46002035
:100840006946AFF30080002808BF38BD0246009912
:10085000204600F084F9012038BD012000F0D3B912
:10086000F8B5AFF30080054600200C46102000BF0D
:100870000646A819A0420DD9324669460020AFF3BA
:100880000080070008BF00F0BEF90098A04218BF22
:100890000546C419FFF7C8FF05600746F01D20F0A4
:1008A00007004619284600F053F9B44208BFF8BDC6
:1008B000A21B31463868BDE8F84000F050B970B569
:1008C0000646FFF7B1FF056806F10B0020F00704AC
:1008D000B4429CBF002070BD2B466A68BAB1106854
:1008E000A04210D304F1080188423CBF5068586010
:1008F00007D35168101941601168091B01605860E5
:100900001460101D70BD13465268002AE7D12146BD
:100910002846FFF791FF0028DED170BD2DE9F04198
:10092000044616460D464769007B80072ED03846A0
:1009300000F072FF50BB3EB3012E02D0022E25D133
:1009400004E0204600F025F905441DE0384600F09B
:1009500061FFE168002841F01001E16005DA2046FE
:1009600000F058F80120BDE8F081C9030BD562689A
:10097000E16A914200D81146A26911442269891A9C
:10098000814200DD08460544002D01DA0220EAE735
:10099000E16A6068E268814206D29103E06203D5B1
:1009A00022F4003141F01002A6690027AE4213DCA8
:1009B000E16A814201D90B4600E0034603EB060CD5
:1009C0002369ACEB030CAC4506DD814201D98C46B2
:1009D00000E084469C4505D1A760276042F02000D6
:1009E000A5620DE0AD1BE669AE1B8142A66000D991
:1009F0000846C01A281A20605819606022F02000AA
:100A000003490840E060002084F84870ABE700002C
:100A1000BFCFD7FFC16821F4001141F08001C16050
:100A200000218160016070472DE9F047814614463E
:100A30000E464FF0FF383248D5685769054209D055
:100A40003846A16900F022FF002811DB2C48C04382
:100A50000540E5602B4632464946384600F01AFF0D
:100A6000A16920F00042B21A11440028A16103D00C
:100A70002046FFF7CFFF4046BDE8F08770B504463B
:100A80000569C06A6168884200D80846E16821F4B7
:100A90002011E160C90312D5A84208D02246411BAB
:100AA0002846FFF7C1FF10B14FF0FF3070BD0020A6
:100AB000E562C4E90150E06820F48030E060002085
:100AC00070BD10B50446C06820F02000E060A16A47
:100AD000A06988420DD02046FFF7D0FFE06820F4DF
:100AE000405040F01000E060A06AA0612069E06220
:100AF000606044F24001E0688843E06010BD00009F
:100B000010000200002801D000F01CB8704700005F
:100B100010B5014602A000F05DF8012010BD0000F4
:100B200053494752545245443A20526564697265AC
:100B300063743A2063616E2774206F70656E3A208B
:100B40000000000001491820ABBEFEE726000200AD
:100B500000210160C0E90110704710207047034672
:100B600040688C46002818BF88423CBF0346406856
:100B7000F8D318681844884207D00CF1030020F01D
:100B80000700001D411A521A0146081D0A60FFF7AE
:100B90001DBD10B50146C268900703D0900607D569
:100BA000886A0AE0FFF7B4FB01210160881E10BDCE
:100BB0008B69486818440B69C01A91F848301BB11A
:100BC00091F84910401A10BD1103FCD50028FADD38
:100BD000401E10BD70B505460C460A2000E06D1C95
:100BE00000F06EFE35B128780028F8D102E0641CD0
:100BF00000F066FE14B120780028F8D1BDE87040FE
:100C00000A2000F05DBE10B500F006F8BDE8104007
:100C1000FFF778BF7047000010B5012805D000210C
:100C200003A0FFF7D7FF012010BD09A1F8E70000DE
:100C300053494752544D454D3A204F7574206F66C5
:100C40002068656170206D656D6F7279000000002D
:100C50003A2048656170206D656D6F727920636F11
:100C6000727275707465640010B582B045F200440C
:100C7000C4F2000420464621102200F0CBFEB4202E
:100C800000F020F80DA0FFF7BDFA0DF10603204695
:100C90004621022200F06AFEBDF80600000400BAF8
:100CA00001F05BFA43F23333C3F6F3734FF03332A0
:100CB00001F0CCF801F022FA02B010BD6F6B210DEB
:100CC00000000000B0B5044600F006FF054600BF76
:100CD00000F002FF401BA042FAD3B0BD2DE9F04165
:100CE000CA7802F00F0CD30644BF8B784CEA030C91
:100CF00009880B0621D0056800234FF001084FF04A
:100D00000F0E002608E000BF282A08BF4761013601
:100D1000082E03F104030FD008FA06F70F42F6D0AD
:100D20000EFA03F425EA04040CFA03F5482A45EA0E
:100D30000405E9D10761EAE70560B1F5807F38BFB6
:100D4000BDE8F081446800234FF4807E4FF00F0827
:100D5000002607E0282A08BF47610136082E03F164
:100D6000040310D00EFA06F707EA0105BD42F4D1DC
:100D700008FA03F5AC430CFA03F5482A44EA0504E3
:100D8000E8D10761E9E74460BDE8F081416170475F
:100D90000161704741F21800C4F20200416841F459
:100DA00080014160016841F00801016040F60440A3
:100DB000C4F20100016821F47F410160016841F43F
:100DC0003B41016045F60000C4F20000018841F497
:100DD0000041018001886FF3DF310180242181808F
:100DE000B4218183252101844FF4804101810121B7
:100DF000018070472DE9F04F81B045F614072EA011
:100E0000C4F2000700F0B8FE4DF6F00A42F26D2978
:100E100020244FF0000BCFF6FF7A40F202450FF28C
:100E2000BC08C0F6000900BFE0B2282808BF38247B
:100E300000F090F8E6B2700027F8040C504600BFAE
:100E40003988294201D10130FAD3388880070BD480
:100E500000F08CF8388820F4806038800520FFF797
:100E600031FF012068B910E0B888404600F084FEE8
:100E7000304600F037FE484600F07EFE0020A346D4
:100E800018B10134E0B24028CED35FEA0B600DD137
:100E900019A000F071FE27204FF0270B00F022FE72
:100EA00042F26D20C0F6000000F066FE5FFA8BF0A3
:100EB00001B0BDE8F08F00BF5363616E6E696E676D
:100EC0002049324332204C4344206164647265738C
:100ED0007365732E2E2E0D0A000000004C43442033
:100EE000666F756E642061742061646472657373EB
:100EF0003A203078000000004C4344206E6F74208C
:100F0000666F756E642C207573696E672064656604
:100F100061756C7420616464726573733A20307813
:100F20000000000081B045F61001C4F20001088005
:100F300088888007FCD50889009001B070470000C0
:100F400045F61001C4F20001088000BF8888000641
:100F5000FCD5704745F60000C4F20000018841F45A
:100F600080710180818AC907FCD0704745F6000076
:100F7000C4F20000018841F4007101807047000054
:100F80000288002942F4806308BF22F48063038052
:100F900070470000828A008B60F3174202EA01006A
:100FA000401AB0FA80F0400970470000028800291A
:100FB00042F0010308BF22F00103038070470000E4
:100FC0000288002942F4807308BF22F480730380F2
:100FD000704700000288002942F4007308BF22F421
:100FE000007303807047000070B586B004468088A7
:100FF0000D4620F03F0601A800F070F903994DF668
:101000008360C4F21B30A1FB000346EA9340A0803A
:10101000208820F0010020802A6848F2A060C0F2F9
:10102000010082424FEA934008D85200B1FBF2F12E
:101030004FF6FC72114208BF042125E0EB884BF605
:10104000FF76B34204D102EB4202B1FBF2F105E0BC
:1010500019235A43B1FBF2F141F480414FF49672E7
:10106000504344F6D352C1F26202A0FB020208468A
:101070006FF31F30B0FA80F04009084348F20001D6
:10108000CFF6FF710143900901302084A1832088AD
:101090004FF6F53140F00100208020886A89084031
:1010A000A988084310432080A88929890843208102
:1010B00006B070BD008AC0B27047000041F0010365
:1010C000002A08BF01F0FE030382704701827047C7
:1010D00080B5012000F004F80A20FFF7F3FD80BD81
:1010E000B0B582B000F0F00100010A1D8DF80510C6
:1010F000011D08304FF0FF3401AD8DF804208DF84C
:1011000006108DF8070000BF2819407800F0BCF8E1
:101110000134032CF8D102B0B0BD0000B0B582B0EC
:1011200000F0F001000101F10D0209318DF8051008
:1011300000F10D0109304FF0FF3401AD8DF80420AE
:101140008DF806108DF807002819407800F09CF8FB
:101150000134032CF8D102B0B0BD000010B5FFF788
:1011600049FE40F29014C2F20004207020B91BA086
:10117000FFF748F8272020702078400020703320A7
:10118000FFF7AEFF0A20FFF79DFD3220FFF7A8FF13
:101190003220FFF797FD2820FFF7A2FF3220FFF74C
:1011A00091FD0120FFF79CFF3220FFF78BFD062009
:1011B000FFF796FF3220FFF785FD0C20FFF790FF29
:1011C0003220FFF77FFD0220FFF78AFF3220FFF772
:1011D00079FD06A0FFF716F810BD00BF4C43442070
:1011E0006E6F7420666F756E64210D004F4B210D7C
:1011F0000000000070B584B038B34CF6CD42002337
:10120000CCF6CC42EC4600BF84B2A4FB0251C90824
:1012100001EB8105A0EB450040F030005D1CDBB226
:101220000CF80300092C2B460846EDD828060AD0F6
:10123000ECB2ACF1010500BF285D661EFFF76EFF42
:10124000012C3446F8DC04B070BD3020FFF766FF97
:1012500004B070BD10B50178002908BF10BD441E50
:10126000C8B2FFF75BFFA17801340029F8D110BDA7
:1012700080B5A0F14002002908BF80F08002D0B202
:10128000FFF72EFF80BD000010B50446FFF762FE99
:1012900040F29010C2F200000078FFF743FE2046B3
:1012A000FFF74EFEFFF762FE10BD0000002941F27D
:1012B0001C01C4F202010A680CBF22EA00001043BC
:1012C00008607047002941F21801C4F202010A685F
:1012D0000CBF22EA000010430860704710B541F2CD
:1012E0000404C4F20204226802F00C02082A41F24B
:1012F0000022C0F27A021CD12368D4F800C0C3F3E4
:10130000834E5FEACC330EF1020C06D440F6001295
:10131000C0F23D020CFB02F20BE023689B0302D4F7
:101320000CFB02F205E040F60012C0F23D020CFB9D
:1013300002F20260226842F23423C2F30312C0F6C2
:1013400000039A5C0168D14041602268C2F3022226
:101350009A5C21FA02F282602268C2F3C2229A5C8D
:1013600042F23023D140C1602268C0F60003C2F3CC
:1013700081329A5CB1FBF2F1016110BD70B500F0F1
:10138000ABFB40F28C11C2F200010A68821AB2F57E
:101390007A7F38BF70BD41F20004C4F201040860D6
:1013A000FFF762FC40F29215C2F20005288000208F
:1013B0000021FFF75DFF1DA0FFF74CFF2888FFF716
:1013C00019FF1CA0FFF746FF40F20C06C2F2000610
:1013D0003088FFF70FFF18A000F0CEFB308800F038
:1013E00081FB18A000F0C8FB288800F07BFB18A048
:1013F00000F0C2FB28883188884209D920464FF482
:101400000051FFF7C3FC42F28A24C0F6000405E055
:1014100020464FF40051FFF7BBFC0EA40020012131
:10142000FFF726FF2046FFF715FF70BD4C75783A91
:10143000000000002F0000005468726573686F6C34
:10144000643A2000206D730D0A4C75783A20000034
:101450000D0A00004261742064656E2000000000E7
:1014600080B500F001F880BD82B041F20400002197
:10147000C4F202000191009150F8041C41F4803143
:1014800040F8041C50F8041C01F40031009101994B
:1014900001310191009919B90199B1F5A06FF1D10C
:1014A00050F8041C890354BF0021012100910099C8
:1014B000012936D142F20001C4F202010A6842F069
:1014C00010020A600A6822F007020A600A6842F005
:1014D00002020A600168016001680160016841F46C
:1014E00080610160016821F47C110160016841F4B0
:1014F000E811016050F8041C41F0807140F8041CB0
:1015000050F8041C8901FBD5016821F0030101603A
:10151000016841F002010160016801F00C01082935
:10152000FAD102B07047000080B541F20000C4F269
:1015300002000168002241F0010101604168CFF61C
:10154000FF021140416001684FF6FF72CFF6F6626C
:1015500011400160016821F480210160416821F49B
:10156000FE0141604FF41F018160FFF779FF4EF6E5
:101570000850CEF200004FF00061016080BD000015
:101580001020C4F200000188C90708BF7047018815
:1015900021F00101018040F28810C2F200000168D0
:1015A000013101607047000080B541F21C00C4F2B7
:1015B0000200016841F0010101600C20C4F200004A
:1015C0004721818340F2E7310184018841F0010124
:1015D00001804FF08040018841F00101018000F05E
:1015E00007F900F0F5F880BD10B543F60004C4F229
:1015F0000104204640F2255100F04AF830B320465D
:1016000000F0D6F8C1B20A2940F28411C2F20001FA
:1016100013D1087840F29412C2F2000210800A78C6
:1016200040F26C13C2F200030020985440F283127F
:10163000C2F200020123137007E00A7840F26C1333
:10164000C2F200039854087801300870204640F236
:10165000255100F005F810BDC94301807047000016
:10166000090A012202FA01F1C94301807047000012
:101670008289002942F4005308BF22F40053838179
:10168000704700000088084018BF01207047000024
:1016900001F01F024FF0010CC1F34213022B0CFAB0
:1016A00002F206D0012B14BF00F1140300F10C0369
:1016B00001E000F110031B880088090A1A4020FA93
:1016C00001F018BF0122104070470000C1F342131F
:1016D00001F01F0C1421022B08BF1021012B4FF029
:1016E000010308BF0C21002A03FA0CF243580CBF77
:1016F00023EA02021A4342507047000070B586B0D8
:101700000446008A0D46C98820F4405008432082D0
:10171000A0894EF6F3110840A9882A896B890843ED
:1017200010431843A081A08AA98920F4407008437F
:1017300001AEA0823046FFF7D1FD43F6000106F16D
:101740000800C4F201018C4208BF06F10C000068D9
:101750001922B4F90C1050432A680223002948BF0B
:10176000012302FA03F1B0FBF1F048F21F51C5F278
:10177000EB11A0FB01235A096FF0630302FB030086
:10178000B4F90C300426002B48BF032600FA06F0FB
:1017900000F13200A0FB01014FF00F0048BF07200D
:1017A00000EA511040EA0210208106B070BD00002E
:1017B00080886FF35F2070476FF35F2181807047EF
:1017C0004EF20410CEF200002021016070470000AC
:1017D0004EF20010CEF200004FF0805101607047D1
:1017E0004EF22540CEF2000010210170704700003B
:1017F0004EF21C40CEF20000102101707047000034
:1018000048F20101411A0020022988BF4FF0FF3041
:10181000704700000020704748F20101411A002083
:10182000032938BF0120704710B5C8B104460078BD
:101830003A2815D10FA12046FEF726FD98B10FA139
:101840002046FEF721FD88B10EA12046FEF71CFDC3
:1018500001464FF0FF30002908BF48F2030010BDD9
:101860004FF0FF3010BD48F2010010BD48F20200F9
:1018700010BD00BF3A535444494E00003A535444FB
:101880004F5554003A535444455252004FF0FF30E4
:101890007047000010B548F2030188420AD048F2B0
:1018A0000201884208D1144622B100BF00F0BEF9FF
:1018B000013CFBD1002010BD4FF0FF3010BD0000F7
:1018C00000BE7047B0B586B04FF400100121FFF79D
:1018D000EDFC08200121FFF7F5FC42F2000045F283
:1018E0000044C1F60340C4F2000405AD059004F5C0
:1018F0003C402946FFF7F2F9C020C1F603400590AD
:1019000004F538402946FFF7E9F90020CBF6FF70CF
:1019100002904FF0806003904FF48040ADF81000CB
:1019200048F2A060C0F20100019001A92046FFF733
:101930005BFB20460121FFF739FB06B0B0BD00007C
:101940003030C0B270470000B0B543F60005C4F2B5
:1019500001050446C1B22846FFF72EFF2846802124
:10196000FFF790FE0028F9D02046B0BDF0B581B059
:101970001C4616460F46054600F048F928463946EB
:10198000012200F023F95EB9284600F051F901B0B8
:10199000F0BD00BF00F00AF8013E04F8010BF3D0DF
:1019A0002846012EF6D100F013F8F5E7B0B5012175
:1019B0000446FFF7E5FA4025C0F203052046294614
:1019C000FFF7E8FA0028F9D02046FFF773FBB0BD17
:1019D000B0B500210446FFF7D3FA4025C0F2030555
:1019E00020462946FFF7D6FA0028F9D02046FFF70F
:1019F00061FBB0BDB0B50446FFF768FB8025C0F2BF
:101A0000070500BF20462946FFF7C4FA0028F9D091
:101A1000B0BD000070B515460E46044600F0F6F85D
:101A200020463146002200F0D1F820462946FFF733
:101A3000E1FF8425C0F2070520462946FFF7AAFAF0
:101A40000028F9D0204600F0F3F870BDFFF7ACFD98
:101A50004FF4165000F07EF9FFF734FFFFF79AF9C4
:101A6000FFF7C8F940F29011C2F20001087090B17E
:101A7000FFF774FBFFF72CFB00200021FFF7F8FBBA
:101A800007A0FFF7E7FBFFF723FB00BFFFF776FC9C
:101A900000F0D4F8FAE706A000F06EF8FEE700BF09
:101AA000493243204C434420466F756E6421000048
:101AB0004E6F204C43442064657465637465642EE6
:101AC00020436865636B20636F6E6E656374696F36
:101AD0006E732E0D0A00000040F28810C2F2000062
:101AE0000068704770B586B0F0B10446B0F1FF3FB2
:101AF00020DD2CB346F2676C0022C6F2666C01A9A9
:101B000084FB0C35AB1003EBD57303EB8305A4EB1F
:101B10004500551C885404F1090013282A461C4628
:101B2000EED2012D0FDA1AE00020FFF709FF00F0D6
:101B30003BF81FE02D20644200F036F8002CD9D18C
:101B40000025012D0BDB01A8441E00BF605D6E1E49
:101B5000FFF7F6FE00F028F8012D3546F6DC43F6D7
:101B60000004C4F2010400BF20464021FFF78AFDB3
:101B70000028F9D006B070BD10B5017839B1441E07
:101B8000C8B200F011F8A17801340029F8D143F669
:101B90000004C4F2010400BF20464021FFF772FD9B
:101BA0000028F9D010BD000010B543F60004C4F2BF
:101BB000010401462046FFF7FFFD00BF20468021BB
:101BC000FFF760FD0028F9D010BD0000B0B5C9B224
:101BD00015460446FFF772FA6DB1012D18BFB0BD6E
:101BE0000225C0F2030500BF20462946FFF7D2F9BF
:101BF0000028F9D008E08225C0F2070520462946D2
:101C0000FFF7C8F90028F9D0B0BD0000B0B5012138
:101C10000446FFF7D5F90125C0F203052046294601
:101C2000FFF7B8F90028F9D0B0BD000000BE70473A
:101C300080B50121FFF7CEF980BD0000F0B581B07D
:101C400040F28316C2F200063078002852D00020FD
:101C5000307029A0FFF790FF40F26C14C2F200042C
:101C60002046FFF789FF26A0FFF786FF25A1204623
:101C70001422FEF7DDFA68B140F26C10C2F20000E7
:101C800026A11022FEF7D4FA98B142F25B25C0F6E5
:101C9000000519E004F11400FEF7A6FA40F20C0763
:101CA000C2F20007388042F2702028A5C0F600007A
:101CB00005E040F292171EA5C2F200071EA0FFF732
:101CC0005BFF3888FFF70EFF2846FFF755FF601EC1
:101CD00017210022013900F8012FFBD140F29410A6
:101CE000C2F200000021018040F28410C2F2000024
:101CF0000170317001B0F0BD4E68616E3A20000095
:101D00000D0A00005345545F4C494748545F5448FE
:101D1000524553484F4C443A000000004C49474854
:101D2000545F494E54454E534954593A00000000FF
:101D3000206C780D0A0000004C494748545F494E1A
:101D400054454E534954593A20000000206C757890
:101D50000D0A0000F0B587B0054643F600044FF4C5
:101D600080400121C4F20104FFF7ACFA04200121F4
:101D7000FFF7A8FA40F20020C1F60300A4F5405690
:101D800006AF069030463946FEF7A8FF4FF4806054
:101D9000ADF8180048208DF81B0030463946FEF794
:101DA0009DFF029500254FF44020ADF81450CDE979
:101DB000035002A92046FFF7A1FC20464021FFF76F
:101DC0004BFC204640F225510122FFF77FFCFFF734
:101DD000F7FCFFF705FD20460121FFF749FC2046EF
:101DE0002021FFF74FFC50B12046FFF7E1FC8DF8B2
:101DF000070020462021FFF745FC0028F4D140F2DF
:101E00008310C2F20000057040F28410C2F200009C
:101E1000057040F29410C2F20000058007B0F0BDDA
:101E200010B500290AD00878002807D00548784462
:101E3000FEF72AFA002801D0002010BD024878449D
:101E400010BD0000860400007E0400002DE9C041A2
:101E500030B4DFF8A0C23CEA111418BF3CEA1314F6
:101E600000F0EC801CEA111481EA030544EAD57401
:101E700018BF1CEA131500F0C780A4EB050404F199
:101E80007F7404F500344FF0004545EAC12145EA6E
:101E9000C32341EA505143EA52534FEAC0204FEA6C
:101EA000C222994208BF904200F09C804FEA13651D
:101EB0000FF24016765D4FEA134506FB05F7C7F1B2
:101EC000807706FB07F74FEAD737A7FB0368764210
:101ED000A7FB06CEC8F5803838BFA8F1010807FB7C
:101EE00008E6A6FB028C4FF0000EE6FB03CEDCF109
:101EF000000CCEF1004E38BFAEF1010EA6FB0C581F
:101F00004FF00007E6FB0E87A1FB08C6A0FB07CE3B
:101F100016EB0E064FF0000545F10005E1FB0765E5
:101F200015F1E04E7EBFA4F580345FEA46066D41B0
:101F300016F1800745F100054FEA172747EA0567C4
:101F40004FEA15254FEA0666A6F1DE46B6F1805F38
:101F50001FD9384605EBC47124F0010C01EB0C11BC
:101F6000BCF1FE6F02D8F0BCBDE8008124425CBF2A
:101F700001F5801E9EEAC47F02D4F0BCBDE800815A
:101F8000244238D4A1F1C041F0BCBDE8004100F0CA
:101F900049B94FEAD02040EA41504FEAD1214FEAF7
:101FA000D22242EA43524FEAD323A7FB028607FB21
:101FB000036605FB02661EEA0E0F58BFA6EB00562D
:101FC000B6EB00564FEA520E4EEAC37E18EB0E0EE9
:101FD00056EB530EBDD518EB02085E417F1C55F140
:101FE0000005B6E74FF480154FF000074FF00006EC
:101FF0004FF00008ADE701F1C04101F000414FF0A2
:102000000000F0BCBDE800810CEA131511EA0C1FBA
:1020100000D00CE013EA0C1F00F025804FF0000008
:1020200081EA030101F00041F0BCBDE80081F0BC91
:10203000BDE8004181EA030100F0F4B8F0BCBDE85E
:10204000004170B500F0A0F8097EFC3E00F007B832
:102050004FF0000081EA030101F00041704781EA7E
:10206000030100F0DFB8F0BCBDE8004122494FF0A9
:1020700000007047FFFDFBF9F7F5F4F2F0EEEDEB31
:10208000E9E8E6E4E3E1E0DEDDDBDAD8D7D5D4D376
:10209000D1D0CFCDCCCBCAC8C7C6C5C4C2C1C0BFC2
:1020A000BEBDBCBBBAB9B8B7B6B5B4B3B2B1B0AFC8
:1020B000AEADACABAAA9A8A8A7A6A5A4A3A3A2A1AC
:1020C000A09F9F9E9D9C9C9B9A9999989797969567
:1020D00095949393929191908F8F8E8E8D8C8C8B03
:1020E0008B8A89898888878786858584848383828B
:1020F000828181800000FF070000F87F4FEA4103E2
:102100004FEA5353A3F58063D3F11E03C8BFD3F145
:10211000210C0CDD4FF0004242EAC12242EA50524B
:1021200032FA03FC8CEAE17CACEBE1707047102BD7
:10213000C4BF0020704703F5787CBCF1FF3F04D09A
:102140006FF0004282EA2100704770B500F01CF881
:102150004992248000207047F2E710F0004248BF07
:102160004042B0FA80F310FA03F10AD0C3F11D0324
:1021700003F5806302EB03524FEA415002EBD12199
:1021800070474FF0000070470EF1020E2EF0030E64
:102190005EF8046B364205D4012A43EB030515F5BE
:1021A000001F12D8012841EB010C1CF5001F0CD8B0
:1021B0000ED14FEAD17C0CEB4C0C0CF1020C15F556
:1021C000001F08BF4CEBD37C04E04FF0080C01E08B
:1021D0004FEAD37C0CEB4C0526FA05F606F0070611
:1021E000B6F1040C06D20EEB860CBDE870404CF044
:1021F000010C6047DFE80CF0090B02024FF00041D0
:10220000A1F500214FF0000070BD194610460128CD
:1022100051EB010418BFD4F5001484BF002001F075
:10222000004170BD0808A0F500114FEA3101704768
:102230000204060800000000010203040102030476
:10224000060708093A535444455252003A5354443D
:10225000494E003A5354444F5554004C656E682023
:102260006B686F6E6720686F70206C65210D0A00C7
:102270004461207468696574206C617020746872B0
:102280006573686F6C64203D200054617420646540
:102290006E200000C823000800000020100000008D
:1022A00028010008D823000810000020880700003B
:1022B000440100081001000043000000F8FFFFFF88
:1022C0000040404040404040404041414141414049
:1022D00040404040404040404040404040404040FE
:1022E000400502020202020202020202020202028D
:1022F0000220202020202020202020020202020292
:1023000002029090909090901010101010101010E9
:1023100010101010101010101010101002020202F5
:102320000202888888888888080808080808080839
:102330000808080808080808080808080202020235
:10234000400000000000000000000000000000004D
:10235000000000000000000000000000000000007D
:10236000000000000000000000000000000000006D
:10237000000000000000000000000000000000005D
:10238000000000000000000000000000000000004D
:10239000000000000000000000000000000000003D
:1023A000000000000000000000000000000000002D
:1023B000000000000000000000000000000000001D
:1023C000000000000000000000000000000000000D
:0823D0000000000032000000D3
:04000005080000ED02
:00000001FF
