:020000040800F2
:100000007806002091010008990100089B01000872
:100010009D0100089F010008A101000800000000E8
:10002000000000000000000000000000A301000824
:10003000A501000800000000A7010008A9010008B0
:10004000AB010008AB010008AB010008AB010008E0
:10005000AB010008AB010008AB010008AB010008D0
:10006000AB010008AB010008AB010008AB010008C0
:10007000AB010008AB010008AB010008AB010008B0
:10008000AB010008AB010008AB010008AB010008A0
:10009000AB010008AB010008AB010008AB01000890
:1000A000AB010008AB010008AB010008AB01000880
:1000B000AB010008AB010008AB010008AB01000870
:1000C000AB010008AB010008AB010008AB01000860
:1000D000AB010008AB010008AB010008AB01000850
:1000E000AB010008AB010008AB01000800F002F80A
:1000F00000F03FF80AA090E8000C82448344AAF183
:100100000107DA4501D100F034F8AFF2090EBAE880
:100110000F0013F0010F18BFFB1A43F0010318473B
:100120006832000088320000103A24BF78C878C1D5
:10013000FAD8520724BF30C830C144BF04680C60ED
:10014000704700000023002400250026103A28BF35
:1001500078C1FBD8520728BF30C148BF0B60704739
:10016000642900F07D80002070471FB51FBD10B5C9
:1001700010BD00F03FF91146FFF7F7FF01F0E8FB73
:1001800000F05DF903B4FFF7F2FF03BC00F060F983
:100190000948804709480047FEE7FEE7FEE7FEE71B
:1001A000FEE7FEE7FEE7FEE7FEE7FEE70448054957
:1001B000054A064B70470000E9110008ED000008F1
:1001C00078000020780600207802002078020020C5
:1001D0000FB41CB5074B06AA7B44694600900598EE
:1001E00000F0E7F80020694600F0F6F81CBC5DF866
:1001F00014FB0000FD0100002DE9F0410E4604460D
:10020000002020622046E168884730B3252805D0C9
:10021000D4E901219047206A401CF2E7E1682046BA
:1002200000278847050018D0A5F14100192802D8F9
:1002300020354FF400673246294620462760FFF7F5
:100240008FFF40B1012804D0F61D26F007060836BE
:10025000D8E7361DD6E72846DAE7206ABDE8F08100
:100260002DE9F0410646002410687529314616A58F
:1002700010D0AFF30080002802DA404213A507E057
:1002800031688A0701D512A502E0490704D511A5F6
:10029000012401E0AFF3008000210A2206F12407C7
:1002A00009E0B0FBF2FCB0FBF2F302FB1C003030C3
:1002B00078541846491C0028F3D123462A46304674
:1002C000BDE8F04100F016B8000000002D0000006D
:1002D0002B0000002000000070477047704710B5E9
:1002E00000F080F8006810BD10B5044600F07AF800
:1002F000046010BD2DE9F0470D469946924604462C
:1003000000F124080168880604D5E06921F0100195
:10031000216000E00120A84201DD471B00E000272A
:10032000A1697A1902EB0900081AA0612078C006B9
:1003300002D42046AFF30080002608E0D4E9012172
:100340001AF806009047206A401C761C20624E4531
:10035000F4DB2078C0060AD52046AFF3008006E023
:10036000D4E9012130209047206A401C2062381EC9
:10037000A7F10107F4DC07E0D4E9012118F8050032
:100380009047206A401C2062281EA5F10105F3DC7D
:100390002046AFF300802078000602D50220BDE899
:1003A000F0870120FBE7000001694A1C0261087820
:1003B000704700B58FB0CDE90131002105910549A5
:1003C0007944CDE9031011466846FFF715FF0FB0D9
:1003D00000BD0000E5FFFFFF0A6802F8010B0A609C
:1003E0007047000000487047180000200048704720
:1003F000180000207546FFF7F9FFAE460500694674
:10040000534620F00700854618B020B5FFF7CEFE12
:10041000BDE820404FF000064FF000074FF0000805
:100420004FF0000B21F00701AC46ACE8C009ACE886
:10043000C009ACE8C009ACE8C0098D46704710B5EA
:100440000446AFF300802046BDE81040FFF79ABE97
:1004500001491820ABBEFEE726000200704721B11B
:10046000826842F00102826003E0826822F00102A9
:1004700082607047014600208A6802F004020AB1D7
:10048000012000E0002070470146C86C80B2704730
:100490000246002013680B400BB1012000E0002051
:1004A0007047014600208A6802F008020AB1012064
:1004B00000E000207047000030B502460020002315
:1004C00050680F4C20400D790C6844EA0524204305
:1004D000506090680B4C2040D1E902542C434D7978
:1004E00044EA450420439060D06A20F470000C7CFC
:1004F000641EE4B2234340EA0350D06230BD0000E2
:10050000FFFEF0FFFDF7F1FFF0B504460D460020B9
:100510000021092D11DDE068A5F10A0606EB46076A
:10052000072606FA07F18843A5F10A0606EB4606F8
:1005300003FA06F10843E0600CE0206905EB45078B
:10054000072606FA07F1884305EB450603FA06F18C
:1005500008432061072A0FDA606B561E06EB8607F8
:100560001F2606FA07F18843561E06EB860605FA93
:1005700006F10843606322E00D2A0FDA206BD61FD4
:1005800006EB86071F2606FA07F18843D61F06EBFF
:10059000860605FA06F10843206310E0E06AA2F13E
:1005A0000D0606EB86071F2606FA07F18843A2F11F
:1005B0000D0606EB860605FA06F10843E062F0BD7B
:1005C000816841F008018160704721B1826842F47E
:1005D000A002826003E0826822F4A0028260704779
:1005E000816841F0040181607047000010B5074840
:1005F00000F03CF804460921012000F0E1FA204611
:1006000000F094FA02A000F085FA10BD00FC010889
:100610002070706D2020202020202020202020000D
:1006200010B5044600F046F80A48006940F00200A0
:100630000849086108464461006940F040000861CB
:1006400000F038F80348006920F002000149086111
:1006500010BD0000002002400348006940F0800007
:100660000149086170470000002002400146086807
:10067000704770B504460D4600F00AF82046FFF7B3
:10068000CFFF2946204600F01FF8FFF7E5FF70BDB9
:100690000548006900F0800020B104480249486024
:1006A000034848607047000000200240230167456E
:1006B000AB89EFCD00BF0348C06800F001000028FF
:1006C000F9D170470020024070B504460D46FFF78F
:1006D000F1FF0A48006940F00100084908612580DF
:1006E000FFF7E8FF280C6080FFF7E4FF034800698C
:1006F00020F001000149086170BD000000200240A7
:100700002DE9F041024600250026002000230024A8
:10071000002791F803C00CF00F0591F803C00CF00E
:10072000100CBCF1000F03D091F802C04CEA050593
:1007300091F800C0BCF1000F31D0146800202BE00C
:100740004FF0010C0CFA00F3B1F800C00CEA0306FC
:100750009E4220D183004FF00F0C0CFA03F7BC43EC
:1007600005FA03FC4CEA040491F803C0BCF1280F1D
:1007700006D14FF0010C0CFA00FCC2F814C00AE0DC
:1007800091F803C0BCF1480F05D14FF0010C0CFAF1
:1007900000FCC2F810C0401C0828D1D31460B1F886
:1007A00000C0BCF1FF0F34DD546800202EE000F1E2
:1007B000080C4FF0010808FA0CF3B1F800C00CEA7D
:1007C00003069E4221D183004FF00F0C0CFA03F771
:1007D000BC4305FA03FC4CEA040491F803C0BCF1E5
:1007E000280F05D100F1080C08FA0CF8C2F81480A3
:1007F00091F803C0BCF1480F07D100F1080C4FF08D
:10080000010808FA0CF8C2F81080401C0828CED362
:100810005460BDE8F081416170470161704770B577
:1008200002460024002500230020958A138B1B0418
:1008300045EA030626F07F4404EA01068E4201D110
:10084000012000E0002070BD21B1028842F00102C9
:10085000028004E002884FF6FE731A40028070475F
:1008600021B1028842F48072028004E002884FF6CF
:10087000FF631A400280704721B1028842F400727F
:10088000028004E002884FF6FF531A40028070474E
:100890000CB50246002000230193009300920B0F39
:1008A000019321F07F41019B1BB1009B1433009306
:1008B00003E0090C009B18330093009B1B680B405E
:1008C0000BB1012000E000200CBD00002DE9F04339
:1008D00085B004460D460026B1460427DFF8CC80DB
:1008E000A6884FF6C0700640684600F09FFADDF813
:1008F00008802F48B8FBF0F01FFA80F946EA090695
:10090000A68020884FF6FE710840208000262949E5
:10091000286888420CD828684000B8FBF0F087B2FD
:10092000042F00DA04273E4309F10100208427E068
:10093000E8884BF6FF71884206D1286800EB40003A
:10094000B8FBF0F087B209E0286800EBC00101EBCA
:100950000010B8FBF0F087B247F48047C7F30B00F4
:1009600008B947F0010747F4004006434FF496707A
:1009700009FB00F04FF47A7190FBF1F0401C2084E9
:10098000A683208840F00100208026884FF6F530AD
:100990000640A8886989084306432680A8892989D2
:1009A0000843208105B0BDE8F083000000127A0002
:1009B00040420F00A086010000B585B00121480526
:1009C00000F014FA0121082000F020FAC020ADF850
:1009D00010001C208DF8130003208DF8120004A9CC
:1009E0000F48FFF78DFE0020ADF804004BF6FF70B6
:1009F000ADF806000020ADF808004FF48060ADF8B7
:100A00000A000001ADF80C0006480090694606484F
:100A1000FFF75CFF01210448FFF716FF05B000BD9A
:100A2000000C0140A08601000054004012B141F0CA
:100A3000010102E04FF6FE73194001827047018206
:100A40007047000070B505460E46244C00BF4FF4B9
:100A500000312348FFF71CFF10B1601E041EF6D1C1
:100A60000CB9012070BD01211D48FFF7F9FE1B4C98
:100A700000BF1C491A48FFF7D2FE10B9601E041EC1
:100A8000F7D10CB90120EDE7002229461448FFF701
:100A9000CDFF124C00BF14491148FFF7C0FE10B93A
:100AA000601E041EF7D10CB90120DBE731460C486B
:100AB000FFF7C5FF094C00BF0B49891C0848FFF729
:100AC000AEFE10B9601E041EF6D10CB90120C9E7B4
:100AD00001210348FFF7D0FE0020C3E7A0860100F4
:100AE00000540040010003008200070010B53220CE
:100AF00000F0FCFC282000F027F80C2000F024F87F
:100B0000062000F021F8012000F01EF8022000F07D
:100B1000EDFC10BD10B5044603E014F8010B00F025
:100B200031F820780028F8D110BD00003EB5044609
:100B3000224604A16846FFF74BFB6846FFF7EAFF31
:100B40003EBD00002564000070B5044604F0F000CE
:100B500040F00805F02000EA041040F0080645F0D7
:100B600004014E20FFF76EFF29464E20FFF76AFF73
:100B700046F004014E20FFF765FF31464E20FFF797
:100B800061FF70BD70B5044604F0F00040F0090547
:100B9000F02000EA041040F0090645F004014E2060
:100BA000FFF750FF29464E20FFF74CFF46F00401A7
:100BB0004E20FFF747FF31464E20FFF743FF70BD41
:100BC00070B504460E461CB906F18000C5B204E0BB
:100BD000012C02D106F1C000C5B22846FFF7B4FFD0
:100BE00070BD000008B501210C2000F00FF91020A5
:100BF0008DF80300FF20ADF8000003208DF80200FF
:100C000069460648FFF77CFD04210448FFF703FE10
:100C100001210248FFF7FFFD08BD0000000C014064
:100C200010B504210748FFF7F8FD4FF4FA7000F003
:100C30005DFC04210348FFF7EEFD4FF4FA7000F06D
:100C400055FC10BD000C014000B587B001214FF4E8
:100C5000017000F0DBF80120ADF8040000208DF8F1
:100C6000070001A91B48FFF74BFD002002908DF8FB
:100C70000C0001208DF80D004FF46020049000203E
:100C8000059001208DF8180002A91348FFF714FC05
:100C90000523012200211048FFF736FC01210E48F0
:100CA000FFF7DDFB0C48FFF78BFC00BF0A48FFF79E
:100CB000F8FB0028FAD10848FFF792FC00BF06486D
:100CC000FFF7D8FB0028FAD101210348FFF77DFC8C
:100CD00007B000BD00080140002401402DE9F04F9D
:100CE0008DB000BF02213748FFF7D2FB0028F9D0B2
:100CF0003448FFF7C9FB0B900B9801F091FE4FF0C1
:100D00006632314BCDE9020101F0DAFE00222F4BB1
:100D1000CDE9040101F0ACFCCDE9060101F0BAFB1C
:100D20000A900A9802F0DCF900221346CDE9060188
:100D300001F0F6FD03D100200DB0BDE8F08F0A9858
:100D400002F0CEF902460B46CDE90401002020490D
:100D500001F08EFC00221F4BCDE9060102F0D6F80F
:100D600004460D4600261B4FDFF86C80DFF86C90C0
:100D7000DFF86CA0DFF86CB032463B4620462946CF
:100D800001F076FCCDE9000100F070FD42464B46D3
:100D9000CDE9020102F0BAF852465B46CDE9040102
:100DA00001F066FC02460B46CDE9060100200E4923
:100DB00000F05EFECDE90801DDE9080101F0ECFD7F
:100DC000BAE700000024014066660A4000FEAF401A
:100DD000006AE8400088C340D7A3703D0AD7F33FBC
:100DE0001F85EB51B81EDDBF0000244029B1064A23
:100DF000D2690243044BDA6104E0034AD2698243B8
:100E0000014BDA61704700000010024029B1064A28
:100E100092690243044B9A6104E0034A9269824357
:100E2000014B9A61704700000010024030B500216C
:100E30000022002400232D4D6D6805F00C0121B126
:100E4000042905D0082923D105E0294D056022E0B9
:100E5000274D05601FE0254D6D6805F47012234D88
:100E60006D6805F48034022505EB92421CB9214DD2
:100E7000554305600BE01D4D6D6805F400351DB14F
:100E80001C4D5543056002E0194D5543056002E0D5
:100E9000174D056000BF00BF144D6D6805F0F001EF
:100EA0000909154D6B5C0568DD4045600F4D6D68A7
:100EB00005F4E061090A104D6B5C4568DD40856012
:100EC0000A4D6D6805F46051C90A0B4D6B5C4568AD
:100ED000DD40C560054D6D6805F44041890B074D47
:100EE0006B5CC568B5FBF3F5056130BD00100240D1
:100EF00000127A0000093D000400002014000020C8
:100F000010B501460022002300204A11012A02D117
:100F1000094C236806E0022A02D1074C236A01E04B
:100F2000054C636A01F01F02012494401C400CB17F
:100F3000012000E0002010BD00100240014600200A
:100F4000034A506820F0F0000843506070470000EA
:100F5000001002401149096821F480310F4A1160E4
:100F60001146096821F480211160B0F5803F03D05B
:100F7000B0F5802F0ED106E00849096841F48031B0
:100F8000064A116007E00549096841F4A021034AB7
:100F9000116000E000BF00BF704700000010024079
:100FA00001460020034A506820F4E0600843506086
:100FB000704700000010024001460020034A5068BC
:100FC00020F4605040EAC1005060704700100240B9
:100FD00001490866704700000000424202460020B6
:100FE000044B586820F47C1042EA01031843014B7B
:100FF000586070470010024001460020034A5068C4
:1010000020F00300084350607047000000100240C9
:1010100010B500F001F810BD0CB500200190009053
:101020003348006840F480303149086000BF3048E0
:10103000006800F4003000900198401C0190009876
:1010400018B90198B0F5A06FF1D12948006800F4F3
:10105000003010B10120009001E0002000900098C5
:10106000012843D12348006840F01000214908605E
:101070000846006820F0070008600846006840F055
:10108000020008601A4840681949486008464068EC
:1010900048600846406840F4806048600846406800
:1010A00020F47C1048600846406840F4E81048602E
:1010B0000846006840F08070086000BF0C48006877
:1010C00000F000700028F9D00948406820F00300C3
:1010D000074948600846406840F00200486000BF89
:1010E0000348406800F00C000828F9D10CBD00004E
:1010F000001002400020024000B589B00121042008
:10110000FFF784FE01210846FFF770FE0420ADF8CA
:10111000200018208DF8230003208DF8220008A954
:101120001848FFF7EDFA40F2E730ADF81800232039
:10113000ADF814000020ADF81A00ADF8160005A9AE
:101140004FF0804000F0F4F86020ADF8040001207A
:10115000ADF806000020ADF80A00ADF80C0001A9BA
:101160004FF0804000F088F80821C80600F0D4F85D
:101170000121880700F068F80121880700F070F865
:1011800009B000BD0008014010B500214FF08040BB
:1011900000F0CBF810BD10B54FF48030FFF7DAFE49
:1011A00000BF3120FFF7ACFE0028FAD04FF4E01169
:1011B0004FF48030FFF712FF0120FFF709FF00BF57
:1011C0003920FFF79DFE0028FAD00220FFF714FF18
:1011D0000020FFF7B3FE4FF48060FFF7E1FE002030
:1011E000FFF7EAFE10BD000010B51348006840F09C
:1011F00001001149086008464068104908400E493E
:101200004860084600680E4908400B4908600846D7
:10121000006820F4802008600846406820F4FE0042
:1012200048604FF41F008860FFF7F2FE4FF0006047
:101230000449086010BD0000001002400000FFF8E3
:10124000FFFFF6FE08ED00E021B1028842F08002C7
:10125000028004E002884FF67F731A4002807047D4
:1012600021B1028842F00102028004E002884FF6B8
:10127000FE731A400280704770B5002400220023DC
:10128000058C4FF6FF6635400584028C8388848B7D
:101290004FF68F752C404FF6FC752C400D882C4373
:1012A0004FF6FF552A400D894FF6FF7606EA0525D1
:1012B0002A434D8806EA05252A43154DA84202D047
:1012C000144DA8421DD14FF2FF752A404D894FF6AB
:1012D000FF7606EA05252A434FF6FF352A408D881A
:1012E00006EA05252A434EF6FF752B404DF6FF759D
:1012F0002B408D8906EA05152B43CD8906EA051595
:101300002B4383808483CD888587028470BD000051
:10131000002C0140003401400A460021818B4FF629
:10132000F77319401143818370478187704700002C
:10133000002202881D4B98420ED01D4B98420BD0C4
:10134000B0F1804F08D01B4B984205D01A4B984201
:1013500002D01A4B984204D14FF68F731A404B8833
:101360001A43174B984207D0164B984204D04FF6B9
:10137000FF431A40CB881A4302808B8883850B88F1
:1013800003850A4B98420BD0094B984208D00E4B6C
:10139000984205D00D4B984202D00D4B984201D196
:1013A0000B7A03860123838270470000002C0140E2
:1013B000003401400004004000080040000C0040E0
:1013C0000010004000140040004001400044014073
:1013D00000480140490050EAC12018BF04204A0DCE
:1013E00018BF40F0010040F2FF72B2EB515F08BF3E
:1013F00040F00200012808BF052070472DE9F041A8
:101400004F1E00EBC7010446D1E9000115461E46F8
:1014100037F006020DD02A46334601F051FB7F1EFD
:1014200004EBC703D3E9002301F066F837F00602A6
:10143000F1D1022F25D0042F13D0062F18BFBDE8FD
:10144000F0812A46334601F03BFBD4E90A2301F040
:1014500053F82A46334601F033FBD4E9082301F060
:101460004BF82A46334601F02BFBD4E9062301F062
:1014700043F82A46334601F023FBD4E9042301F064
:101480003BF82A46334601F01BFBD4E9022301F066
:1014900033F82A46334601F013FBD4E90023BDE8B4
:1014A000F04101F029B8000000221346104601491E
:1014B00001F0DEB80000F03F012201F0B9BE01F0FA
:1014C0001BB8002213461046114601F0D1B840F275
:1014D000013200204FF0E04101F0AABE024A002094
:1014E000110701F0A5BE000001FDFFFF00B5034696
:1014F0004FF47A7103FB01F000F001F800BD002108
:1015000001E000BF491C00EBC0028A42F9D87047D5
:101510002DE9F04DC84A002490B0914205DA21F03F
:101520000043934201D805D120B110B0BDE8F04D81
:10153000FFF7C2BFB1F5801F1BDA53EA000209D0E2
:10154000002911DA0120FEF7CFFE10B0BDE8F04D02
:10155000FFF7B7BF0220FEF7C7FEFFF7A5FF10B0E9
:1015600081F00041BDE8F08D6FF03504362201F0C6
:101570005FFE04EB2152C1F31308B049A2F2FF331E
:10158000414401F4801282F07F6103EB225281F02A
:101590004051009241EA08010022A94B01F0B6FC3B
:1015A000044608F10200A74EC0F313000D467E4426
:1015B000032867D2D6E90023204601F0B1F91ED1F5
:1015C0000098002802BFD6E9000110B0BDE8F08DF8
:1015D00001F00FFA07460C469B4A9C4B01F070FA4B
:1015E00006460D469A4A9B4B3846214601F068FA5A
:1015F00010B032462B46BDE8F04D00F07DBF4FF0F5
:101600005532954B2046294601F05AFA0022934B59
:1016100001F08AFB06460F4622462B461046194625
:1016200001F04EFA32463B4601F04AFA064600986F
:101630000F46F0B101F0DDF980468A46824A834BBD
:1016400001F03EFA32463B4601F06EFB22462B4645
:1016500001F05CFC05460C467D4A7E4B40465146F7
:1016600001F02EFA10B02A462346BDE8F04D01F0F5
:101670004DBC0B4610B0324620462946BDE8F04D21
:1016800001F044BC00224FF08043204600F034FFBC
:1016900002460B462046294600F0EAFF06460F4662
:1016A000009801F0A6F9CDE9040132463B46104608
:1016B000394601F005FA0C9069480C9A40440190B3
:1016C00009910B46104601F0FBF982460246654837
:1016D0008B46C8F151080B4608F5D72803217844FA
:1016E000FFF78CFE52465B4601F0EAF90A905E482D
:1016F0000D9152465B4604217844FFF77FFE099B1B
:101700000C9A01F0DDF9844601980D9B40EA080827
:1017100060460A9A00F0F0FE83460891B8F1000F87
:101720004EDD4FF0FF322046294601F081FD224672
:101730002B4601F0C5F9804600988A4660B3DDE982
:101740000401414A414B01F0BBF9099100905A460E
:1017500040465146089B00F0CFFE32463B4601F022
:10176000AFF9099B009A00F0C7FE4246534601F0CC
:10177000DBFA22462B4601F0C9FB04460D46DDE9A3
:101780000401334A334B01F09BF910B022462B463B
:10179000BDE8F04D01F0BABB5A464046089B00F048
:1017A000ABFE32463B4601F08BF94246534601F010
:1017B000BBFA10B022462B46BDE8F04D01F0B4BA9A
:1017C000009840B3DDE904011F4A204B01F078F98D
:1017D00080468A465A4620462946089B01F096FBD9
:1017E00032463B4601F06CF94246534601F08EFB0F
:1017F00022462B4601F08AFB04460D46DDE9040132
:10180000134A144B01F05CF910B022462B46BDE898
:10181000F04D01F07BBB0B465A462046294601F0AD
:1018200075FB32463B4601F04BF910B022462B4681
:10183000BDE8F04D01F078BA0000F07F645F090068
:101840000000F03FCE1D0000763C7935EF39EA3DCF
:101850000000E0FE422EE63F5555D53F0000E03F38
:1018600086EBF9FF661C0000641C00002DE9F041C6
:10187000044630480025814205DA21F000428242C8
:1018800001D805D124B12046BDE8F041FFF714BED0
:10189000B1F5801F1BDA52EA040008D000290FDAE4
:1018A0000120FEF721FDBDE8F041FFF70ABE02204E
:1018B000FEF71AFDFFF7F8FD81F00041BDE8F08169
:1018C0006FF035053622204601F0B2FC044605EBE8
:1018D0002150A0F2FF32D00F40F2FF331B1A0D4609
:1018E00063F31F55104401F084F806460F4629465D
:1018F0002046FFF70DFE104A104B01F0E1F80446B8
:101900000D460F4A0F4B3046394601F0D9F82246B2
:101910002B4600F0F1FD05460C460B4A0B4B3046BA
:10192000394601F0CDF82A462346BDE8F04100F0E3
:10193000E3BD00000000F07F0EE526157BCBDB3F0A
:10194000362BF111F3FE593D00609F501344D33FF5
:10195000FFF748F9FFF71FFCFFF72EF8FFF7C6F86F
:10196000FFF772F9FFF7C8FB2EA0FFF7D3F84FF48B
:10197000FA60FFF7BBFD0120FFF7E6F80220FFF752
:10198000B5FD4EE0FFF7AAF9044604212A48FEF708
:1019900044FF00210846FFF713F928A0FFF7BAF823
:1019A0002046FFF7C3F827A0FFF7B4F8FEF71EFEA6
:1019B000C82C0DD900210120FFF702F924A0FFF760
:1019C000A9F801211C48FEF726FFFFF729F910E0CE
:1019D00000210120FFF7F4F820A0FFF79BF8FFF7A4
:1019E000D3FB01211448FEF718FF04211248FEF72B
:1019F00012FF1D48006800F5FA701B490860084690
:101A0000006842F21071884206D321461748FEF75B
:101A100030FE0020144908604FF4FA70FFF766FDAD
:101A200000BFAFE743616E682062616F206B686939
:101A30002067617320000000000C01404761733A89
:101A4000200000002070706D202020200000000089
:101A50004E677579206869656D000000416E2074DD
:101A60006F616E20200000000000002000FC0108D3
:101A70002DE9F04D1D460C4698B0174621F0004167
:101A800023F00043002814BF4FF0010C4FF0000C6E
:101A90000CEB440CFE4A0CEB02064FEA620C664566
:101AA0002BD33E0018BF012606EB45061644F94A23
:101AB000964222D3F84A53EA070C02D0944205D149
:101AC00048B918B000201146BDE8F08D002808BFC5
:101AD0004FF0000C01D04FF0010C0CEB440212F55A
:101AE000001F0AD8002F14BF4FF0010C4FF0000C5C
:101AF0000CEB450212F5001F07D918B03A462B46E9
:101B00002146BDE8F04DFFF7DABC0022DFF88CA3D8
:101B1000002CB8BF534526DADFF884C36345A8BF5D
:101B2000022220DADFF870C39C451CDCDFF874C3A6
:101B30000CEB235CBCF1140F08DDCCF1340627FA62
:101B400006FC0CFA06F6BE420DD108E05FB9CCF1F6
:101B5000140623FA06FC0CFA06F69E4203D10CF09A
:101B60000102C2F1020251EA000C19D1002D17DA6C
:101B7000002C18BF022A01D0012A07D00220FEF74C
:101B8000B3FB18B0BDE8F04DFFF78EBC0220FEF7A6
:101B9000ABFBFFF789FC18B081F00041BDE8F08D88
:101BA000B7F1000C6CD1534525D104F1804212F5F8
:101BB000801201BF00280020B74918B008BFBDE857
:101BC000F08DB548884207DC002DA1BF604629464C
:101BD00018B0BDE8F08D07E0281E05DA80F000415E
:101BE00018B06046BDE8F08DAF497944D1E90001F5
:101BF00018B0BDE8F08DDFF8A0C2634525D1002DF7
:101C00001FDA19B1514512D1D8B909E0002840F0C6
:101C1000EC82A24A214618B062F31E01BDE8F08DA5
:101C20000020214618B060F31E01BDE8F08D08DAEF
:101C300018B02346BDE8F04D02460020614600F092
:101C400017BD18B02146BDE8F08D514518DAB5F141
:101C5000804F0DD0A5F1005CBCF1FF5C10D1B4F158
:101C6000000C0DDB18B06146BDE8F04D00F0ECBB98
:101C7000234618B00246BDE8F04D194600F020BFDB
:101C8000060024F0004C3BD1D9B1514533D1002C92
:101C900006DD002DA1BF0020514618B0BDE8F08D33
:101CA000002C01DD002D1BDB002C13DA002D11DBD5
:101CB000012A4FF0000014BF78497C4918B0BDE8F4
:101CC000F08D022A18BF002C0AD0012A08D1002C5E
:101CD00006DA0AE0002CB8BF002D11DA012A04D080
:101CE000002018B00146BDE8F08D18B000204FF07C
:101CF0000041BDE8F08DA1F14050B0F17F601AD0F5
:101D0000012000EBE47050EA020421D0624C521E24
:101D10004FF0000B104304BF4FF0000B644C6548BC
:101D200083427CDD644A654893421FDD884217DBAD
:101D3000002D25DB37E0002C00DA4AB1022A0CBF67
:101D400001204FF0FF3018B0BDE8F04D00F051BE5B
:101D50000120FEF7C9FA18B0BDE8F04DFFF7B1BB9E
:101D60004D4A8A4202DC002D0ADC1CE0814202DA84
:101D7000002D18DA04E0484B994220DD002D12DDD9
:101D80000220FEF7B1FAFFF7A2FB05460E4600223D
:101D900053465846214600F093FE18B066F31E01E4
:101DA0002846BDE8F08D0220FEF79EFAFFF796FB6D
:101DB0000A46214618B062F31E01BDE8F08D0022EC
:101DC0003046614601F0A2F880460E466FF00102EF
:101DD00001F02EFA4FF05532394B00F0A5FF424684
:101DE000334600F06DFE0022364B00F09DFF824628
:101DF0004246334604911046194600F061FE5246B1
:101E0000049B00F05DFE8A4600904FF0C0422E4BCE
:101E10004046314600F054FE2C4A2B4B00E027E0B0
:101E2000CDE906015146009800F04AFE8246019134
:101E3000274A284B4046314600F042FE5246019B5D
:101E400001F064F882460B4602460591DDE9060181
:101E500000F052FBDDE9062300268846304601F0FB
:101E600055F85246059B00F05FFF024600F07EB930
:101E70000020B1F5801F07DA35223046614601F0B7
:101E8000D7F906466FF0340000EB215024E0000043
:101E9000FFFF1F00FFFF0F000000F03F0000F07F7A
:101EA0000000404301FCFFFF921700000000F0FF1C
:101EB0000000F0BF0000E0410000F043FFFFEF3FF3
:101EC0005555D53F0000E03F4715F73FFE822B6593
:101ED00044DF5DF80BAE543EA0F2FF300190C1F339
:101EE000130040F07F6141F040510291FE49884269
:101EF000D8BF002004DDFD498142C8BF012001DDBB
:101F00000D9008E000200D900198401C019002986F
:101F1000A0F5801002900299F54878440B910D9934
:101F200000EBC100D0E900230F9330460A920B99D1
:101F300000F0ECFFCDE90601DDE90A2130460F9BF8
:101F400000F0DAFA02460B460020EA4900F090FB66
:101F5000059102460B460090DDE9060100F0B0FD58
:101F60001490E5488A464FF00008784402990068CA
:101F700012904FF0005040EA61010D980F9B01EB69
:101F8000804000F5002109910A9A129800F0BEFFE6
:101F900032460B9B00F0C8FE4246534600F090FDCF
:101FA0000646029140465146099B129A00F088FD70
:101FB000DDE9062300F0B8FE3246029B00F0A6FFE2
:101FC000059B009A00F07CFD0091149A0490534602
:101FD0001046194600F074FD06460246C7480B46F7
:101FE000029106217844FFF709FACDE90510029B1A
:101FF00032461046194600F063FDDDE9053200F077
:102000005FFD05910646534640461946149A00F076
:1020100073FA009B049A00F053FD3246059B00F0D2
:102020006BFACDE90510424653461046194600F0BA
:1020300047FD0022B24B02910A9000F05DFADDE903
:10204000053200F059FA0E464246AD4B404600F0CC
:102050005DFF029B0A9A00F059FFDDE9053200F0AE
:1020600063FE424602910A9033461046514600F004
:1020700027FDCDE906015346149A02990A9800F00B
:102080001FFD8A460290334642460099049800F0AC
:1020900017FD5346029A00F02FFA82460B4602467D
:1020A0000591DDE9060100F027FADDE906230020AD
:1020B0008846064600F02AFF5246059B00F034FE93
:1020C000824609914FF060428E4B3046414600F007
:1020D000F7FC049006918C4A8A4B5046099900F00F
:1020E000EFFC82460291894A894B3046414600F016
:1020F000E7FC5246029B00F0FFF9864B7B440D9AA9
:1021000003EBC203D3E9002300F0F6F90E90079128
:10211000019800F06EFC0591DDE9061382460E9AE7
:10212000049800F0E9F97C4A7A440D9B02EBC30362
:10213000D3E900230093029200F0DEF95246059B9A
:1021400000F0DAF90026884652463046059B00F03A
:10215000DDFE009B029A00F0D9FE069B049A00F077
:10216000D5FE079B0E9A00F0DFFD024600200B46CD
:1021700002903846294600F0A3FC824601912B4686
:1021800038461946029A00F0C1FE3246434600F036
:1021900097FC5246019B00F0AFF907468A4632464B
:1021A00043462946029800F08BFC05460E463A4607
:1021B000534600F0A1F9594A8846914221DBA8EB29
:1021C000020353EA000210D12A46334600F09EFE75
:1021D000CDE90401524A534B3846514600F08CF980
:1021E000DDE9042300F06AFD21D20220FEF77CF82D
:1021F000FFF76DF90A46214618B062F31E01BDE8EB
:10220000F08D494B28F000429A4210D3474A08EB20
:10221000020353EA00027FF4C6AD2A46334600F0BB
:1022200075FE3A46534600F049FD7FF6BCAD0022EC
:10223000019228F000403E493E4A01EB2051824283
:1022400023DA481C4FF4801121FA00F040443A4A46
:10225000C0F30A517A44394BA1F2FF31CB4020EA56
:102260000303C0F3130040F48010C1F11401C8400F
:1022700012680190B8F1000FBCBF4042019028469F
:10228000314600F043FE05460E462A4633463846A0
:10229000514600F031F94FF000084246284B4046C5
:1022A000059100F00DFCCDE90601264A264B40467B
:1022B000059900F005FC009102902A4633464046FD
:1022C000059900F023FE3A46534600F02DFD1F4AC3
:1022D0001F4B00F0F5FB009B029A00F00DF907463A
:1022E000884602460B4635E08E9803007AB60B000E
:1022F000A21300000000F03F1214000008130000B9
:102300000000084009C7EE3FFD033ADCF5015B140D
:10231000E02F3EBEE0110000A4110000000090403C
:10232000FE822B654715973C00CC904000346F3FF0
:1023300001FCFFFF0000E03F28110000FFFF0F003D
:10234000432EE63F396CA80C615C20BEEF39FAFEE3
:10235000422EE63FDDE9060100F0CEF8DDE9062376
:1023600005460E4600F0D2FD3A46434600F0DCFC3E
:102370000F462A46334600901046194600F0A0FB4F
:10238000824602462E4888460B4605217844FFF7D0
:1023900035F85246434600F093FB2A46334600F098
:1023A000C3FC80468A463B4628463146009A00F0E8
:1023B00087FB3B46009A00F09FF8069100900022B0
:1023C0004FF080434046514600F0A0FD0F460C9070
:1023D000424653462846314600F072FB3B460C9A73
:1023E00000F046F9069B009A00F090FD2A4633461D
:1023F00000F08CFD0022134B00F096FC054601987E
:102400000E4601EB00510815002810DC2846314625
:10241000019A00F00DFFFEF7DDFF042808BFFFF76B
:102420005DF828463146019A00F002FF05460B464A
:1024300018B02A4658462146BDE8F04D00F040BB92
:10244000900F00000000F03F2DE9F04106460F46D6
:1024500000F076FC041E0D4618BF0120284320F032
:102460000040C0F17F6000F1E040C00F0ED0301C92
:1024700018BF0120384320F00040C0F17F6000F118
:10248000E040C00F04BF0120FDF72EFF2046294683
:10249000BDE8F08121F00042A2F16052B2F5801F48
:1024A00001F0004328BFD2F17F6C0BD95FEA001C1A
:1024B00043EAC20242EB507018BF704728BF20F0B9
:1024C00001007047B2F5801FBCBF184670474FEA45
:1024D000410C1CF5001F02D2084600F072BE70B518
:1024E00000F098FB00000089FFF7F6BF4FF00040B6
:1024F000A0F580007047000010B591EA030F48BFB7
:1025000083F0004300F10A85841A71EB030C05D2B5
:10251000121943EB0C03001B61EB0C01DFF824E103
:102520004FEA1154A4EB135C1EEA430F18BF9EEA56
:10253000445F73D023EA0E03DCF1200E21EA04513C
:1025400043F4801332D322FA0CFE10EB0E0023FA70
:102550000CFE41EB0E01CCF1200E03FA0EFE10EB47
:102560000E0051F10001B1F5801FCCF1200E32D2E6
:1025700001EB045112FA0EF2BDE8104058BF70474B
:10258000401C38BF5FEA420218BF7047002814BFE2
:1025900020F0010041F100014FEA410313F5001F53
:1025A00038BF7047A1F1C04100F082BB012A43EB64
:1025B0000302ACF1200CDCF11F0E32BF4FF0000E15
:1025C00023FA0CF310EB030041EB0451B4EB115F61
:1025D000D0D0A1EB045101F5801149085FEA300029
:1025E00001EB04510ED350F1000038BF12FA0EFE79
:1025F00008D1BDE81040C9E7401C38BF5FEA42027D
:10260000CAD1C3E7BDE810404FEA410313F5001FEC
:1026100038BF7047A1F1C04100F04ABB9EEA445F59
:1026200008D011EA5E0FBDE8104004BF01F0004180
:1026300000207047BDE8104070B500F0EBFA00BF15
:1026400064FBBE3E0000E0FF02494FF0000000F0D6
:10265000BDBD00BF0000F87F491058BFC1F1404127
:102660005B1058BFC3F140438B42EFF300807047CB
:102670002DE9C04130B4DFF8A0C23CEA111418BF04
:102680003CEA131400F0EC8081EA03051CEA111403
:1026900044EAD57418BF1CEA131500F0C780A4EBF8
:1026A00005044FF0004545EAC12145EAC32341EA4C
:1026B000505143EA525304F17F74994204F50034B7
:1026C0004FEAC0204FEAC22208BF904200F09C802F
:1026D0004FEA13650FF24016765D4FEA134506FB8D
:1026E00005F7C7F1807706FB07F74FEAD737A7FB57
:1026F00003687642C8F58038A7FB06CE38BFA8F13C
:10270000010807FB08E64FF0000EA6FB028CE6FB73
:1027100003CEDCF1000CCEF1004E38BFAEF1010E5D
:10272000A6FB0C584FF000074FF00005E6FB0E87A4
:10273000A1FB08C6A0FB07CE16EB0E0645F100056F
:10274000E1FB076515F1E04E7EBFA4F580345FEA3A
:1027500046066D4116F1800745F100054FEA17273F
:102760004FEA066647EA0567A6F1DE46B6F1805FE6
:102770004FEA15251FD9384624F0010C05EBC4712A
:10278000BCF1FE6F01EB0C1102D8F0BCBDE800817A
:1027900024425CBF01F5801E9EEAC47F02D4F0BCD7
:1027A000BDE80081244238D4F0BCA1F1C041BDE8AD
:1027B000004100F07DBA4FEAD22242EA43524FEA8A
:1027C000D323A7FB02864FEAD02040EA415007FB03
:1027D00003661EEA0E0F4FEAD12105FB026658BFC1
:1027E000A6EB0056B6EB00564FEA520E4EEAC37EF9
:1027F00018EB0E0E56EB530EBDD518EB02085E41DA
:102800007F1C55F10005B6E74FF480154FF0000727
:102810004FF000064FF00008ADE7F0BC4FF00000AD
:1028200001F1C04101F00041BDE8008111EA0C1F37
:102830000CEA131500D00CE013EA0C1F00F0258001
:102840004FF00000F0BC81EA030101F00041BDE857
:102850000081F0BCBDE8004181EA030100F028BA24
:10286000F0BCBDE8004170B500F0D4F9097EFC3E33
:1028700000F007B881EA03014FF0000001F00041C9
:10288000704781EA030100F013BAF0BCBDE80041D3
:102890004FF0000021497047FFFDFBF9F7F5F4F216
:1028A000F0EEEDEBE9E8E6E4E3E1E0DEDDDBDAD8EB
:1028B000D7D5D4D3D1D0CFCDCCCBCAC8C7C6C5C449
:1028C000C2C1C0BFBEBDBCBBBAB9B8B7B6B5B4B360
:1028D000B2B1B0AFAEADACABAAA9A8A8A7A6A5A44B
:1028E000A3A3A2A1A09F9F9E9D9C9C9B9A9999980F
:1028F0009797969595949393929191908F8F8E8EB2
:102900008D8C8C8B8B8A898988888787868585843E
:1029100084838382828181800000FF070000F87F2A
:1029200051EA030C17D41CF5801F58BFBCF5801F5B
:1029300000F10680994218BF704708BF9042704767
:1029400007D711F5801F58BF13F5801F19D499427E
:102950007047894270471CF5801F08D5BCF5801F61
:10296000F7D58B4218BF704708BF824270474FF4BB
:10297000001C1CEB410F38BF1CEB430F01D28B42F4
:10298000704770B500F046F9922449004FF00051AD
:102990004FF08053FFF760BE4FEA1153A3F58063F9
:1029A000D3F11E03A8BFD3F1200C08DB4FF0004287
:1029B00042EAC12252EA505232FA03F07047094209
:1029C0000BD4102BC4BF0020704703F5787CBCF1FA
:1029D000FF3F05D04FF0FF3070474FF000007047C9
:1029E00070B500F017F900BF4992248000207047AD
:1029F000F0E710F0004248BF4042B0FA80F310FA0E
:102A000003F10AD0C3F11D0303F580634FEA41507F
:102A100002EB035202EBD12170474FF000007047E8
:102A2000B0FA80F310FA03F10AD0C3F11D0303F5E5
:102A300080634FEA41504FEA035202EBD1217047C5
:102A40004FF000007047000051EA030C17D41CF54A
:102A5000801F58BFBCF5801F00F10680994218BF47
:102A6000704708BF9042704707D711F5801F58BFC5
:102A700013F5801F19D499427047894270471CF59D
:102A8000801F08D5BCF5801FF7D58B4218BF704753
:102A900008BF824270474FF4001C1CEB410F38BF47
:102AA0001CEB430F01D28B42704770B500F0B2F8B7
:102AB000922449004FF000514FF08053FFF7CCBDF6
:102AC000DFF848C170B51CEA111E1EBF1CEA1315C1
:102AD0009EEA0C0F95EA0C0F00F06F8081EA030468
:102AE00023EA4C134EEAD47E21EA4C1141F48011C2
:102AF00043F48013AE44A1FB024CA0FB0365AEF18E
:102B00007F7E361955EB0C05A1FB034C4CF10003FD
:102B1000A0FB021C16EB0C06654153F100030942B1
:102B200018BF46F0010613F4007F0BD14FEA0331C2
:102B30004FEA0530340341EA155140EA16506FF070
:102B400003020AE04FEAC3214FEAC520F40241EA3A
:102B5000555140EA56506FF0020202EB2E4201EB53
:102B6000025585EACE710AD05FEA440C18BF24F002
:102B7000004450F1000041F1000120EAD47040F21D
:102B8000FE7C624500D270BDA84214BF4FF0804465
:102B90004FF04044002E08BF0024BEF1806FA8BF54
:102BA000A1F1C041BDE8704080F282804FF000008A
:102BB00001F1C04101F0004170479EEA0C0F0CEAA0
:102BC000131518BF95EA0C0F06D04FF0000081EAEC
:102BD000030E0EF0004170BD00F01CF88900013EAC
:102BE00000F007B800F009B84FEA430C5FEA5C5CFC
:102BF00008D081EA030100F05BB84FEA410C5FEABC
:102C00005C5CF6D14FF00000014970470000FF07FF
:102C10000000F87F0EF1020E2EF0030E5EF8046B3A
:102C2000364205D4012A43EB030515F5001F12D8DF
:102C3000012841EB010C1CF5001F0CD80ED14FEA06
:102C4000D17C15F5001F0CEB4C0C0CF1020C08BFED
:102C50004CEBD37C04E04FF0080C01E04FEAD37C4E
:102C60000CEB4C0526FA05F606F00706B6F1040C47
:102C700006D20EEB860CBDE870404CF0010C6047AC
:102C8000DFE80CF0090B02024FF000414FF00000AA
:102C9000A1F5002170BD19461046012851EB010431
:102CA00018BFD4F5001484BF002001F0004170BDAE
:102CB0000808A0F500114FEA3101704753EA010CF2
:102CC00017D41CF5801F58BFBCF5801F00F106808B
:102CD0008B4218BF704708BF8242704707D713F571
:102CE000801F58BF11F5801F19D48B4270479B423B
:102CF00070471CF5801F08D5BCF5801FF7D5994299
:102D000018BF704708BF904270474FF4001C1CEB7F
:102D1000430F38BF1CEB410F01D2994270470FB4EB
:102D20000CBC03BCFFF7C1BE91EA030F10B581F0E4
:102D300000413FF5E9AB83F0004300F0EFB800003D
:102D40002DE9F04101F5801CBCF5001FC0F2C380E5
:102D50004FEA115C21EA0C510CF1FD0C41F4801199
:102D60005FEA5C0C0CF5C07C01D3400049413DA4F6
:102D7000890241EA905187028E0E0A0CA45D04FB81
:102D800004F602FB06F6C6F14046A4FB0662F60D09
:102D900046EA422606FB06F4A4FB01235242C3F195
:102DA000404338BF5B1EA6FB02420024E6FB03241F
:102DB000D20B42EA4446A6FB0623A1FB02E2A3FB98
:102DC00007E4A4184FF0000252F10002E3FB0142B5
:102DD0006442C2F1404E38BFAEF1010EA6FB04239F
:102DE0004FF00002E6FB0E32A2FB03464FF0000458
:102DF000B61954F10004E2FB0264A1FB06E6A4FB51
:102E000007E816EB08064FF0000858F10008E4FB4D
:102E100001687642C8F1405838BFA8F10108A2FB0A
:102E200006E4A3FB08E52D194FF0000454F100045B
:102E3000E2FB0854A1FB05E6A7FB04E818EB060833
:102E40004FF0000656F10006E1FB048618F120055C
:102E500056F10006A809A8F11B08B10908F03F08BF
:102E6000B8F10A0F40EA86601CD901EB0C51BDE8AD
:102E7000F08100BFFCF5EEE8E2DDD8D3CFCBC7C3CD
:102E8000C0BDB9B6B4B1AEACA9A7A5A3A19F9D9B87
:102E90009A9896959392908F8D8C8B89888786854A
:102EA00084838281A0FB006800FB01F208EB4208EA
:102EB000B8EB872807D5341858EB0104D5D5401C4A
:102EC00051F10001D1E7341A78EB0104CDD4401E52
:102ED00071F10001C9E75FEA4C0C5FEA9C5C0DD11F
:102EE00005D34FF0000001F00041BDE8F081BDE8DE
:102EF000F04170B5FFF78EFE6DDBFFBEBDE8F0411F
:102F00004FF00000004970470000F87F10B591EACB
:102F1000030F48BF83F000433FF5F6AA841A71EB14
:102F2000030C07D212198CF0004C43EB0C03001B6E
:102F300061EB0C01DFF8A4E14FEA1154A4EB135C40
:102F40001EEA430F18BF9EEA445F00F0B08023EAF8
:102F50006E03524221EA0451C3EB6E0338BF5B1E7D
:102F6000DCF1200E25D322FA0CFE10EB0E0043FA02
:102F70000CFE41EB0E01CCF1200E03FA0EFE10EB1D
:102F80000E0051F10001CCF1200E29D412FA0EF2FC
:102F900001EB0451BDE8104058BF7047401C1CBFF6
:102FA000B2F1004F704700280CBF491C20F001000F
:102FB000704712EB020E43EB030218BF4FF0010EF5
:102FC0004EEA4202ACF1200CDCF11E0E54D943FA59
:102FD0000CFE10EB0E0051F1FF31CCF11E0ED5D5D9
:102FE0000EF1010E12FA0EFE404141EB010101EB20
:102FF000445C5FEA5C5C10D910EBDE7001EB0451BD
:1030000038BFBEF1004FBDE8104018BF7047002820
:103010000CBF491C20F00100704730D24FEAD42C7D
:1030200011F5001124F400641BD0B1FA81F20B3ABF
:10303000A41AA41ED2F12003914030FA03F31943DD
:10304000904001EBCC71002C01EB0451BDE8104025
:10305000A8BF704701F1C0414FF0000001F00041EE
:103060007047B0FA80F310FA03F100D110BDE41AF2
:10307000173C4805C90AE4E701EB045110BD4910AB
:1030800001EB0451BDE810404FEA300002E04FF080
:10309000000170474A0008BF0042F8D0B2F5001F97
:1030A00028BF704701F000414FF0000070479EEAD2
:1030B000445F07D011EA5E0FBDE8104004BF002155
:1030C00000207047BDE8104070B5FFF7A3FD00BFBA
:1030D00040DFF63E83F00041104670470000E0FFFD
:1030E00043004FEAD30C4FEA3C0C43401FBF40075C
:1030F0000CF1605113F0FE4F70471CF0006F03D1CC
:1031000000200CF0004170470CF0004343EA50707F
:1031100010B540EACC0000F00EF800BF00000092AD
:103120004FEA0001FFF7C4BD4FF000414FF000002F
:10313000A1F5002170470EF1020E2EF0030E5EF88D
:10314000044B244204D44FEA4102B2F17F4F11D81C
:103150004FEA4003B3F17F4F0CD80ED14FEAD07C39
:10316000B2F17F4F0CEB4C0C0CF1020C08BF4CEB96
:10317000D17C04E04FF0080C01E04FEAD17C0CEB6D
:103180004C0324FA03F404F00704B4F1040C06D24F
:103190000EEB840CBDE810404CF0010C6047DFE8FA
:1031A0000CF0070802024FF00040A0F5800010BDAF
:1031B0000846420018BFD2F1807288BF00F000407C
:1031C00010BDFF2141EAD050C00570470CF00F033D
:1031D000092B08BF082000F059800A2B0BD0082BC0
:1031E00018BF704708BF1CF0400F0AD04FF0000016
:1031F0004FF0000170471CF0400F18BF4FF0004027
:1032000070471CF0100F08D020F0704300F07F4290
:1032100042EAD3014FEA4370704700F0604021F06A
:103220007F4242EA000201F07F4040EA727070473C
:103230004FF0FF0C4CF4E06C1CEA11531CBF9CEAED
:10324000030C9445C2BFDA4201EB02517047002BD8
:103250000DD0BCF1000F0FD0002A01F00041A4BF37
:1032600041F0E04141F07F614FF00000704701F014
:1032700000414FF00000704750EA01334FF09B0CC3
:1032800018BF4CF0806C7FF4DFA970471CF4801FDE
:1032900011D01CF4E02F03D06FEACC314900704705
:1032A0004FF04050EFF3008222F0704242EA0002F9
:1032B00082F3008870474FF0000070470000000064
:1032C000000000000000F03F000000000000F83F98
:1032D00000000000000000000000004003B8E23FD2
:1032E000000000000000000006D0CF43EBFD4C3E84
:1032F000033333333333E33FFFAB6FDBB66DDB3F79
:103300004D268F515555D53F01411DA96074D13FC0
:1033100065DBC9934A86CD3FEF4E454A287ECA3FBA
:103320003E5555555555C53F93BDBE166CC166BF3C
:103330002CDE25AF6A56113FF16BD2C541BDBBBE35
:10334000D0A4BE726937663E04FA97999999D93F1D
:10335000AF788E1DC571CC3F9FC678D0099AC33F08
:10336000935555555555E53F599322942449D23FDD
:10337000DE03CB966446C73F44523EDF12F1C23FA4
:103380000000000000000000A8330008000000203A
:103390001800000028010008C033000818000020B1
:1033A000600600004401000800000000000000006A
:1033B00001020304010203040607080902040608C7
:04000005080001915D
:00000001FF
