:020000040800F2
:10000000600600206D0100087501000877010008F6
:10001000790100087B0100087D0100080000000054
:100020000000000000000000000000007F01000848
:10003000810100080000000083010008850100081C
:100040008701000887010008870100088701000870
:100050008701000887010008870100088701000860
:100060008701000887010008870100088701000850
:100070008701000887010008870100088701000840
:100080008701000887010008870100088701000830
:100090008701000887010008870100088701000820
:1000A0008701000887010008870100088701000810
:1000B0008701000887010008870100088701000800
:1000C00087010008870100088701000887010008F0
:1000D00087010008870100088701000887010008E0
:1000E00087010008870100088701000800F002F876
:1000F00000F02CF80AA090E8000C82448344AAF196
:100100000107DA4501D100F021F8AFF2090EBAE893
:100110000F0013F0010F18BFFB1A43F0010318473B
:100120007005000080050000002300240025002643
:10013000103A28BF78C1FBD8520728BF30C148BF4A
:100140000B6070471FB51FBD10B510BD00F031F832
:100150001146FFF7F7FF00F069FA00F04FF803B41B
:10016000FFF7F2FF03BC00F057F800000948804792
:1001700009480047FEE7FEE7FEE7FEE7FEE7FEE789
:10018000FEE7FEE7FEE7FEE704480549054A064BA1
:10019000704700002D040008ED00000860000020FA
:1001A0006006002060020020600200207047704757
:1001B0007047754600F02CF8AE4605006946534678
:1001C00020F00700854618B020B5FFF7DDFFBDE839
:1001D00020404FF000064FF000074FF000084FF0AE
:1001E000000BAC46ACE8C009ACE8C009ACE8C009FB
:1001F000ACE8C00921F007018D46704710B50446F0
:10020000AFF300802046BDE81040FFF7A8BF000014
:10021000004870470000002001491820ABBEFEE7EF
:10022000260002007047000040F60009C4F20109F0
:100230004846082100F0E0F801254FF001080AE0E7
:1002400003244FF47A70B8F1030FB8BF08F101042A
:1002500000F03AF8A046B8F1040F0DDD002402E0EA
:100260000134042CECD0032CFAD005FA04F081B24E
:10027000484600F0BFF8F3E7C8F1040020EAE07058
:10028000471CA8F10106002403E000BF0134A74287
:10029000E4D005FA04F081B2484600F0ADF8301918
:1002A00005FA00F081B2484600F0A6F84FF4FA7063
:1002B00000F00AF8002CE9D0601E05FA00F081B2C7
:1002C000484600F097F8E1E7B0B5002808BFB0BD98
:1002D000044648F6A04500BF4FF08040012100F0E1
:1002E0002DF94FF08040002100F034F94FF08040AC
:1002F00000F02EF9A842F9D34FF080400021013CD4
:1003000000F01CF9002CE7D1B0BD000080B582B030
:100310001420012100F07EF840F2FF60C1F20300DA
:10032000019040F60000C4F2010001A900F002F8BB
:1003300002B080BD2DE9F047CA7802F00F0CD30659
:1003400044BF8B784CEA030C09880B0625D0824603
:100350005AF8144B00F1100E00254FF001094FF030
:100360000F08002706E000BF1E600137082F05F1C7
:10037000040511D009FA07F60E42F6D008FA05F383
:1003800024EA03030CFA05F41C43282A5346EBD055
:10039000482AEAD17346E7E70460B1F5807F38BFA9
:1003A000BDE8F087436800F1100E00F11409002544
:1003B0004FF4807A4FF00F08002705E034600137D2
:1003C000082F05F1040512D00AFA07F404EA010621
:1003D000A642F4D108FA05F6B3430CFA05F6334306
:1003E000282A4E46EAD0482AE9D17646E6E7436015
:1003F000BDE8F0874161704701617047002941F213
:100400001C01C4F202010A680CBF22EA000010437A
:1004100008607047002941F21801C4F202010A681D
:100420000CBF22EA000010430860704782B041F21E
:100430000400C4F2020050F8041C002241F0010143
:1004400040F8041C0168CFF6FF021140016050F82B
:10045000041C4FF6FF72CFF6F662114040F8041C00
:1004600050F8041C21F4802140F8041C016821F498
:10047000FE0101604FF41F014160002101910091D4
:1004800050F8041C41F4803140F8041C50F8041C5E
:1004900001F400310091019901310191009919B9DC
:1004A0000199B1F5A06FF1D150F8041C890354BF34
:1004B0000021012100910099012936D142F2000169
:1004C000C4F202010A6842F010020A600A6822F0CF
:1004D00007020A600A6842F002020A6001680160CD
:1004E00001680160016841F480610160016821F4E4
:1004F0007C110160016841F4E811016050F8041CAE
:1005000041F0807140F8041C50F8041C8901FBD5AF
:10051000016821F003010160016841F002010160FE
:10052000016801F00C010829FAD14EF60850CEF20C
:1005300000004FF00061016002B07047028800299E
:1005400018BF012122F00102114401807047000010
:10055000808C70478184704740F6FF33B0F800C04C
:10056000C4F2000398420FDCB0F1804F1ED040F27D
:100570000043C4F20003984218D040F60003C4F2CE
:100580000003984212D016E040F60043C4F2000384
:1005900098420BD043F20043C4F20103984205D0C5
:1005A00042F60043C4F20103984204D14B882CF078
:1005B000700243EA020C41F2004240F48063C4F24C
:1005C0000002934204D0CA882CF4407342EA030C20
:1005D000A0F800C08A888285A0F18042A2F59632F8
:1005E0000B884FEAB222072A038507D8012303FAB2
:1005F00002F212F0E50F1CBF097A01860121818207
:100600007047000080B582B010200121FFF702FF83
:1006100042F20000C1F20300019041F20000C4F276
:10062000010001A9FFF786FE02B080BD00F014F8BA
:10063000FFF7E8FFFFF76AFE40F60004C4F201048A
:1006400020464FF40071FFF7D7FE20464FF480613B
:10065000FFF7D0FEFFF7E8FD10B584B001200121BF
:100660000124FFF7CBFE4FF6FF70ADF80800002025
:100670008DF80C0001A94FF080400194FFF76CFF4A
:100680004FF080400121FFF759FF04B010BD00007A
:10069000A0060008000000206006000028010008F5
:040000050800016D81
:00000001FF
