:020000040800F2
:100000007006002089010008910100089301000892
:100010009501000897010008990100080000000000
:100020000000000000000000000000009B0100082C
:100030009D010008000000009F010008A1010008C8
:10004000A3010008A3010008A3010008A301000800
:10005000A3010008A3010008A3010008A3010008F0
:10006000A3010008A3010008A3010008A3010008E0
:10007000A3010008A3010008A3010008A3010008D0
:10008000A3010008A3010008A3010008A3010008C0
:10009000A3010008A3010008A3010008A3010008B0
:1000A000A3010008A3010008A3010008A3010008A0
:1000B000A3010008A3010008A3010008A301000890
:1000C000A3010008A3010008A3010008A301000880
:1000D000A3010008A3010008A3010008A301000870
:1000E000A3010008A3010008A301000800F002F822
:1000F00000F03AF80AA090E8000C82448344AAF188
:100100000107DA4501D100F02FF8AFF2090EBAE885
:100110000F0013F0010F18BFFB1A43F0010318473B
:10012000480A0000680A0000103A24BF78C878C165
:10013000FAD8520724BF30C830C144BF04680C60ED
:10014000704700000023002400250026103A28BF35
:1001500078C1FBD8520728BF30C148BF0B60704739
:100160001FB51FBD10B510BD00F031F81146FFF7E7
:10017000F7FF00F081FC00F04FF803B4FFF7F2FF47
:1001800003BC00F057F800000948804709480047C1
:10019000FEE7FEE7FEE7FEE7FEE7FEE7FEE7FEE737
:1001A000FEE7FEE704480549054A064B7047000094
:1001B000C5060008ED000008700000207006002051
:1001C000700200207002002070477047704775462B
:1001D00000F02CF8AE4605006946534620F00700B3
:1001E000854618B020B5FFF7DDFFBDE820404FF091
:1001F00000064FF000074FF000084FF0000BAC4630
:10020000ACE8C009ACE8C009ACE8C009ACE8C0097A
:1002100021F007018D46704710B50446AFF300800A
:100220002046BDE81040FFF7A8BF00000048704717
:100230001000002001491820ABBEFEE72600020096
:100240007047000080B582B00820012100F08EF9CF
:1002500040F2C030C4F60300019040F60040C4F202
:10026000010001A900F044F802B080BD10B584B0CF
:1002700000F088F94FF4803000F0B0F9002000243D
:1002800000F0C6F94FF48030092100F0E3F90120B5
:1002900000F0DAF9022000F0E9F9002000F094F90A
:1002A0004FF4806000F0BAF9002000F0C1F904209A
:1002B000002100F04FF90120002100F04BF904204B
:1002C000012100F03BF907208DF80C4040F60004B6
:1002D000019040F2E730C4F20004029001A92046E8
:1002E00000F074FB2046012100F078FA04B010BD44
:1002F0002DE9F047CA7802F00F0CD30644BF8B7883
:100300004CEA030C09880B0625D082465AF8144B98
:1003100000F1100E00254FF001094FF00F080027E3
:1003200006E000BF1E600137082F05F1040511D05B
:1003300009FA07F60E42F6D008FA05F324EA030399
:100340000CFA05F41C43282A5346EBD0482AEAD17C
:100350007346E7E70460B1F5807F38BFBDE8F087FA
:10036000436800F1100E00F1140900254FF4807A63
:100370004FF00F08002705E034600137082F05F122
:10038000040512D00AFA07F404EA0106A642F4D1E1
:1003900008FA05F6B3430CFA05F63343282A4E460D
:1003A000EAD0482AE9D17646E6E74360BDE8F0871F
:1003B0008068084018BF01207047000010B582B067
:1003C0000820012100F0D2F84FF2000040F610445E
:1003D000C1F20300C4F201040190A4F1100001A9CC
:1003E000FFF786FF4FF4805020604FF400502060EC
:1003F0004FF4804020604FF40040206002B010BDF8
:1004000080B500F037F83420C4F2000000210181EB
:1004100081810180818080BD50290A4628BF5022F9
:10042000042938BF0022022813D0012818BF7047C2
:1004300040F2CF7048F21F515043C5F2EB11A0FBC0
:1004400001013420C4F200000022490902818181A7
:10045000704740F2CF7048F21F515043C5F2EB1184
:10046000A0FB010148093421C4F2000108800020EA
:1004700088807047B0B588B00120012100F076F87F
:100480000420012100F072F80F20C1F60300009053
:1004900040F60000C4F201006946FFF729FF012081
:1004A000012100F04BF84F20059040F2CF700690EC
:1004B000002505A94FF080408DF81C5000F086FA09
:1004C0004FF080400121012200F09EF94FF0804062
:1004D000012100F07FF96020C0F20100019040F29C
:1004E000E73001ACCDF80A004FF080402146ADF86E
:1004F000105000F091F94FF08040214600F0C4F90F
:100500004FF08040214600F0F9F94FF0804021463D
:1005100000F02EFA4FF08040012100F05FF94FF01B
:100520008040012100F064F93420C4F2000005800D
:1005300085800581858108B0B0BD0000002941F2A9
:100540001C01C4F202010A680CBF22EA0000104339
:1005500008607047002941F21001C4F202010A68E4
:100560000CBF22EA0000104308607047002941F2E6
:100570001801C4F202010A680CBF22EA000010430D
:100580000860704741F20000C4F2020001680022D6
:1005900041F0010101604168CFF6FF021140416066
:1005A00001684FF6FF72CFF6F662114001600168F4
:1005B00021F480210160416821F4FE0141604FF483
:1005C0001F0181607047000041F20401C4F2020182
:1005D0000A6822F0F00210430860704741F20001FF
:1005E000C4F202010A68B0F5803F22F480320A604A
:1005F0000A6822F480220A6005D0B0F5802F18BF67
:1006000070474FF4A0200A6810430860704700004C
:100610000021C4F2422108607047000041F2040149
:10062000C4F202010A6822F4E062104308607047D5
:1006300041F20401C4F202010A6822F4605242EA63
:10064000C0000860704700006021C4F242210860C9
:100650007047000041F20402C4F20202136808432A
:1006600023F47C13184310607047000041F204012A
:10067000C4F202010A6822F00302104308607047C6
:1006800080B582B004200121FFF770FF40F2F01026
:10069000C4F60300019040F60000C4F2010001A975
:1006A000FFF726FE02B080BD80B5014640F600008F
:1006B000C4F20100FFF77CFE0138B0FA80F0400977
:1006C00080BD000082B041F20400C4F2020050F884
:1006D000041C002241F0010140F8041C0168CFF61F
:1006E000FF021140016050F8041C4FF6FF72CFF674
:1006F000F662114040F8041C50F8041C21F48021DB
:1007000040F8041C016821F4FE0101604FF41F0150
:10071000416000210191009150F8041C41F48031A6
:1007200040F8041C50F8041C01F4003100910199B8
:1007300001310191009919B90199B1F5A06FF1D179
:1007400050F8041C890354BF002101210091009935
:10075000012936D142F20001C4F202010A6842F0D6
:1007600010020A600A6822F007020A600A6842F072
:1007700002020A600168016001680160016841F4D9
:1007800080610160016821F47C110160016841F41D
:10079000E811016050F8041C41F0807140F8041C1D
:1007A00050F8041C8901FBD5016821F003010160A8
:1007B000016841F002010160016801F00C010829A3
:1007C000FAD14EF60850CEF200004FF00061016001
:1007D00002B07047C94301827047000002880029B7
:1007E00018BF012122F0010211440180704700006E
:1007F000B0F84420002918BF01216FF3DF3242EA2C
:10080000C131A0F844107047002A82890CBF22EA47
:100810000101114381817047B0B5028C22F00102C1
:100820000284038C8288B0F818C00C8923F002037C
:100830002343A0F180444D88A4F59634B1F800E03C
:100840004FEAB424072C43EA050313D8012505FA1F
:1008500004F414F0E50F0DD04C8923F00C0324F0C0
:1008600004048D8823438C892B4322F44072CD8964
:1008700022432A432CF0730545EA0E058280058346
:10088000C98881860384B0BDB0B5028C22F0100205
:100890000284038C8288B0F818E00C894D88B1F886
:1008A00000C02C4343F2004523F02003C4F20105AD
:1008B000A84243EA041305D042F60044C4F20104FE
:1008C000A04211D14C896FF0400523F0C00305EA26
:1008D00004148D88234343EA05138C89CD8922F4BF
:1008E00040622C4342EA84022EF4E64545EA0C2598
:1008F00082800583C98801870384B0BDB0B5028CAE
:1009000022F480720284038C8288B0F81CE00C8987
:100910004D88B1F800C02C4343F2004523F4007326
:10092000C4F20105A84243EA042305D042F600447C
:10093000C4F20104A04211D14C8940F2FF452402C7
:1009400023F44063AC438D88234343EA05238C8919
:10095000CD8922F440522C4342EA04122EF0730552
:1009600045EA0C0582808583C98881870384B0BDF0
:1009700070B5028C43F2004622F480520284038C4C
:100980008288B0F81CE0B1F800C00C894D88C4F230
:100990000106B04205D042F60046C4F20106B0425C
:1009A00004D18E8922F4804242EA86122EF4E64671
:1009B00046EA0C268280868323F400532C43C988A0
:1009C00043EA0432A0F84010028470BD40F6FF33C1
:1009D000B0F800C0C4F2000398420FDCB0F1804FC1
:1009E0001ED040F20043C4F20003984218D040F6F3
:1009F0000003C4F20003984212D016E040F6004310
:100A0000C4F2000398420BD043F20043C4F2010346
:100A1000984205D042F60043C4F20103984204D143
:100A20004B882CF0700243EA020C41F2004240F481
:100A30008063C4F20002934204D0CA882CF440734D
:100A400042EA030CA0F800C08A888285A0F18042A7
:100A5000A2F596320B884FEAB222072A038507D8FF
:100A6000012303FA02F212F0E50F1CBF097A018696
:100A70000121818270470000FFF7F8FBFFF79EFC21
:100A8000FFF7BEFCFFF7DEFBFFF7FAFD40F60008BC
:100A900040F2000940F2040A40F2080BC4F20108D7
:100AA000C2F20009C2F2000AC2F2000B07E0022003
:100AB0005021FFF7B1FC01202146FFF7ADFC80205B
:100AC000FFF7F2FD05464020FFF7EEFD0646202029
:100AD000FFF7EAFD07461020FFF7E6FD0446404613
:100AE0004FF48071FFF764FCF100013841EA051111
:100AF000B0FA80F041EA8701400941EA4401084424
:100B000003381B28DBD8DFE800F012111111111196
:100B1000111111111111211111111111111115249E
:100B2000111118110E2C9BF80040C0E7C7E799F887
:100B30000040BCE79BF800400DE001205021FFF78A
:100B40006BFC02205021FFF767FCB8E79AF80040E1
:100B500001E099F8004001205021FFF75DFC0220E0
:100B6000AAE79AF80040A2E7880B000800000020DE
:100B70001000000028010008980B00081000002059
:100B80006006000044010008100000002000000082
:080B900040000000000000001D
:04000005080000ED02
:00000001FF
