:020000040800F2
:10000000A80600206D0100087501000877010008AE
:10001000790100087B0100087D0100080000000054
:100020000000000000000000000000007F01000848
:10003000810100080000000083010008850100081C
:100040008701000887010008870100088701000870
:1000500087010008870100084102000887010008A5
:100060008701000887010008870100088701000850
:100070008701000887010008870100088701000840
:100080008701000887010008870100088701000830
:100090008701000887010008870100088701000820
:1000A0008701000887010008870100088701000810
:1000B0006110000887010008870100088701000817
:1000C00087010008870100088701000887010008F0
:1000D00087010008870100088701000887010008E0
:1000E00087010008870100088701000800F002F876
:1000F00000F02CF80AA090E8000C82448344AAF196
:100100000107DA4501D100F021F8AFF2090EBAE893
:100110000F0013F0010F18BFFB1A43F0010318473B
:100120004815000058150000002300240025002673
:10013000103A28BF78C1FBD8520728BF30C148BF4A
:100140000B6070471FB51FBD10B510BD00F036F82D
:100150001146FFF7F7FF01F039F800F054F803B447
:10016000FFF7F2FF03BC00F057F800000948804792
:1001700009480047FEE7FEE7FEE7FEE7FEE7FEE789
:10018000FEE7FEE7FEE7FEE704480549054A064BA1
:1001900070470000450F0008ED000008A80000208F
:1001A000A8060020A8020020A8020020704770477F
:1001B0007047000000487047000000207546FFF7B8
:1001C000F9FFAE4605006946534620F00700854614
:1001D00018B020B5FFF7D8FFBDE820404FF000066B
:1001E0004FF000074FF000084FF0000BAC46ACE8B2
:1001F000C009ACE8C009ACE8C009ACE8C00921F00E
:1002000007018D46704710B50446AFF300802046C5
:10021000BDE81040FFF7A3BF01491820ABBEFEE7C1
:100220002600020070470000B0B5044600F0D2FF7F
:10023000054600BF00F0CEFF401BA042FAD3B0BD80
:1002400040F21440C4F201000168C90708BF7047BA
:1002500041F20C01C4F201010A6882F400520A6002
:1002600040F27001C2F2000101220A700260704780
:100270002DE9F041CA7802F00F0CD30644BF8B7809
:100280004CEA030C09880B0621D0056800234FF0C7
:1002900001084FF00F0E002608E000BF282A08BF13
:1002A00047610136082E03F104030FD008FA06F760
:1002B0000F42F6D00EFA03F425EA04040CFA03F513
:1002C000482A45EA0405E9D10761EAE70560B1F586
:1002D000807F38BFBDE8F081446800234FF4807E02
:1002E0004FF00F08002607E0282A08BF47610136B3
:1002F000082E03F1040310D00EFA06F707EA0105F1
:10030000BD42F4D108FA03F5AC430CFA03F5482AD0
:1003100044EA0504E8D10761E9E74460BDE8F081FB
:1003200080B541F2180CC4F2020CDCF8000041F276
:10033000040140F01000CCF80000DCF80000C4F22A
:10034000010140F00400CCF80000DCF8000040F0AF
:100350000800CCF80000086820F0706008600868A9
:1003600040F04070086040F60000C4F201000368ED
:1003700023F0F0030360036843F03003036040F6AA
:100380000443C4F201031A6822F070621A601A680A
:1003900042F000621A601A6822F070421A601A680D
:1003A00042F000421A609A6842F440429A60C26881
:1003B00022F00202C2608A6822F480428A6053F806
:1003C000042C22F4702243F8042C53F8042C42F439
:1003D000002243F8042C9A6842F010029A60DCF87C
:1003E000002042F01502CCF80020026822F00F0233
:1003F0000260026842F008020260C26842F0010234
:10040000C2600A6822F470020A600A6842F480122C
:100410000A608A6842F400528A600821C4F201012D
:100420000A6822F00F020A600A680A60D1F8002404
:1004300042F00102C1F800244FF60C42CFF6FF72E1
:10044000835843F001038350D1F8F80340F00100D2
:10045000C1F8F80300F0AAFE00F098FE80BD00008D
:1004600041F21800C4F20200416841F48001416089
:10047000016841F00801016040F60440C4F2010047
:10048000016821F47F410160016841F43B41016052
:1004900045F60000C4F20000018841F400410180EB
:1004A00001886FF3DF31018024218180B4218183B1
:1004B000252101844FF48041018101210180704791
:1004C0002DE9F04F81B045F614072EA0C4F20007C5
:1004D00000F04AFE4DF6F00A41F2626920244FF026
:1004E000000BCFF6FF7A40F202450FF2BC08C0F6CF
:1004F000000900BFE0B2282808BF382400F090F8B7
:10050000E6B2700027F8040C504600BF3988294233
:1005100001D10130FAD3388880070BD400F08CF871
:10052000388820F4806038800520FFF77DFE0120A8
:1005300068B910E0B888404600F016FE304600F07A
:10054000FDFD484600F010FE0020A34618B101341E
:10055000E0B24028CED35FEA0B600DD119A000F0C5
:1005600003FE27204FF0270B00F0E8FD41F2626008
:10057000C0F6000000F0F8FD5FFA8BF001B0BDE8B6
:10058000F08F00BF5363616E6E696E67204932431E
:1005900032204C4344206164647265737365732E2A
:1005A0002E2E0D0A000000004C434420666F756E2D
:1005B0006420617420616464726573733A203078DA
:1005C000000000004C4344206E6F7420666F756E0F
:1005D000642C207573696E672064656661756C7440
:1005E00020616464726573733A2030780000000003
:1005F00081B045F61001C4F20001088088888007A8
:10060000FCD50889009001B07047000045F6100144
:10061000C4F20001088000BF88880006FCD570473E
:1006200045F60000C4F20000018841F480710180A9
:10063000818AC907FCD0704745F60000C4F200006B
:10064000018841F400710180704700000288002990
:1006500042F4806308BF22F4806303807047000087
:10066000828A008B60F3174202EA0100401AB0FA56
:1006700080F04009704700000288002942F0010321
:1006800008BF22F0010303807047000002880029A0
:1006900042F4807308BF22F4807303807047000027
:1006A0000288002942F4007308BF22F4007303801B
:1006B0007047000082B00022019200920090080F63
:1006C00001900198002821F07F40009906BF000C9E
:1006D00018311431009100990968084018BF0120B1
:1006E00002B0704770B586B0044680880D4620F091
:1006F0003F0601A800F072FB03994DF68360C4F237
:100700001B30A1FB000346EA9340A080208820F024
:10071000010020802A6848F2A060C0F201008242F5
:100720004FEA934008D85200B1FBF2F14FF6FC7249
:10073000114208BF042125E0EB884BF6FF76B34257
:1007400004D102EB4202B1FBF2F105E019235A4356
:10075000B1FBF2F141F480414FF49672504344F6FC
:10076000D352C1F26202A0FB020208466FF31F30AF
:10077000B0FA80F04009084348F20001CFF6FF715B
:100780000143900901302084A18320884FF6F53180
:1007900040F00100208020886A890840A988084329
:1007A00010432080A88929890843208106B070BDA4
:1007B000008AC0B27047000041F00103002A08BF60
:1007C00001F0FE03038270470182704780B501206B
:1007D00000F004F80A20FFF727FD80BDB0B582B015
:1007E00000F0F00100010A1D8DF80510011D083010
:1007F0004FF0FF3401AD8DF804208DF806108DF810
:10080000070000BF2819407800F07AF80134032C63
:10081000F8D102B0B0BD0000B0B582B000F0F00178
:10082000000101F10D0209318DF8051000F10D01F3
:1008300009304FF0FF3401AD8DF804208DF806101B
:100840008DF807002819407800F05AF80134032C7D
:10085000F8D102B0B0BD000010B5FFF731FE40F294
:100860007204C2F20004207020B919A000F07CFCD0
:10087000272020702078400020703320FFF7AEFF43
:100880000A20FFF7D1FC3220FFF7A8FF3220FFF744
:10089000CBFC2820FFF7A2FF3220FFF7C5FC012088
:1008A000FFF79CFF3220FFF7BFFC0620FFF796FF03
:1008B0003220FFF7B9FC0C20FFF790FF3220FFF742
:1008C000B3FC0220FFF78AFF3220FFF7ADFC10BD1A
:1008D0004C4344206E6F7420666F756E64210D0A60
:1008E0000000000010B50178002908BF10BD441EAB
:1008F000C8B2FFF791FFA17801340029F8D110BDEB
:1009000010B50446FFF78CFE40F27200C2F2000000
:100910000078FFF76DFE2046FFF778FEFFF78CFEAC
:1009200010BD00002DE9F04F85B040F20009CCF277
:1009300080194FF083464FF0C80B4FF0834A4F4663
:100940004FF083484C4600BF04A803A902AACDF883
:10095000049000F0D3F9DDF810902146484600F0ED
:100960003FFC04464846414600F04EFC039D80464D
:100970002846394600F034FC07462846514600F028
:1009800043FC029D01998246284600F029FC8146DD
:100990002846314600F038FC06460320FFF744FCA9
:1009A000BBF1010BD0D12046414600F041FC4FF095
:1009B0007C5100F00BFD40F29801C2F2000108608A
:1009C0003846514600F034FC4FF07C5100F0FEFCFC
:1009D00040F29C01C2F2000108604846314600F036
:1009E00027FC4FF07C5100F0F1FC0021CBF6807128
:1009F00000F01EFC40F2A001C2F20001086040F2CB
:100A00007100C2F200000121017003A000F0ACFBF4
:100A100005B0BDE8F08F00BF43616C69627261741C
:100A2000696F6E20636F6D706C6574650D0A0000F0
:100A30002DE9F04745F200461C4691460D4680469A
:100A4000C4F2000630464FF40031FFF733FE0028B1
:100A5000F8D140F2010A30460121C0F2030AFFF743
:100A600015FE00BF30465146FFF7FAFD0028F9D0C9
:100A70008227304641460022C0F20707FFF79CFE5E
:100A800030463946FFF7ECFD0028F9D0304649469C
:100A9000FFF79AFE023700BF30463946FFF7E0FD08
:100AA0000028F9D030460121FFF7F0FD30465146CD
:100AB000FFF7D6FD0028F9D0304641460122FFF766
:100AC0007BFE0AF1010700BF30463946FFF7C8FD3B
:100AD0000028F9D00AF13F07A0B2012802D048B996
:100AE00015E000BF30460021FFF7B0FD3046012180
:100AF000FFF7D6FD30463946FFF7B2FD0028F9D0A2
:100B00003046FFF755FE05F8010B013CE4E730469F
:100B10000121FFF79BFDBDE8F08700002DE9F041C2
:100B200045F20044164688460546C4F2000400BF5C
:100B300020464FF40031FFF7BDFD0028F8D12046D4
:100B40000121FFF7A3FD0127C0F203072046394624
:100B5000FFF786FD0028F9D0842720462946002289
:100B6000C0F20707FFF728FEBD1E00BF204629463A
:100B7000FFF776FD0028F9D020463146FFF724FE26
:100B800020463946FFF76CFD0028F9D098F8001090
:100B90002046FFF719FE00BF20463946FFF760FDEB
:100BA0000028F9D020460121FFF77AFDBDE8F08149
:100BB00010B586B04FF40010012100F0F7F80820BE
:100BC000012100F0FFF8C02045F20044C1F60340C7
:100BD000C4F20004019004F5384001A9FFF748FB76
:100BE0000020CBF6FF7003904FF0806004904FF42C
:100BF0008040ADF8140041F68020C0F2060002905B
:100C000002A92046FFF76EFD20460121FFF734FDC3
:100C100006B010BD70B582B040200DF107048DF80C
:100C20000700382021462B22FFF778FF0A200A25EB
:100C3000FFF7FAFA382021462A220123FFF7F8FEAF
:100C40009DF80700214600F0FE008DF807003820CF
:100C50002A22FFF763FF00208DF807003820214685
:100C60000E22FFF75BFF0426382021462D228DF847
:100C70000760FFF753FF382021462E228DF80760CA
:100C8000FFF74CFF10208DF80700382021462B225B
:100C9000FFF744FF05208DF8070038202146172272
:100CA000FFF73CFF3820214618228DF80750FFF748
:100CB00035FF20208DF80700382021461522FFF748
:100CC0002DFF11208DF80700382021462A22FFF73A
:100CD00025FF02A000F048FA02B070BD4D4D41382A
:100CE000343520636F6E66696775726174696F6E03
:100CF00020636F6D706C6574650D0A002DE9F0411D
:100D000082B090460D4606460DF1020138200122C0
:100D10000623FFF78DFEBDF80200BDF80410BDF8F4
:100D2000062000BA09BA00150F1511BA0C1500F00B
:100D300035FB4FF0665100F049FB3060384600F05B
:100D40002DFB4FF0665100F041FB2860204600F07B
:100D500025FB4FF0665100F039FB40F27101C2F201
:100D600000010978C8F8000001291CD140F2980060
:100D7000C2F200000168306800F0F4FB306040F21D
:100D80009C00C2F200000168286800F0EBFB2860BC
:100D900040F2A000C2F200000168D8F8000000F0A4
:100DA000E1FBC8F8000002B0BDE8F081002941F283
:100DB0001C01C4F202010A680CBF22EA00001043C1
:100DC00008607047002941F21801C4F202010A6864
:100DD0000CBF22EA000010430860704710B541F2D2
:100DE0000404C4F20204226802F00C02082A41F250
:100DF0000022C0F27A021CD12368D4F800C0C3F3E9
:100E0000834E5FEACC330EF1020C06D440F600129A
:100E1000C0F23D020CFB02F20BE023689B0302D4FC
:100E20000CFB02F205E040F60012C0F23D020CFBA2
:100E300002F20260226841F25263C2F30312C0F66A
:100E400000039A5C0168D14041602268C2F302222B
:100E50009A5C21FA02F282602268C2F3C2229A5C92
:100E600041F24E63D140C1602268C0F60003C2F374
:100E700081329A5CB1FBF2F1016110BD80B500F0E6
:100E800001F880BD82B041F204000021C4F20200EA
:100E90000191009150F8041C41F4803140F8041C89
:100EA00050F8041C01F400310091019901310191C5
:100EB000009919B90199B1F5A06FF1D150F8041C4E
:100EC000890354BF0021012100910099012936D1E5
:100ED00042F20001C4F202010A6842F010020A6004
:100EE0000A6822F007020A600A6842F002020A60F9
:100EF0000168016001680160016841F4806101607E
:100F0000016821F47C110160016841F4E81101607D
:100F100050F8041C41F0807140F8041C50F8041C87
:100F20008901FBD5016821F003010160016841F0EE
:100F300002010160016801F00C010829FAD102B038
:100F40007047000080B541F20000C4F20200016861
:100F5000002241F0010101604168CFF6FF0211401B
:100F6000416001684FF6FF72CFF6F66211400160F2
:100F7000016821F480210160416821F4FE01416093
:100F80004FF41F018160FFF779FF4EF60850CEF253
:100F900000004FF00061016080BD000080B500F0EE
:100FA00073F8FFF7BDF94FF4E13000F08DF84FF41E
:100FB000FA70FFF739F9FFF753FAFFF74DFCFFF727
:100FC00005FC1FA0FFF78EFC4FF47A70FFF72CF999
:100FD000FFF7EEFD0A20FFF727F9FFF71BFE0A20B7
:100FE000FFF722F9FFF79EFC17A000F0BDF840F2D2
:100FF00074004CF6CD43C2F2000000214FF07E5247
:10100000C3F64C53C0E900110172C0E90311C0E9F5
:101010000511C0E9072340F26000C2F20000416000
:1010200040F60C00C4F20100016821F002010160E9
:10103000D0F8001821F48041C0F8001880BD00BF2E
:101040004E616D206E6775004D4D41383435206915
:101050006E697469616C697A65640D0A000000004C
:101060001020C4F200000188C90708BF704701883A
:1010700021F00101018040F26C00C2F20000016821
:10108000013101607047000080B541F21C00C4F2DC
:101090000200016841F0010101600C20C4F200006F
:1010A0004721818340F2E7310184018841F0010149
:1010B00001804FF08040018841F00101018000F083
:1010C0007DF800F06BF880BD41F21801C4F2020116
:1010D0000A6844F204031A430A6040F60401C4F2A9
:1010E00001010A6822F0F0020A600A6842F0B002C8
:1010F0000A600A6822F470620A600A6842F4806238
:101100000A604AF20021C0F24A41B1FBF0F043F616
:101110000C01C4F2010121F8040C088842F22C02EF
:10112000104308807047000043F60001C4F201013B
:101130000A881206FCD588807047000010B5044666
:101140000009303037219F2C88BF01EB1410FFF7C6
:10115000EBFF04F00F0101F13000092988BF01F114
:101160003700FFF7E1FF10BD0178002908BF704785
:1011700043F60002C4F2010213881B06FCD5C9B273
:10118000918010F8011F0029F6D170474EF200102F
:10119000CEF2000040210160704700004EF20010C6
:1011A000CEF200004FF08051016070474EF20640D1
:1011B000CEF2000020210170704700004EF21C406A
:1011C000CEF200001021017070470000FFF7E6FE2C
:1011D000FEE7000040F26C00C2F2000000687047B9
:1011E00070B50C46054600F0AEF800F07040B0F166
:1011F000005F07D024F00040C0F1FF40C00F04BFE3
:10120000204670BD284670BD70B50C46054600F0FE
:101210009AF800F07040B0F1004F07D024F0004081
:10122000C0F1FF40C00F04BF204670BD284670BD0E
:1012300090EA010F48BF81F0004100F19A81421A03
:101240003CBF801A89184FEAD052A2EBD1534FF01D
:101250007F4C1CEA410F18BF9CEA026F00F03B80F4
:101260004FF0004C4CEA00204CEA012121FA03FC2B
:1012700010EB0C0C1ED202F1FF325FEA1C2040EB97
:10128000C25038BF70471CF07F0F4FEA400C18BFA8
:10129000BCF17F4F38BF7047C3F12003994008BFAE
:1012A00020F00100BCF17F4F38BF7047A0F1C04073
:1012B00000F053B94FEA3C00000A40EBC25028BF8F
:1012C0001CF0FF0F4FEA400CE6D018BFBCF17F4F77
:1012D00038BF7047EAE79CEA026F05D010EA5C0F5E
:1012E00008BF00F00040704710B500F0F0F800BFF4
:1012F00064FBBE3E50EA010C00F113801CF5000FA8
:1013000058BFBCF5000F01D48842704707D710F5CD
:10131000000F58BF11F5000F22D488427047894250
:1013200070471CF5000F04D5BCF5000FF7D58142BE
:1013300070474FF0807C1CEB400F38BF1CEB410F17
:101340000ED28142704710B5FFF7D4FFEFF3008053
:1013500020F0104038BF40F0004080F3008810BDFE
:10136000BDE8104010B500F0B2F800BF0000000961
:1013700000F007B84FF0404010F1004FEFF300804D
:101380007047401058BFC0F14040491058BFC1F1EC
:1013900040418142EFF300807047000010F00041AF
:1013A00048BF4042B0FA80F310FA03F2C3F19D0344
:1013B0000BD051EAC35101EB1220530638BF7047DE
:1013C00000F1010008BF20F0010070474FF47F0CCE
:1013D0001CEAD0121EBF1CEAD11392EA0C0F93EA4A
:1013E0000C0F00F0478090EA010F48BF42F4807272
:1013F0004FF0004C4CEA00204CEA012102EB0302C2
:10140000A0FB0113A2F50002002918BF43F001035D
:101410005B0028BF4FEA330342EB22425FEA132C02
:101420004CEBC2502EBFBCEB436FB2F57C0F704744
:101430004FEA036CBCF1004F08BF20F00100B2F589
:101440007C0F38BF70470BD582F0FF0212F5803F4A
:10145000C8BF704700F1C040D8BF00F000407047DF
:1014600000F5000C5FEA4C0C48BF7047B0F1C0407B
:1014700000F073B80CEAD11390EA010F48BF42F4B0
:101480008072624538BF634504D280EA010000F0F3
:101490000040704710B500F01AF800BF8900013E07
:1014A00000F007B800F009B85FEA410C5FEA1C6C75
:1014B00008D080EA010000F050B85FEA400C5FEA13
:1014C0001C6CF6D14FF00040A0F5800070470EF183
:1014D000020E2EF0030E5EF8044B244204D44FEAB1
:1014E0004102B2F17F4F11D84FEA4003B3F17F4F71
:1014F0000CD80ED14FEAD07C0CEB4C0C0CF1020C4A
:10150000B2F17F4F08BF4CEBD17C04E04FF0080CE8
:1015100001E04FEAD17C0CEB4C0324FA03F404F015
:101520000704B4F1040C06D20EEB840CBDE81040A5
:101530004CF0010C6047DFE80CF0070802024FF0A6
:101540000040A0F5800010BD0846420018BFD2F14F
:10155000807288BF00F0004010BDFF2141EAD050EA
:10156000C005704790EA010F48BF81F000413FF588
:1015700066AE421A04D882F00042A0EB0200114489
:101580004FEAD052A2EBD1534FF07F4C1CEA410FEF
:1015900018BF9CEA026F4AD04FF0004C4CEA002082
:1015A0004CEA012121FA03FCB0EB0C0C0FD412F031
:1015B000FE0F36D05FEA4C001DD5001240EBC25042
:1015C00038BF70471CF03F0F18BF70470BE05FEA51
:1015D0001C20A2F1010240EBC25038BF70471CF042
:1015E0007F0F18BF7047C3F12003994014BF401EFE
:1015F00020F0010070474FEA1223800808BF7047AF
:10160000B0FA80FCA2EB0C02CCF1280C60FA0CF0D2
:1016100093EA122F04BF00EBC25070474FEAC37029
:101620007047130A5FEADC1008BF7047F6E79CEAD0
:10163000026F04D010EA5C0F08BF0020704710B59D
:10164000FFF745FF40DFF63E81F00040704702049F
:10165000060800000000010203040102030406075B
:1016600008090D0A0000000078160008000000209C
:08167000A80600002801000893
:04000005080000ED02
:00000001FF
