:020000040800F2
:10000000680600208901000891010008930100089A
:100010009501000897010008990100080000000000
:100020000000000000000000000000009B0100082C
:100030009D010008000000009F010008A1010008C8
:10004000A3010008A3010008A3010008A301000800
:10005000A3010008A3010008A3010008A3010008F0
:10006000A3010008A3010008A3010008A3010008E0
:10007000A3010008A3010008A3010008A3010008D0
:10008000A3010008A3010008A3010008A3010008C0
:10009000A3010008A3010008A3010008A3010008B0
:1000A000A3010008A3010008A3010008A3010008A0
:1000B00009050008A3010008A3010008A301000826
:1000C000A3010008A3010008A3010008A301000880
:1000D000A3010008A3010008A3010008A301000870
:1000E000A3010008A3010008A301000800F002F822
:1000F00000F03AF80AA090E8000C82448344AAF188
:100100000107DA4501D100F02FF8AFF2090EBAE885
:100110000F0013F0010F18BFFB1A43F0010318473B
:10012000B8040000D8040000103A24BF78C878C191
:10013000FAD8520724BF30C830C144BF04680C60ED
:10014000704700000023002400250026103A28BF35
:1001500078C1FBD8520728BF30C148BF0B60704739
:100160001FB51FBD10B510BD00F031F81146FFF7E7
:10017000F7FF00F019FA00F04FF803B4FFF7F2FFB1
:1001800003BC00F057F800000948804709480047C1
:10019000FEE7FEE7FEE7FEE7FEE7FEE7FEE7FEE737
:1001A000FEE7FEE704480549054A064B7047000094
:1001B000A9040008ED00000868000020680600207F
:1001C000680200206802002070477047704775463B
:1001D00000F02CF8AE4605006946534620F00700B3
:1001E000854618B020B5FFF7DDFFBDE820404FF091
:1001F00000064FF000074FF000084FF0000B21F011
:100200000701AC46ACE8C009ACE8C009ACE8C009DD
:10021000ACE8C0098D46704710B50446AFF30080C6
:100220002046BDE81040FFF7A8BF00000048704717
:100230000400002001491820ABBEFEE726000200A2
:10024000704700B5014600F0C1F9024600BF00F05A
:10025000BDF9801A8842FAD300BD000008B501211B
:10026000142000F09DF810208DF8030042F2FD00EC
:10027000ADF8000003208DF802006946014800F047
:1002800003F808BD001001402DE9F04102460025A9
:100290000026002000230024002791F803C00CF062
:1002A0000F0591F803C00CF0100CBCF1000F03D047
:1002B00091F802C04CEA050591F800C0BCF1000FAE
:1002C00031D0146800202BE04FF0010C0CFA00F341
:1002D000B1F800C00CEA03069E4220D183004FF023
:1002E0000F0C0CFA03F7BC4305FA03FC4CEA0404B8
:1002F00091F803C0BCF1280F06D14FF0010C0CFAA5
:1003000000FCC2F814C00AE091F803C0BCF1480F29
:1003100005D14FF0010C0CFA00FCC2F810C0401CD3
:100320000828D1D31460B1F800C0BCF1FF0F34DD50
:10033000546800202EE000F1080C4FF0010808FA84
:100340000CF3B1F800C00CEA03069E4221D18300F1
:100350004FF00F0C0CFA03F7BC4305FA03FC4CEA10
:10036000040491F803C0BCF1280F05D100F1080C7A
:1003700008FA0CF8C2F8148091F803C0BCF1480FD9
:1003800007D100F1080C4FF0010808FA0CF8C2F888
:100390001080401C0828CED35460BDE8F0810000D6
:1003A00029B1064A92690243044B9A6104E0034A68
:1003B00092698243014B9A6170470000001002402D
:1003C00010B500F001F810BD0CB5002001900090B0
:1003D0003348006840F480303149086000BF30483D
:1003E000006800F4003000900198401C01900098D3
:1003F00018B90198B0F5A06FF1D12948006800F450
:10040000003010B10120009001E000200090009821
:10041000012843D12348006840F0100021490860BA
:100420000846006820F0070008600846006840F0B1
:10043000020008601A484068194948600846406848
:1004400048600846406840F480604860084640685C
:1004500020F47C1048600846406840F4E81048608A
:100460000846006840F08070086000BF0C480068D3
:1004700000F000700028F9D00948406820F003001F
:10048000074948600846406840F00200486000BFE5
:100490000348406800F00C000828F9D10CBD0000AA
:1004A000001002400020024010B51348006840F0E0
:1004B00001001149086008464068104908400E498B
:1004C0004860084600680E4908400B490860084625
:1004D000006820F4802008600846406820F4FE0090
:1004E00048604FF41F008860FFF76AFF4FF000601C
:1004F0000449086010BD0000001002400000FFF831
:10050000FFFFF6FE08ED00E04FF08040008A00F0AB
:10051000010060B14FF08040008A20F001004FF0F0
:100520008041088202480068401C01490860704709
:100530000000002010B51948C06940F001001749BB
:10054000C86147208904088540F2E730888508465D
:10055000808940F0010088810846008840F0010051
:1005600008801C200121002807DA0A07140E0C4A13
:1005700000F00F031B1FD45403E00A07130E094AAF
:10058000135400BF1C20012181404209920002F156
:10059000E022C2F8001100BF10BD000000100240B0
:1005A00018ED00E000E400E0FFF758FEFFF7C2FF9F
:1005B00009E00548C06880F400500349C8604FF462
:1005C0007A70FFF73EFEF4E7001001400148006832
:1005D0007047000000000020F8050008000000201F
:1005E0000400000028010008FC05000804000020A9
:0C05F00064060000440100080000000048
:040000050800018965
:00000001FF
