:020000040800F2
:10000000680600206D0100087501000877010008EE
:10001000790100087B0100087D0100080000000054
:100020000000000000000000000000007F01000848
:10003000810100080000000083010008850100081C
:100040008701000887010008870100088701000870
:100050008701000887010008870100088701000860
:100060008701000887010008870100088701000850
:100070008701000887010008870100088701000840
:100080008701000887010008870100088701000830
:100090008701000887010008870100088701000820
:1000A0008701000887010008870100088701000810
:1000B000750A000887010008870100088701000809
:1000C00087010008870100088701000887010008F0
:1000D00087010008870100088701000887010008E0
:1000E00087010008870100088701000800F002F876
:1000F00000F02CF80AA090E8000C82448344AAF196
:100100000107DA4501D100F021F8AFF2090EBAE893
:100110000F0013F0010F18BFFB1A43F0010318473B
:10012000340C0000440C00000023002400250026AD
:10013000103A28BF78C1FBD8520728BF30C148BF4A
:100140000B6070471FB51FBD10B510BD00F031F832
:100150001146FFF7F7FF00F073FD00F04FF803B40E
:10016000FFF7F2FF03BC00F057F800000948804792
:1001700009480047FEE7FEE7FEE7FEE7FEE7FEE789
:10018000FEE7FEE7FEE7FEE704480549054A064BA1
:10019000704700001D0A0008ED00000868000020FC
:1001A000680600206802002068020020704770473F
:1001B0007047754600F02CF8AE4605006946534678
:1001C00020F00700854618B020B5FFF7DDFFBDE839
:1001D00020404FF000064FF000074FF000084FF0AE
:1001E000000BAC46ACE8C009ACE8C009ACE8C009FB
:1001F000ACE8C00921F007018D46704710B50446F0
:10020000AFF300802046BDE81040FFF7A8BF000014
:10021000004870470000002001491820ABBEFEE7EF
:100220002600020070470000B0B582B01020012106
:1002300000F084FB0820012100F080FB42F2000066
:1002400040F60044C1F20300C4F2010401AD019084
:1002500004F58060294600F031F941F20000C1F256
:10026000034001902046294600F028F902B0B0BDB5
:10027000F0B583B040F60044C4F2010420464FF4C8
:10028000805100F079F9142000F00CF920464FF469
:10029000805100F073F94FF08040002100F000FC25
:1002A0004FF0804000F0FAFB092806D820464FF4B2
:1002B000805100F05BF90028F2D04FF0804000211F
:1002C00000F0EEFB4FF0804000F0E8FB2C2806D851
:1002D00020464FF4805100F049F90028F2D14FF048
:1002E0008040002100F0DCFB4FF0804000F0D6FBA6
:1002F000592806D820464FF4805100F037F90028DD
:10030000F2D04FF08040002100F0CAFB4FF0804057
:1003100000F0C4FB5F2806D220464FF4805100F065
:1003200025F90028F2D10DF10700441E052500BF74
:1003300000F076F8013D04F8010FF9D19DF807406F
:100340009DF808009DF809509DF80A1020442844A3
:100350000844C7B20020002100F0D2FA1EA000F02D
:10036000C1FA284600F08EFA0820002100F0C8FAF1
:1003700040F64F56C0F60006304600F0B3FA0020B3
:10038000012100F0BDFA16A000F0ACFA204600F002
:1003900079FA0820012100F0B3FA304600F0A2FA01
:1003A00011A000F02BFC284600F0ECFB12A000F09E
:1003B00025FC12A000F022FC204600F0E3FB12A076
:1003C00000F01CFC9DF80B00874202D00FA000F04B
:1003D00015FC03B0F0BD00BF54656D703A200000FD
:1003E00048756D693A20000054656D7065726174DE
:1003F0007572653A200000002A430A0048756D694D
:10040000646974793A200000250A00004368656336
:100410006B73756D204552524F52210A0000000047
:1004200070B540F600440025C4F2010400260EE039
:100430004FF0804000F032FB2D284FF0000005F116
:10044000010588BF0120082D40EA460628D04FF05C
:100450008040002100F024FB4FF0804000F01EFBA4
:10046000402806D820464FF4805100F07FF800283D
:10047000F2D04FF0804000F011FB4FF0804000219F
:1004800000F00EFB4FF0804000F008FB4F28CFD863
:1004900020464FF4805100F069F80028F2D1C7E7F8
:1004A000F0B270BDB0B5044600F04AFC054600BF8E
:1004B00000F046FC401BA042FAD3B0BD2DE9F0414C
:1004C000CA7802F00F0CD30644BF8B784CEA030CB9
:1004D00009880B0621D0056800234FF001084FF072
:1004E0000F0E002608E000BF282A08BF476101362A
:1004F000082E03F104030FD008FA06F70F42F6D0D6
:100500000EFA03F425EA04040CFA03F5482A45EA36
:100510000405E9D10761EAE70560B1F5807F38BFDE
:10052000BDE8F081446800234FF4807E4FF00F084F
:10053000002607E0282A08BF47610136082E03F18C
:10054000040310D00EFA06F707EA0105BD42F4D104
:1005500008FA03F5AC430CFA03F5482A44EA05040B
:10056000E8D10761E9E74460BDE8F08180680840B0
:1005700018BF01207047000041617047016170475A
:1005800041F21800C4F20200416841F48001416068
:10059000016841F00801016040F60440C4F2010026
:1005A000016821F47F410160016841F43B41016031
:1005B00045F60000C4F20000018841F400410180CA
:1005C00001886FF3DF31018024218180B421818390
:1005D000252101844FF48041018101210180704770
:1005E0002DE9F04F81B045F614072EA0C4F20007A4
:1005F00000F004FB4DF6F00A40F64C5920244FF071
:10060000000BCFF6FF7A40F202450FF2BC08C0F6AD
:10061000000900BFE0B2282808BF382400F090F895
:10062000E6B2700027F8040C504600BF3988294212
:1006300001D10130FAD3388880070BD400F08CF850
:10064000388820F4806038800520FFF72BFF0120D8
:1006500068B910E0B888404600F0D0FA304600F0A3
:100660007BFA484600F0CAFA0020A34618B10134CC
:10067000E0B24028CED35FEA0B600DD119A000F0A4
:10068000BDFA27204FF0270B00F066FA40F64C50D9
:10069000C0F6000000F0B2FA5FFA8BF001B0BDE8DE
:1006A000F08F00BF5363616E6E696E6720493243FD
:1006B00032204C4344206164647265737365732E09
:1006C0002E2E0D0A000000004C434420666F756E0C
:1006D0006420617420616464726573733A203078B9
:1006E000000000004C4344206E6F7420666F756EEE
:1006F000642C207573696E672064656661756C741F
:1007000020616464726573733A20307800000000E1
:1007100081B045F61001C4F2000108808888800786
:10072000FCD50889009001B07047000045F6100123
:10073000C4F20001088000BF88880006FCD570471D
:1007400045F60000C4F20000018841F48071018088
:10075000818AC907FCD0704745F60000C4F200004A
:10076000018841F4007101807047000080B50120CC
:1007700000F004F80A20FFF795FE80BDB0B582B006
:1007800000F0F00100010A1D8DF80510011D083070
:100790004FF0FF3401AD8DF804208DF806108DF870
:1007A000070000BF2819407800F0B6F80134032C88
:1007B000F8D102B0B0BD0000B0B582B000F0F001D9
:1007C000000101F10D0209318DF8051000F10D0154
:1007D00009304FF0FF3401AD8DF804208DF806107C
:1007E0008DF807002819407800F096F80134032CA2
:1007F000F8D102B0B0BD000010B5FFF7F1FE40F235
:100800006404C2F20004207020B919A000F0F6F9C7
:10081000272020702078400020703320FFF7AEFFA3
:100820000A20FFF73FFE3220FFF7A8FF3220FFF734
:1008300039FE2820FFF7A2FF3220FFF733FE012008
:10084000FFF79CFF3220FFF72DFE0620FFF796FFF3
:100850003220FFF727FE0C20FFF790FF3220FFF732
:1008600021FE0220FFF78AFF3220FFF71BFE10BD9A
:100870004C4344206E6F7420666F756E64210D0AC0
:100880000000000070B584B038B34CF6CD420023B0
:10089000CCF6CC42EC4600BF84B2A4FB0251C9089E
:1008A00001EB8105A0EB450040F030005D1CDBB2A0
:1008B0000CF80300092C2B460846EDD828060AD070
:1008C000ECB2ACF1010500BF285D661EFFF774FFB6
:1008D000012C3446F8DC04B070BD3020FFF76CFF0B
:1008E00004B070BD10B50178002908BF10BD441ECA
:1008F000C8B2FFF761FFA17801340029F8D110BD1B
:1009000080B5A0F14002002908BF80F08002D0B27B
:10091000FFF734FF80BD000010B50446FFF710FF5D
:1009200040F26400C2F200000078FFF7F1FE2046BA
:10093000FFF7FCFEFFF710FF10BD0000002941F299
:100940001801C4F202010A680CBF22EA0000104339
:100950000860704780B500F001F880BD82B041F2B8
:1009600004000021C4F202000191009150F8041C1F
:1009700041F4803140F8041C50F8041C01F40031AB
:100980000091019901310191009919B90199B1F5CD
:10099000A06FF1D150F8041C890354BF002101213C
:1009A00000910099012936D142F20001C4F20201FE
:1009B0000A6842F010020A600A6822F007020A6020
:1009C0000A6842F002020A60016801600168016081
:1009D000016841F480610160016821F47C110160CB
:1009E000016841F4E811016050F8041C41F0807185
:1009F00040F8041C50F8041C8901FBD5016821F063
:100A000003010160016841F002010160016801F029
:100A10000C010829FAD102B07047000080B541F2FC
:100A20000000C4F202000168002241F001010160EF
:100A30004168CFF6FF021140416001684FF6FF7236
:100A4000CFF6F66211400160016821F48021016057
:100A5000416821F4FE0141604FF41F018160FFF7FE
:100A600079FF4EF60850CEF200004FF000610160B1
:100A700080BD00001020C4F200000188C90708BF33
:100A80007047018821F00101018040F26000C2F24C
:100A9000000001680131016070470000808C7047E0
:100AA0008184704780B541F21C00C4F202000168E5
:100AB00041F0010101600C20C4F200004721818354
:100AC00040F2E7310184018841F0010101804FF0DB
:100AD0008040018841F00101018000F0A9F800F098
:100AE0009FF880BD41F21801C4F202010A6844F285
:100AF00004031A430A6040F60401C4F201010A68C3
:100B000022F0F0020A600A6842F0B0020A600A6845
:100B100022F470620A600A6842F480620A604AF253
:100B20000021C0F24A41B1FBF0F043F60C01C4F2DF
:100B3000010121F8040C088842F22C0210430880BD
:100B40007047000043F60001C4F201010A88120652
:100B5000FCD588807047000010B50446000930308D
:100B600037219F2C88BF01EB1410FFF7EBFF04F037
:100B70000F0101F13000092988BF01F13700FFF7AB
:100B8000E1FF10BD70B584B00646B0F1FF3F2ADD2D
:100B900030042ED046F267610022C6F266610DF184
:100BA000060000BF33B283FB0135AB1003EBD574F5
:100BB00004EB8403A6EB430303F13006531CD2B2CB
:100BC0008654220426461A46ECD1190609D0DCB216
:100BD000451E00BF285D661EFFF7B4FF012C34469A
:100BE000F8DC04B070BD2D20FFF7ACFF7642300476
:100BF000D0D13020FFF7A6FF04B070BD01780029E6
:100C000008BF704743F60002C4F2010213881B06B6
:100C1000FCD5C9B2918010F8011F0029F6D17047A8
:100C20004EF20010CEF200004FF08051016070478C
:100C30004EF21C40CEF200001021017070470000FF
:100C4000B0B54FF41650FFF74DFF1EA0FFF7D6FFCB
:100C5000FFF728FFFFF794FCFFF7E6FAFFF7C0FC69
:100C600040F26401C2F20001087028B341F20C04A2
:100C7000C4F20104FFF7C0FDFFF778FD002000215A
:100C80000025FFF73DFE18A0FFF72CFE1AA0FFF786
:100C9000B5FFFFF76BFD00BFFFF7EAFA206880F4AD
:100CA000005020604FF47A70FFF7FCFB642D05F1D3
:100CB0000105F1D30020B0BD17A0FFF79FFF00BFD3
:100CC000FEE700BF5374617274696E672049324356
:100CD000204C434420416464726573732053636104
:100CE0006E2E2E2E0D0A0000493243204C43442024
:100CF000466F756E642100004C434420496E697450
:100D000069616C697A6174696F6E20436F6D706C94
:100D100065746564210D0A004E6F204C43442064C5
:100D2000657465637465642E20436865636B206336
:100D30006F6E6E656374696F6E732E0D0A0000002E
:100D400040F26000C2F20000006870470D0A002007
:100D500000000000640D000800000020680600008C
:040D6000280100085E
:04000005080000ED02
:00000001FF
