:020000040800F2
:10000000B80700206D01000875010008770100089D
:10001000790100087B0100087D0100080000000054
:100020000000000000000000000000007F01000848
:10003000810100080000000083010008850100081C
:100040008701000887010008870100088701000870
:100050008701000887010008870100088701000860
:100060008701000887010008870100088701000850
:100070008701000887010008870100088701000840
:100080008701000887010008870100088701000830
:100090008701000887010008870100088701000820
:1000A0008701000887010008870100088701000810
:1000B000B50A0008870100088701000887010008C9
:1000C00087010008870100088701000887010008F0
:1000D00087010008850B0008050D0008870100084E
:1000E00087010008870100088701000800F002F876
:1000F00000F02CF80AA090E8000C82448344AAF196
:100100000107DA4501D100F021F8AFF2090EBAE893
:100110000F0013F0010F18BFFB1A43F0010318473B
:10012000401100005011000000230024002500268B
:10013000103A28BF78C1FBD8520728BF30C148BF4A
:100140000B6070471FB51FBD10B510BD00F0E5F87E
:100150001146FFF7F7FF00F03BFF00F003F903B48F
:10016000FFF7F2FF03BC00F00BF9000009488047DD
:1001700009480047FEE7FEE7FEE7FEE7FEE7FEE789
:10018000FEE7FEE7FEE7FEE704480549054A064BA1
:10019000704700005D0A0008ED000008B80100206B
:1001A000B8070020B8030020B803002030B505468A
:1001B0000B462A4613F8014B12F8010B08B1A04276
:1001C000F8D01CB1002802D06D1CF1E7284630BDE4
:1001D00010B5431C02E010F8011B71B18107FAD180
:1001E0004FF0013202C88C1A8C4314EAC211F9D0C4
:1001F000C01A0A0603D0C01E10BDC01A10BD0A04E2
:1002000001D0801E10BD0902FCD0401E10BD421E50
:1002100012F8013F002BFBD111F8013B002B02F833
:10022000013BF9D17047032A40F2308010F0030CF3
:1002300000F0158011F8013BBCF1020F624498BF39
:1002400011F801CB00F8013B38BF11F8013BA2F1D6
:10025000040298BF00F801CB38BF00F8013B11F051
:10026000030300F02880083AC0F0088051F8043BEE
:10027000083A51F804CBA0E80810F5E7121D5CBF5E
:1002800051F8043B40F8043BAFF30080D20724BF91
:1002900011F8013B11F801CB48BF11F8012B24BF25
:1002A00000F8013B00F801CB48BF00F8012B704774
:1002B00070477047704710B5203AC0F00B80B1E826
:1002C0001850A0E81850B1E81850A0E81850203A8B
:1002D000BFF4F5AF5FEA027C24BFB1E81850A0E894
:1002E000185044BF18C918C0BDE810405FEA827CAE
:1002F00024BF51F8043B40F8043B08BF7047D207C5
:1003000028BF31F8023B48BF11F8012B28BF20F865
:10031000023B48BF00F8012B7047754600F02CF8EF
:10032000AE4605006946534620F00700854618B0E2
:1003300020B5FFF729FFBDE820404FF000064FF041
:1003400000074FF000084FF0000BAC46ACE8C009C6
:10035000ACE8C009ACE8C009ACE8C00921F007016D
:100360008D46704710B50446AFF300802046BDE8C7
:100370001040FFF7F4BE0000004870470000002066
:1003800001491820ABBEFEE72600020070470000BE
:10039000B0B582B01020012100F0A0FA08200121A0
:1003A00000F09CFA42F2000040F60044C1F2030063
:1003B000C4F2010401AD019004F58060294600F00B
:1003C00045F941F20000C1F2034001902046294660
:1003D00000F03CF920464FF4805100F097F902B04C
:1003E000B0BD000070B582B040F60044C4F2010414
:1003F00000208DF80400009020464FF4805100F05A
:1004000083F9142000F0E2F820464FF4805100F008
:100410007DF94FF08040002100F062FB4FF08040FA
:1004200000F05CFB272806D820464FF4805100F0EE
:1004300065F90028F2D04FF08040002100F050FB19
:100440004FF0804000F04AFB5E2806D820464FF46B
:10045000805100F053F90028F2D14FF08040002184
:1004600000F03EFB4FF0804000F038FB5E2806D8DD
:1004700020464FF4805100F041F90028F2D04FF0AF
:100480008040002100F02CFB4FF0804000F026FB64
:100490005F2806D220464FF4805100F02FF9002843
:1004A000F2D16846441E052500F052F8013D04F8DB
:1004B000010FF9D19DF800009DF801109DF8022070
:1004C0009DF80330014440F22E16114440F23015DD
:1004D000C2F200061944C2F2000530800DA0CCB271
:1004E0002A8000F0CBF9B5F9000000F091FB0DA0D7
:1004F00000F0C4F9B6F9000000F08AFB0DA000F08E
:10050000D7F99DF80400844202D00BA000F0D0F986
:1005100002B070BD54656D70657261747572653A34
:10052000200000002A43207C2048756D69646974AE
:10053000793A2000250000004448543131204368B6
:1005400065636B73756D204552524F522100000058
:1005500070B540F600440025C4F2010400260EE008
:100560004FF0804000F0BAFA2D284FF0000005F15E
:10057000010588BF0120082D40EA460624D04FF02F
:100580008040002100F0ACFA4FF0804000F0A6FA65
:10059000402806D820464FF4805100F0AFF80028DC
:1005A000F2D04FF08040002100F09AFA4FF08040E6
:1005B00000F094FA4F28D3D820464FF4805100F031
:1005C0009DF80028F2D1CBE7F0B270BDB0B504467B
:1005D00000F0F6FD054600BF00F0F2FD401BA04212
:1005E000FAD3B0BD70B582B004200121042600F01A
:1005F00075F940F2002040F60004C1F60300C4F291
:10060000010401AD01902046294600F01FF84FF487
:100610008060ADF80400204629468DF8076000F0A0
:1006200015F818208DF8070020462946ADF804601B
:1006300000F00CF80820ADF80400204629468DF89B
:10064000076000F003F802B070BD00002DE9F04132
:10065000CA7802F00F0CD30644BF8B784CEA030C27
:1006600009880B0621D0056800234FF001084FF0E0
:100670000F0E002608E000BF282A08BF4761013698
:10068000082E03F104030FD008FA06F70F42F6D044
:100690000EFA03F425EA04040CFA03F5482A45EAA5
:1006A0000405E9D10761EAE70560B1F5807F38BF4D
:1006B000BDE8F081446800234FF4807E4FF00F08BE
:1006C000002607E0282A08BF47610136082E03F1FB
:1006D000040310D00EFA06F707EA0105BD42F4D173
:1006E00008FA03F5AC430CFA03F5482A44EA05047A
:1006F000E8D10761E9E74460BDE8F081806808401F
:1007000018BF0120704700004161704701617047C8
:1007100010B50446AA2020706170E01C11461A46EC
:10072000A370FFF780FD204600F006F884F8430030
:10073000552084F8440010BD417882785140C9B2F8
:1007400032B1023010F8013F013A81EA0301F9D1D8
:10075000C8B27047B0B540F26405C2F2000529780E
:10076000002441B140F2E801C2F200014522FFF746
:100770005AFD2C7001242046B0BD000070B544F233
:1007800000440546C4F200042046802100F022FB0C
:100790000028F9D02978204600F0B6FB20468021B9
:1007A00000F018FB0028F9D06978204600F0ACFB77
:1007B0002046802100F00EFB0028F9D0A9782046C1
:1007C00000F0A2FBA87888B1002600BF2046802157
:1007D00000F000FB0028F9D0A819C178204600F0ED
:1007E00093FBA87801368642F0D300BF20468021D3
:1007F00000F0F0FA0028F9D095F84310204600F0F8
:1008000083FB00BF2046802100F0E4FA0028F9D0E5
:1008100095F84410204600F077FB70BD10B5C17804
:1008200000294EF20011CEF200011AD04EF60C5201
:10083000CEF200021268072323EA12220F23C2F12C
:10084000040C23FA02F24378847890F800E003FA6B
:100850000CF322401A43120101EB0E0383F800232C
:1008600000E080310078012300F01F0203FA02F259
:10087000C0F3421041F8202010BD0000B0B504467E
:100880000078002808BFB0BD43F60005C4F201059A
:100890002846802100F09EFA0028F9D021782846C9
:1008A00000F032FB14F8010F0028F1D1B0BD0000B8
:1008B00080B5FFF7E3FF02A0FFF7E0FF80BD00BFB8
:1008C0000D0A0000002941F21C01C4F202010A686D
:1008D0000CBF22EA0000104308607047002941F273
:1008E0001801C4F202010A680CBF22EA000010439A
:1008F0000860704710B541F20404C4F20204226893
:1009000002F00C02082A41F20022C0F27A021CD145
:100910002368D4F800C0C3F3834E5FEACC330EF1F2
:10092000020C06D440F60012C0F23D020CFB02F2AB
:100930000BE023689B0302D40CFB02F205E040F6B7
:100940000012C0F23D020CFB02F20260226841F28A
:100950001423C2F30312C0F600039A5C0168D1406D
:1009600041602268C2F302229A5C21FA02F282609C
:100970002268C2F3C2229A5C41F21023D140C160C6
:100980002268C0F60003C2F381329A5CB1FBF2F137
:10099000016110BD80B500F001F880BD82B041F268
:1009A00004000021C4F202000191009150F8041CDF
:1009B00041F4803140F8041C50F8041C01F400316B
:1009C0000091019901310191009919B90199B1F58D
:1009D000A06FF1D150F8041C890354BF00210121FC
:1009E00000910099012936D142F20001C4F20201BE
:1009F0000A6842F010020A600A6822F007020A60E0
:100A00000A6842F002020A60016801600168016040
:100A1000016841F480610160016821F47C1101608A
:100A2000016841F4E811016050F8041C41F0807144
:100A300040F8041C50F8041C8901FBD5016821F022
:100A400003010160016841F002010160016801F0E9
:100A50000C010829FAD102B07047000080B541F2BC
:100A60000000C4F202000168002241F001010160AF
:100A70004168CFF6FF021140416001684FF6FF72F6
:100A8000CFF6F66211400160016821F48021016017
:100A9000416821F4FE0141604FF41F018160FFF7BE
:100AA00079FF4EF60850CEF200004FF00061016071
:100AB00080BD00001020C4F200000188C90708BFF3
:100AC0007047018821F00101018040F26000C2F20C
:100AD000000001680131016070470000808C7047A0
:100AE0008184704780B541F21C00C4F202000168A5
:100AF00041F0010101600C20C4F200004721818314
:100B000040F2E731018400210183018841F00101B5
:100B100001804FF08040018841F00101018000F028
:100B2000FFF900F0F5F980BD10B586B04FF48040B4
:100B30000121FFF7D3FE4FF4E13043F600040290A9
:100B400000204FF44021C4F2010403900491ADF859
:100B5000140002A9204600F079F9204640F2255100
:100B6000012200F05BF940F22510C0F20010019064
:100B700001A8FFF753FE2046012100F021F906B03D
:100B800010BD000070B543F60005C4F2010528460B
:100B900040F2255100F024F9C0B3284600F0B0F926
:100BA000044600BF2846802100F014F90028F9D03F
:100BB000E6B22846314600F0A7F90D2E01D00A2EE4
:100BC00014D140F2B310C2F200000178F1B1017803
:100BD00040F23312C2F2000200235354037040F279
:100BE0003210C2F200000121017070BD40F2B3105A
:100BF000C2F2000001787E2988BF70BD01784A1CCE
:100C0000027040F23310C2F20000445470BD000084
:100C100010B584B020B30446B0F1FF3F03DC21A03F
:100C2000FFF72CFE644220B201281BDB46F2676C02
:100C30000023C6F2666C694622B282FB0C20821049
:100C400002EBD07000EB8002A4EB420202F1300410
:100C50005A1CDBB2CC5404B2002C1346ECDC02E08C
:100C600011A01AE00022501E43B2002B4FF0000CDE
:100C70000FD4D2B202A86C46013852421C44002361
:100C8000E15C013B9A4200F8011FF9D15842C2B21F
:100C900000E0002202A800F802C0FFF7EFFD04B058
:100CA00010BD00BF2D0000003000000010B586B060
:100CB0004FF400300121FFF705FE4FF4E13044F21C
:100CC0000044029000204FF44021C4F2000403903D
:100CD0000491ADF8140002A9204600F0B7F82046B0
:100CE00040F22551012200F099F82620C0F20010B0
:100CF000019001A8FFF792FD2046012100F060F865
:100D000006B010BD2DE9F04144F20044C4F20004E5
:100D1000204640F2255100F063F800284ED02046CE
:100D200000F0EEF840F2E506C2F20006317821B993
:100D3000C2B2AA2A18BFBDE8F0814A1CD3B240F261
:100D40006507C2F20007032B327078542FD3BC78AA
:100D5000201DC0B281422AD1394640F2E80831F85C
:100D6000030BC2F2000808F10305A8F800002846AA
:100D7000224688F80240FFF756FA0020E11928556C
:100D8000CC78097988F84340552988F844103070A8
:100D90000DD140F2E800C2F20000FFF7CDFC844222
:100DA00005D140F26400C2F200000121017096F901
:100DB0000000B0F1FF3FDCBF00203070BDE8F081E3
:100DC0008289002942F4005308BF22F40053838132
:100DD000704700000088084018BF012070470000DD
:100DE00001F01F024FF0010CC1F34213022B0CFA69
:100DF00002F206D0012B14BF00F1140300F10C0322
:100E000001E000F110031B880088090A1A4020FA4B
:100E100001F018BF0122104070470000C1F34213D7
:100E200001F01F0C1421022B08BF1021012B4FF0E1
:100E3000010308BF0C21002A03FA0CF243580CBF2F
:100E400023EA02021A4342507047000070B586B090
:100E50000446008A0D46C98820F440500843208289
:100E6000A0894EF6F3110840A9882A896B890843A6
:100E700010431843A081A08AA98920F44070084338
:100E800001AEA0823046FFF735FD43F6000106F1C2
:100E90000800C4F201018C4208BF06F10C00006892
:100EA0001922B4F90C1050432A680223002948BFC4
:100EB000012302FA03F1B0FBF1F048F21F51C5F231
:100EC000EB11A0FB01235A096FF0630302FB03003F
:100ED000B4F90C300426002B48BF032600FA06F0B4
:100EE00000F13200A0FB01014FF00F0048BF0720C6
:100EF00000EA511040EA0210208106B070BD0000E7
:100F000080886FF35F2070476FF35F2181807047A7
:100F10004EF20010CEF200004FF080510160704799
:100F20004EF21C40CEF2000010210170704700000C
:100F3000B0B582B029B1B1F1FF3F06DD4FF0000C32
:100F400008E03021018002B0B0BD2D2249424FF0AF
:100F5000010C02700AB2012A19DB46F2676E002406
:100F6000C6F2666E6A4600BF0BB283FB0E35AB104D
:100F700003EBD57505EB8503A1EB43013031631C11
:100F8000E4B2115529B200291C46EDDC00E0002333
:100F9000591E4CB2002C14D403EB0C01CAB26B46A0
:100FA000ACF10101C2F1000C234400BF441801312F
:100FB00013F801590CEB010201326570F6D101F111
:100FC000010C5FFA8CF10022425402B0B0BD000067
:100FD000C6B0FFF707FBFFF7A7FDFFF767FEFFF7B8
:100FE00081FDFFF7D5F957A0FFF762FC5CA0FFF782
:100FF0005FFC41F23C20C0F60000016822AD09917F
:101000004168EE1C0891816840F6B7380791C168C5
:101010000DF13009069101690DF1280A0591416928
:101020000EAF049181690DF1D00B0391C16990F865
:1010300020000291019002E051A0FFF739FC00F07E
:10104000BFF8044600F0BCF8001B4045F4D8284621
:10105000FFF780FB0028F5D09DF88A000024284483
:10106000C4703046FFF724FCFFF7BCF940F23010A3
:10107000C2F20000B0F900104846FFF759FF40F2F5
:101080002E10C2F20000B0F900105046FFF750FFDA
:10109000099849460E9008980F9007981090069866
:1010A0001190059812900498139003981490029848
:1010B000159001988DF858003846FFF7A8F8FFF70B
:1010C00087F842F243023918C3F648223A500C71AD
:1010D00038465146FFF79BF8FFF77AF82521395239
:1010E0003846FFF775F8C3B2584601213A46FFF774
:1010F0000FFB5846FFF742FB3846FFF7D9FB304657
:1011000000F064F800289AD463280BDC41F2000058
:10111000C4F201004FF40051FFF7F6FA22A0FFF7E6
:10112000C7FB8CE741F20000C4F201004FF400510C
:10113000FFF7ECFA41F22420C0F60000FFF7B8FBFD
:101140007DE700BF3D3D3D2053544D3332204E6F6F
:1011500064652032205245414459203D3D3D000008
:101160004E677579656E204D696E68205175616EA8
:10117000202D20423232444344543234380000009F
:101180005B5741524E5D204B686F6E67206E686101
:101190006E2064756F632062616E2074696E2074C6
:1011A0007520455350333200204C7578203C203157
:1011B0003030202D3E204241542050433133000036
:1011C00040F26000C2F200000068704780B50EA1D6
:1011D000FEF7ECFFA8B110F8042FA2F130010929A5
:1011E00084BF002080BD002101EB810102EB4101A1
:1011F00010F8012F3039A2F130030A2BF4D308463E
:1012000080BD4FF0FF3080BD4C75783A0000000083
:1012100002040608000000000102030401020304A6
:10122000060708094C7578203E3D20313030202DCE
:101230003E2054415420504331330A005068616EBF
:1012400020686F69207475204E6F646520322076A7
:1012500065204E6F646520313A20543A000000004A
:101260007012000800000020B807000028010008E4
:04000005080000ED02
:00000001FF
