:020000040800F2
:10000000D007002099010008A1010008A301000801
:10001000A5010008A7010008A901000800000000D0
:10002000000000000000000000000000AB0100081C
:10003000AD01000800000000AF01000845140008F1
:10004000B3010008B3010008B3010008B3010008C0
:10005000B3010008B3010008B3010008B3010008B0
:10006000B3010008B3010008B3010008B3010008A0
:10007000B3010008B3010008B3010008B301000890
:10008000B3010008B3010008B3010008B301000880
:10009000B3010008B3010008B3010008B301000870
:1000A000B3010008B3010008B3010008B301000860
:1000B000B3010008B3010008B3010008B301000850
:1000C000B3010008B3010008B3010008B301000840
:1000D000B301000801150008B3010008B3010008CE
:1000E000B3010008B3010008B301000800F002F8F2
:1000F00000F042F80AA090E8000C82448344AAF180
:100100000107DA4501D100F037F8AFF2090EBAE87D
:100110000F0013F0010F18BFFB1A43F0010318473B
:10012000E01E0000001F0000103A24BF78C878C10C
:10013000FAD8520724BF30C830C144BF04680C60ED
:10014000704700000023002400250026103A28BF35
:1001500078C1FBD8520728BF30C148BF0B60704739
:100160001FB59DE8030000F00BFB00F007F91FBD71
:1001700010B500F06CF910BD00F09CF91146FFF7C6
:10018000EFFF01F001FC00F0A3FA03B4FFF7F0FF6A
:1001900003BC00F067FC000009488047094800479D
:1001A000FEE7FEE7FEE7FEE7FEE7FEE7FEE7FEE727
:1001B000FEE7FEE704480549054A064B7047000084
:1001C00081140008ED000008D0010020D0070020B5
:1001D000D0030020D003002053EA020C00F0698015
:1001E0002DE9F04B4FF00006002B1FBFB3FA83F54B
:1001F00003FA05F424FA05F65E4012BF1643B2FA7C
:1002000082F502FA05F4C5F120051EBF22FA05FCAD
:1002100044EA0C04203556EA044C4FEA144418BF53
:10022000641C4FF000084FF00009904271EB030C82
:1002300039D3002919BFB1FA81F701FA07F6B0FAEC
:1002400080F700FA07F6C7F120071EBF20FA07FC67
:1002500046EA0C062037B6FBF4FCA7EB0507103F77
:1002600007F01F0BCBF120062CFA06F60CFA0BFB5D
:1002700044BFB3460026202FA4BF5E464FF0000BBC
:100280005BEA060C08BF4FF0010B19EB0B0948EBBA
:100290000608ABFB027C06FB02CC0BFB03CCC01BAD
:1002A00071EB0C01C1E70B46024641464846BDE8EA
:1002B000F08B13B5084318BF4FF0FF300146AFF382
:1002C0000080BDE81C40704710B5044603E001F013
:1002D000D9FA401C09D014F8010B05490028F6D1C1
:1002E000BDE810400A2001F0CDBA4FF0FF3010BD3C
:1002F0006C0000204FF0013C50F8042B51F8043BF7
:100300009A4221D1A2EB0C03934313EACC1317D1E9
:1003100050F8042B51F8043B9A4215D1A2EB0C0380
:10032000934313EACC130BD150F8042B51F8043B40
:100330009A4209D1A2EB0C03934313EACC13DBD00E
:100340004FF00000704700BFD01A01BAB1FA81F136
:1003500001F0180122FA01F0CB40DBB2C0B2C01AA2
:10036000C1F120012CFA01F3D11A914311EAC31112
:10037000E6D17047704770477047000010B542489B
:10038000542100F0B5F94148542100F0B1F940483A
:10039000542100F0ADF93F493B483C4A3F4B0860CF
:1003A0003D490A603A491960531C0365481C1065B1
:1003B000012008653B48344A39A1784400F0EAF846
:1003C00020B9384878440A3800F08BF937482F4A6A
:1003D00035A1784400F0DEF820B9344878440A3872
:1003E00000F07FF932482A4A2FA1784400F0D2F871
:1003F00020B92F4878440A3800F073F94023224886
:10040000DC000021224600F0A1F820B12548784404
:10041000543800F066F91D4822464023002100F0C0
:1004200095F820B121487844543800F05AF918481A
:1004300022461023002100F089F8002806D01C482D
:100440007844BDE81040563800F04BB910BD104854
:1004500070B5006D20F001040B4800F013F90B4853
:1004600000F010F90A4800F00DF909E0206D20F0C5
:100470000105204600F006F9204600F040F82C4621
:10048000002CF3D170BD0000180000206C0000208B
:10049000C000002000000020040000200800002010
:1004A000720000002A1C000077000000191C0000E8
:1004B000F21B0000754600F043F9AE4605006946A0
:1004C000534620F00700854618B020B5FFF772FEAE
:1004D000BDE820404FF000064FF000074FF0000845
:1004E0004FF0000BAC46ACE8C009ACE8C009ACE882
:1004F000C009ACE8C00921F007018D46704770B50E
:100500000446051F00F020F90068002C14BF446861
:1005100070BD002C18BFAC423CBF20466468F8D3C5
:1005200001680A18AA4218BF456003D12A68054627
:100530001144016028684119A1421CBF6C6070BD64
:100540006168696021680844286070BD70B5C4683E
:10055000A50713D0650211D4B2F5807F09D0B2F59A
:10056000007F06D0B2F5806F08D1012300F124018D
:1005700006E05D1E6FF07F46B54201D3012070BDDD
:100580000161C361416024F470611143C1600020C6
:1005900070BD00002DE9F0410C461646070047D01B
:1005A000104600F06FF82078611C61280AD072288C
:1005B00002D077283CD102E00125002405E0022585
:1005C000042402E0082448F2020511F8010B2B284C
:1005D00006D0622809D011F8010C74280AD00BE06B
:1005E00045F0030544F00204EFE745F0040544F04C
:1005F0000104EAE744F010043846214601F090F87F
:10060000411C15D00021316171604FF40071F5601B
:10061000F1617061200704D530460222002100F00C
:100620000DF9306D40F0010030653046BDE8F081D5
:100630000020FBE72DE9F0410D460646104C206DE9
:10064000C10704D0410804D020F00104F7E7224696
:100650000EE0542000F0C3F807000ED0206D47F0E4
:100660000101084354212065384600F041F83A461C
:1006700029463046BDE8F0418CE70020D6E700006F
:10068000180000202DE9F04704464FF000094FF014
:10069000FF37C568D4E90486A80707D0204600F0D4
:1006A0007DF9304601F028F8002802DA3846BDE826
:1006B000F087280502D54046FFF721FF4C21204650
:1006C00000F016F8206D20F0010020654846EEE7A6
:1006D00010B50446AFF300802046BDE81040FFF798
:1006E00054BD10B500F0A4F9BDE8104000F09AB96F
:1006F0004FF0000200B5134694469646203922BFBB
:10070000A0E80C50A0E80C50B1F12001BFF4F7AF05
:10071000090728BFA0E80C5048BF0CC05DF804EBE7
:10072000890028BF40F8042B08BF704748BF20F855
:10073000022B11F0804F18BF00F8012B704700000A
:100740000048704714010020004870471C01002039
:10075000704770477047704738B504460A46002016
:100760006946AFF30080002808BF38BD02460099F3
:10077000204600F084F9012038BD012000F0D3B9F3
:10078000F8B5AFF30080054600200C46102000BFEE
:100790000646A819A0420DD9324669460020AFF39B
:1007A0000080070008BF00F0BEF90098A04218BF03
:1007B0000546C419FFF7C8FF05600746F01D20F085
:1007C00007004619284600F053F9B44208BFF8BDA7
:1007D000A21B31463868BDE8F84000F050B970B54A
:1007E0000646FFF7B1FF056806F10B0020F007048D
:1007F000B4429CBF002070BD2B466A68BAB1106835
:10080000A04210D304F1080188423CBF50685860F0
:1008100007D35168101941601168091B01605860C5
:100820001460101D70BD13465268002AE7D121469E
:100830002846FFF791FF0028DED170BD2DE9F04179
:10084000044616460D464769007B80072ED0384681
:1008500000F05EFF50BB3EB3012E02D0022E25D128
:1008600004E0204600F025F905441DE0384600F07C
:100870004DFFE168002841F01001E16005DA2046F3
:1008800000F058F80120BDE8F081C9030BD562687B
:10089000E16A914200D81146A26911442269891A7D
:1008A000814200DD08460544002D01DA0220EAE716
:1008B000E16A6068E268814206D29103E06203D592
:1008C00022F4003141F01002A6690027AE4213DC89
:1008D000E16A814201D90B4600E0034603EB060CB6
:1008E0002369ACEB030CAC4506DD814201D98C4693
:1008F00000E084469C4505D1A760276042F02000B7
:10090000A5620DE0AD1BE669AE1B8142A66000D971
:100910000846C01A281A20605819606022F020008A
:1009200003490840E060002084F84870ABE700000D
:10093000BFCFD7FFC16821F4001141F08001C16031
:1009400000218160016070472DE9F047814614461F
:100950000E464FF0FF383248D5685769054209D036
:100960003846A16900F00EFF002811DB2C48C04377
:100970000540E5602B4632464946384600F006FF02
:10098000A16920F00042B21A11440028A16103D0ED
:100990002046FFF7CFFF4046BDE8F08770B504461C
:1009A0000569C06A6168884200D80846E16821F498
:1009B0002011E160C90312D5A84208D02246411B8C
:1009C0002846FFF7C1FF10B14FF0FF3070BD002087
:1009D000E562C4E90150E06820F48030E060002066
:1009E00070BD10B50446C06820F02000E060A16A28
:1009F000A06988420DD02046FFF7D0FFE06820F4C0
:100A0000405040F01000E060A06AA0612069E06200
:100A1000606044F24001E0688843E06010BD00007F
:100A200010000200002801D000F01CB87047000040
:100A300010B5014602A000F05DF8012010BD0000D5
:100A400053494752545245443A205265646972658D
:100A500063743A2063616E2774206F70656E3A206C
:100A60000000000001491820ABBEFEE7260002008E
:100A700000210160C0E90110704710207047034653
:100A800040688C46002818BF88423CBF0346406837
:100A9000F8D318681844884207D00CF1030020F0FE
:100AA0000700001D411A521A0146081D0A60FFF78F
:100AB00026BD10B50146C268900703D0900607D541
:100AC000886A0AE000F038F801210160881E10BD34
:100AD0008B69486818440B69C01A91F848301BB1FB
:100AE00091F84910401A10BD1103FCD50028FADD19
:100AF000401E10BD70B505460C460A2000E06D1C76
:100B000000F05AFE35B128780028F8D102E0641CC4
:100B100000F052FE14B120780028F8D1BDE87040F2
:100B20000A2000F049BE10B500F00AF8BDE81040F8
:100B3000FFF778BF7047000000487047140100209D
:100B400010B5012805D0002103A0FFF7D3FF012035
:100B500010BD09A1F8E7000053494752544D454DD7
:100B60003A204F7574206F662068656170206D654E
:100B70006D6F7279000000003A2048656170206D49
:100B8000656D6F727920636F727275707465640041
:100B900010B582B045F20044C4F20004204646215C
:100BA000102200F0D5FEB42000F050FE0DF1060337
:100BB00020464621022200F077FEBDF80600000420
:100BC00000BA01F098F943F23333C3F6F3734FF0F0
:100BD000333201F009F801F05FF902B010BD0000F6
:100BE000B0B582B01420012100F0B4FA42F2000046
:100BF00041F20004C1F20300C4F2010401AD01900E
:100C00002046294600F010F820464FF4005100F02D
:100C10006BF80120C4F602000190A4F5006029469B
:100C200000F002F802B0B0BD2DE9F041CA7802F040
:100C30000F0CD30644BF8B784CEA030C09880B06D3
:100C400021D0056800234FF001084FF00F0E002659
:100C500008E000BF282A08BF47610136082E03F1CB
:100C600004030FD008FA06F70F42F6D00EFA03F489
:100C700025EA04040CFA03F5482A45EA0405E9D1FB
:100C80000761EAE70560B1F5807F38BFBDE8F08114
:100C9000446800234FF4807E4FF00F08002607E0E1
:100CA000282A08BF47610136082E03F1040310D03B
:100CB0000EFA06F707EA0105BD42F4D108FA03F57A
:100CC000AC430CFA03F5482A44EA0504E8D107616D
:100CD000E9E74460BDE8F0818068084018BF012062
:100CE00070470000416170470161704741F2180090
:100CF000C4F20200416841F480014160016841F0A2
:100D00000801016040F60440C4F20100016821F4CA
:100D10007F410160016841F43B41016045F60000FC
:100D2000C4F20000018841F40041018001886FF3A2
:100D3000DF31018024218180B42181832521018438
:100D40004FF4804101810121018070472DE9F0417C
:100D500045F614064DF6F00820240025C4F20006DE
:100D6000CFF6FF7840F20247E0B2282808BF3824C7
:100D700000F040F8E0B2400026F8040C404600BF06
:100D80003188394201D10130FAD3308880070BD441
:100D900000F03CF8308820F480603080052000F0BE
:100DA00055FD012020B907E0B0880020254618B184
:100DB0000134E0B24028D7D3280608BF2725E8B27F
:100DC000BDE8F08181B045F61001C4F20001088051
:100DD00088888007FCD50889009001B07047000022
:100DE00045F61001C4F20001088000BF88880006A3
:100DF000FCD5704745F60000C4F20000018841F4BC
:100E000080710180818AC907FCD0704745F60000D7
:100E1000C4F20000018841F40071018070470000B5
:100E20000288002942F4806308BF22F480630380B3
:100E300070470000828A008B60F3174202EA0100CB
:100E4000401AB0FA80F0400970470000028800297B
:100E500042F0010308BF22F0010303807047000045
:100E60000288002942F4807308BF22F48073038053
:100E7000704700000288002942F4007308BF22F482
:100E8000007303807047000070B586B00446808808
:100E90000D4620F03F0601A800F068F903994DF6D1
:100EA0008360C4F21B30A1FB000346EA9340A0809C
:100EB000208820F0010020802A6848F2A060C0F25B
:100EC000010082424FEA934008D85200B1FBF2F190
:100ED0004FF6FC72114208BF042125E0EB884BF667
:100EE000FF76B34204D102EB4202B1FBF2F105E01E
:100EF00019235A43B1FBF2F141F480414FF4967249
:100F0000504344F6D352C1F26202A0FB02020846EB
:100F10006FF31F30B0FA80F04009084348F2000137
:100F2000CFF6FF710143900901302084A18320880E
:100F30004FF6F53140F00100208020886A89084092
:100F4000A988084310432080A88929890843208163
:100F500006B070BD008AC0B27047000041F00103C6
:100F6000002A08BF01F0FE03038270470182704728
:100F700080B5012000F004F80A2000F067FC80BD75
:100F8000B0B582B000F0F00100010A1D8DF8051027
:100F9000011D08304FF0FF3401AD8DF804208DF8AD
:100FA00006108DF8070000BF2819407800F0B4F84B
:100FB0000134032CF8D102B0B0BD0000B0B582B04E
:100FC00000F0F001000101F10D0209318DF805106A
:100FD00000F10D0109304FF0FF3401AD8DF8042010
:100FE0008DF806108DF807002819407800F094F865
:100FF0000134032CF8D102B0B0BD000010B5FFF7EA
:10100000A5FE40F2CC14C2F20004207020B919A051
:10101000FFF75AF9272020702078400020703320F5
:10102000FFF7AEFF0A2000F011FC3220FFF7A8FF07
:10103000322000F00BFC2820FFF7A2FF322000F046
:1010400005FC0120FFF79CFF322000F0FFFB06208B
:10105000FFF796FF322000F0F9FB0C20FFF790FF1E
:10106000322000F0F3FB0220FFF78AFF322000F06D
:10107000EDFB10BD4C4344206E6F7420666F756E9F
:1010800064210D0070B584B038B34CF6CD42002316
:10109000CCF6CC42EC4600BF84B2A4FB0251C90896
:1010A00001EB8105A0EB450040F030005D1CDBB298
:1010B0000CF80300092C2B460846EDD828060AD068
:1010C000ECB2ACF1010500BF285D661EFFF776FFAC
:1010D000012C3446F8DC04B070BD3020FFF76EFF01
:1010E00004B070BD10B50178002908BF10BD441EC2
:1010F000C8B2FFF763FFA17801340029F8D110BD11
:1011000080B5A0F14002002908BF80F08002D0B273
:10111000FFF736FF80BD000010B50446FFF76AFEFA
:1011200040F2CC10C2F200000078FFF74BFE2046E0
:10113000FFF756FEFFF76AFE10BD0000002941F2DE
:101140001C01C4F202010A680CBF22EA000010432D
:1011500008607047002941F21801C4F202010A68D0
:101160000CBF22EA000010430860704710B541F23E
:101170000404C4F20204226802F00C02082A41F2BC
:101180000022C0F27A021CD12368D4F800C0C3F355
:10119000834E5FEACC330EF1020C06D440F6001207
:1011A000C0F23D020CFB02F20BE023689B0302D469
:1011B0000CFB02F205E040F60012C0F23D020CFB0F
:1011C00002F20260226841F6D073C2F30312C0F645
:1011D00000039A5C0168D14041602268C2F3022298
:1011E0009A5C21FA02F282602268C2F3C2229A5CFF
:1011F00041F6CC73D140C1602268C0F60003C2F34F
:1012000081329A5CB1FBF2F1016110BD70B500F062
:101210002BF940F2C811C2F200010A68821AB2F535
:101220007A7F35D341F20004C4F201040860FFF76D
:10123000AFFC054600200021FFF762FF16A0FFF774
:1012400051FF2846FFF71EFF15A0FFF74BFF40F2A6
:101250001006C2F200063088FFF714FF308885427E
:1012600009D920464FF40051FFF73EFD41F6F774CF
:10127000C0F6000405E020464FF40051FFF732FDB0
:1012800008A400200121FFF73BFF2046FFF72AFFBB
:101290000A2000F0DBFA70BD4C75783A00000000BF
:1012A0002F0000004261742064656E002DE9F0415A
:1012B00040F60005C4F2010528464FF4807100F0A5
:1012C000B3FA04462846402100F0AEFA40F2C718AF
:1012D00040F210070546C2F20008C2F2000774B1DE
:1012E00098F8000058B938880130388011A000F013
:1012F000C3FB40F2CD10C2F2000000F0EDF840F266
:10130000C616C2F2000655B1307840B938880138A7
:10131000388080B200F066FB08A000F0ADFB002D25
:1013200018BF0125002C18BF012488F80040357033
:10133000BDE8F081636F6E67000000007472750095
:1013400080B500F001F880BD82B041F204000021B8
:10135000C4F202000191009150F8041C41F4803164
:1013600040F8041C50F8041C01F40031009101996C
:1013700001310191009919B90199B1F5A06FF1D12D
:1013800050F8041C890354BF0021012100910099E9
:10139000012936D142F20001C4F202010A6842F08A
:1013A00010020A600A6822F007020A600A6842F026
:1013B00002020A600168016001680160016841F48D
:1013C00080610160016821F47C110160016841F4D1
:1013D000E811016050F8041C41F0807140F8041CD1
:1013E00050F8041C8901FBD5016821F0030101605C
:1013F000016841F002010160016801F00C01082957
:10140000FAD102B07047000040F20C004EF2180111
:10141000C2F20000CEF2000100680968C1EB006072
:101420007047000040F20C004EF21801C2F20000BA
:10143000CEF2000100680968020AD1EB006062F197
:101440000001704740F20C00C2F200000168013157
:10145000016070474EF21000CEF200006FF07F4145
:10146000416007210160704780B5FFF7DBFF41F65F
:101470004012C0F201020023FEF7AEFE80BD000064
:1014800080B541F20000C4F202000168002241F080
:10149000010101604168CFF6FF021140416001681F
:1014A0004FF6FF72CFF6F66211400160016821F439
:1014B00080210160416821F4FE0141604FF41F0169
:1014C0008160FFF73DFF4EF60850CEF200004FF06E
:1014D0000061016080BD000080B502780146B2FA6B
:1014E00082F341F200005B09C4F201000B704FF47B
:1014F000005112B1FFF7F8FB80BDFFF7F3FB80BD91
:1015000010B543F60004C4F20104204640F2255110
:1015100000F04AF830B3204600F0D6F8C1B20A29EC
:1015200040F2C511C2F2000113D1087840F2CE1288
:10153000C2F2000210800A7840F27413C2F2000373
:101540000020985440F2C412C2F20002012313702A
:1015500007E00A7840F27413C2F200039854087846
:1015600001300870204640F2255100F005F810BD0A
:10157000C943018070470000090A012202FA01F103
:10158000C9430180704700008289002942F400535A
:1015900008BF22F400538381704700000088084090
:1015A00018BF01207047000001F01F024FF0010C2E
:1015B000C1F34213022B0CFA02F206D0012B14BF26
:1015C00000F1140300F10C0301E000F110031B888B
:1015D0000088090A1A4020FA01F018BF01221040C1
:1015E00070470000C1F3421301F01F0C1421022BBD
:1015F00008BF1021012B4FF0010308BF0C21002A66
:1016000003FA0CF243580CBF23EA02021A43425079
:101610007047000070B586B00446008A0D46C98840
:1016200020F4405008432082A0894EF6F311084070
:10163000A9882A896B89084310431843A081A08A8E
:10164000A98920F44070084301AEA0823046FFF71C
:101650008DFD43F6000106F10800C4F201018C4241
:1016600008BF06F10C0000681922B4F90C105043B1
:101670002A680223002948BF012302FA03F1B0FBC4
:10168000F1F048F21F51C5F2EB11A0FB01235A09FA
:101690006FF0630302FB0300B4F90C300426002B47
:1016A00048BF032600FA06F000F13200A0FB01015A
:1016B0004FF00F0048BF072000EA511040EA021027
:1016C000208106B070BD000080886FF35F207047F6
:1016D0006FF35F21818070474EF20410CEF200005C
:1016E00020210160704700004EF22540CEF200003C
:1016F000102101707047000048F20101411A0020DA
:10170000022988BF4FF0FF3070470000002070476B
:1017100048F20101411A0020032938BF0120704717
:1017200010B5C8B1044600783A2815D10FA120465B
:10173000FEF7E0FD98B10FA12046FEF7DBFD88B172
:101740000EA12046FEF7D6FD01464FF0FF300029DE
:1017500008BF48F2030010BD4FF0FF3010BD48F243
:10176000010010BD48F2020010BD00BF3A535444BE
:10177000494E00003A5354444F5554003A53544490
:10178000455252004FF0FF307047000010B548F24C
:10179000030188420AD048F20201884208D1144667
:1017A00022B100BF00F0C2F9013CFBD1002010BD06
:1017B0004FF0FF3010BD000000BE704710B586B07E
:1017C0004FF400100121FFF7B9FC08200121FFF7B9
:1017D000C1FCC02045F20044C1F60340C4F200043D
:1017E000059004F5384005A9FFF71EFA0020CBF656
:1017F000FF7002904FF0806003904FF48040ADF88E
:10180000100048F2A060C0F20100019001A920463A
:10181000FFF73AFB20460121FFF718FB06B010BD89
:101820003030C0B270470000B0B50C460546FFF737
:1018300053FA38B9C82000F009F828462146FFF7C6
:101840004BFA08B10020B0BD0120B0BD10B5002892
:1018500008BF10BD044600BF4FF47A7000F004F8D2
:10186000013CF9D110BD000010B50446FFF7CCFDD6
:1018700004EBC40100EBC104FFF7C6FD201A0028E9
:10188000FADC10BDB0B543F60005C4F2010504460C
:10189000C1B22846FFF71CFF28468021FFF77EFED5
:1018A0000028F9D02046B0BDF0B581B01C461646E0
:1018B0000F46054600F02AF928463946012200F075
:1018C00005F95EB9284600F033F901B0F0BD00BF5C
:1018D00000F00AF8013E04F8010BF3D02846012E6F
:1018E000F6D100F013F8F5E7B0B501210446FFF793
:1018F00097FA4025C0F2030520462946FFF79AFAD9
:101900000028F9D02046FFF725FBB0BDB0B5002177
:101910000446FFF785FA4025C0F203052046294614
:10192000FFF788FA0028F9D02046FFF713FBB0BD77
:10193000B0B50446FFF71AFB8025C0F2070500BFCB
:1019400020462946FFF776FA0028F9D0B0BD0000FE
:1019500070B515460E46044600F0D8F820463146CC
:10196000002200F0B3F820462946FFF7E1FF842566
:10197000C0F2070520462946FFF75CFA0028F9D097
:10198000204600F0D5F870BDFFF764FD4FF4165007
:1019900000F0D4F8FFF712FFFFF722F9FFF7A6F9DE
:1019A000FFF7D4F940F2CC11C2F200010870FFF742
:1019B00025FBFFF7DDFA00200021FFF7A1FB05A0C2
:1019C000FFF790FBFFF7D4FAFFF770FCFFF71EFC60
:1019D000FAE700BF493243204C434420466F756EFE
:1019E0006421000070B586B0F0B10446B0F1FF3F4D
:1019F00020DD2CB346F2676C0022C6F2666C01A9AA
:101A000084FB0C35AB1003EBD57303EB8305A4EB20
:101A10004500551C885404F1090013282A461C4629
:101A2000EED2012D0FDA1AE00020FFF7F9FE00F0E8
:101A30003BF81FE02D20644200F036F8002CD9D18D
:101A40000025012D0BDB01A8441E00BF605D6E1E4A
:101A5000FFF7E6FE00F028F8012D3546F6DC43F6E8
:101A60000004C4F2010400BF20464021FFF796FDA8
:101A70000028F9D006B070BD10B5017839B1441E08
:101A8000C8B200F011F8A17801340029F8D143F66A
:101A90000004C4F2010400BF20464021FFF77EFD90
:101AA0000028F9D010BD000010B543F60004C4F2C0
:101AB000010401462046FFF70BFE00BF20468021AF
:101AC000FFF76CFD0028F9D010BD0000B0B5C9B219
:101AD00015460446FFF742FA6DB1012D18BFB0BD9F
:101AE0000225C0F2030500BF20462946FFF7A2F9F0
:101AF0000028F9D008E08225C0F2070520462946D3
:101B0000FFF798F90028F9D0B0BD0000B0B5012169
:101B10000446FFF7A5F90125C0F203052046294632
:101B2000FFF788F90028F9D0B0BD000000BE70476B
:101B300080B50121FFF79EF980BD0000F0B585B0AA
:101B400005464FF480400121FFF704FB04200121EA
:101B5000FFF700FB43F6000440F20020C4F201044A
:101B6000C1F60300A4F5405604AF04903046394650
:101B7000FFF75AF84FF48060ADF8100048208DF858
:101B8000130030463946FFF74FF8009500254FF413
:101B90004020ADF80C50CDE9015069462046FFF7D2
:101BA00039FD20464021FFF7E3FC204640F2255155
:101BB0000122FFF717FDFFF78FFDFFF795FD204688
:101BC0000121FFF7E1FC40F2C410C2F200000570F1
:101BD00040F2C510C2F20000057040F2CE10C2F211
:101BE0000000058005B0F0BD2DE9C04130B4DFF83C
:101BF000A0C23CEA111418BF3CEA131400F0EC80B8
:101C00001CEA111481EA030544EAD57418BF1CEAE2
:101C1000131500F0C780A4EB050404F17F7404F5EC
:101C200000344FF0004545EAC12145EAC32341EAAB
:101C3000505143EA52534FEAC0204FEAC222994220
:101C400008BF904200F09C804FEA13650FF24016E7
:101C5000765D4FEA134506FB05F7C7F1807706FB73
:101C600007F74FEAD737A7FB03687642A7FB06CEF4
:101C7000C8F5803838BFA8F1010807FB08E6A6FBC5
:101C8000028C4FF0000EE6FB03CEDCF1000CCEF12F
:101C9000004E38BFAEF1010EA6FB0C584FF0000706
:101CA000E6FB0E87A1FB08C6A0FB07CE16EB0E06CF
:101CB0004FF0000545F10005E1FB076515F1E04E29
:101CC0007EBFA4F580345FEA46066D4116F18007B9
:101CD00045F100054FEA172747EA05674FEA152542
:101CE0004FEA0666A6F1DE46B6F1805F1FD9384698
:101CF00005EBC47124F0010C01EB0C11BCF1FE6F7B
:101D000002D8F0BCBDE8008124425CBF01F5801E12
:101D10009EEAC47F02D4F0BCBDE80081244238D4DE
:101D2000A1F1C041F0BCBDE8004100F049B94FEA63
:101D3000D02040EA41504FEAD1214FEAD22242EA74
:101D400043524FEAD323A7FB028607FB036605FB3A
:101D500002661EEA0E0F58BFA6EB0056B6EB005601
:101D60004FEA520E4EEAC37E18EB0E0E56EB530EA0
:101D7000BDD518EB02085E417F1C55F10005B6E7A2
:101D80004FF480154FF000074FF000064FF00008A9
:101D9000ADE701F1C04101F000414FF00000F0BC9F
:101DA000BDE800810CEA131511EA0C1F00D00CE00D
:101DB00013EA0C1F00F025804FF0000081EA0301B8
:101DC00001F00041F0BCBDE80081F0BCBDE800417D
:101DD00081EA030100F0F4B8F0BCBDE8004170B541
:101DE00000F0A0F8097EFC3E00F007B84FF00000BC
:101DF00081EA030101F00041704781EA030100F02C
:101E0000DFB8F0BCBDE8004122494FF00000704748
:101E1000FFFDFBF9F7F5F4F2F0EEEDEBE9E8E6E4AF
:101E2000E3E1E0DEDDDBDAD8D7D5D4D3D1D0CFCD36
:101E3000CCCBCAC8C7C6C5C4C2C1C0BFBEBDBCBB6F
:101E4000BAB9B8B7B6B5B4B3B2B1B0AFAEADACAB6A
:101E5000AAA9A8A8A7A6A5A4A3A3A2A1A09F9F9E44
:101E60009D9C9C9B9A9999989797969595949393F6
:101E7000929191908F8F8E8E8D8C8C8B8B8A89898D
:101E80008888878786858584848383828281818010
:101E90000000FF070000F87F4FEA41034FEA535369
:101EA000A3F58063D3F11E03C8BFD3F1210C0CDD71
:101EB0004FF0004242EAC12242EA505232FA03FC99
:101EC0008CEAE17CACEBE1707047102BC4BF0020C2
:101ED000704703F5787CBCF1FF3F04D06FF00042FF
:101EE00082EA2100704770B500F01CF84992248006
:101EF00000207047F2E710F0004248BF4042B0FABD
:101F000080F310FA03F10AD0C3F11D0303F58063D7
:101F100002EB03524FEA415002EBD12170474FF0E0
:101F2000000070470EF1020E2EF0030E5EF8046BF7
:101F3000364205D4012A43EB030515F5001F12D8DC
:101F4000012841EB010C1CF5001F0CD80ED14FEA03
:101F5000D17C0CEB4C0C0CF1020C15F5001F08BFEA
:101F60004CEBD37C04E04FF0080C01E04FEAD37C4B
:101F70000CEB4C0526FA05F606F00706B6F1040C44
:101F800006D20EEB860CBDE870404CF0010C6047A9
:101F9000DFE80CF0090B02024FF00041A1F500212F
:101FA0004FF0000070BD19461046012851EB0104A6
:101FB00018BFD4F5001484BF002001F0004170BDAB
:101FC0000808A0F500114FEA310170470204060825
:101FD00000000000010203040102030406070809CF
:101FE0003A535444455252003A535444494E003AED
:101FF0005354444F5554005461742064656E00007E
:10200000202000080000002018000000280100081F
:102010003820000818000020B8070000440100081C
:1020200000000000000000000000000001000000AF
:08203000140000000000000094
:04000005080000ED02
:00000001FF
